:020000040800F2
:1000000000500020E136000835360008413600086F
:10001000473600084D36000853360008000000003F
:100020000000000000000000000000005936000839
:100030006536000800000000713600087D360008B3
:100040002937000829370008293700082937000810
:1000500029370008293700088936000829370008A1
:1000600029370008293700082937000829370008F0
:100070009936000829370008293700082937000871
:1000800029370008293700082937000829370008D0
:1000900029370008293700082937000829370008C0
:1000A00029370008293700082937000829370008B0
:1000B00029370008AD360008C13600082937000886
:1000C0002937000829370008293700082937000890
:1000D0002937000829370008293700082937000880
:1000E00029370008293700082937000800000000D8
:1000F0000000000000000000000000000000000000
:0C01000000000000000000005FF808F1A3
:1001100010B5054C237833B9044B13B10448AFF341
:1001200000800123237010BD80010020000000002A
:10013000F87B000808B5034B1BB103490348AFF334
:10014000008008BD0000000084010020F87B00084A
:1001500081F0004102E000BF83F0004330B54FEA78
:1001600041044FEA430594EA050F08BF90EA020FE5
:100170001FBF54EA000C55EA020C7FEA645C7FEA78
:10018000655C00F0E2804FEA5454D4EB5555B8BF9B
:100190006D420CDD2C4480EA020281EA030382EA0C
:1001A000000083EA010180EA020281EA0303362D9E
:1001B00088BF30BD11F0004F4FEA01314FF4801C71
:1001C0004CEA113102D0404261EB410113F0004F83
:1001D0004FEA03334CEA133302D0524263EB43033A
:1001E00094EA050F00F0A780A4F10104D5F1200ED8
:1001F0000DDB02FA0EFC22FA05F2801841F1000133
:1002000003FA0EF2801843FA05F359410EE0A5F106
:1002100020050EF1200E012A03FA0EFC28BF4CF037
:10022000020C43FA05F3C01851EBE37101F00045ED
:1002300007D54FF0000EDCF1000C7EEB00006EEBFA
:100240000101B1F5801F1BD3B1F5001F0CD3490884
:100250005FEA30004FEA3C0C04F101044FEA4452DB
:1002600012F5800F80F09A80BCF1004F08BF5FEA62
:10027000500C50F1000041EB045141EA050130BD42
:100280005FEA4C0C404141EB0101013C28BFB1F554
:10029000801FE9D291F0000F04BF01460020B1FA9F
:1002A00081F308BF2033A3F10B03B3F120020CDA72
:1002B0000C3208DD02F1140CC2F10C0201FA0CF050
:1002C00021FA02F10CE002F11402D8BFC2F1200CB5
:1002D00001FA02F120FA0CFCDCBF41EA0C0190406B
:1002E000E41AA2BF01EB0451294330BD6FEA0404B4
:1002F0001F3C1CDA0C340EDC04F11404C4F120029F
:1003000020FA04F001FA02F340EA030021FA04F3B0
:1003100045EA030130BDC4F10C04C4F1200220FA07
:1003200002F001FA04F340EA0300294630BD21FA45
:1003300004F0294630BD94F0000F83F4801306BF0B
:1003400081F480110134013D4EE77FEA645C18BFFF
:100350007FEA655C29D094EA050F08BF90EA020F96
:1003600005D054EA000C04BF1946104630BD91EA8E
:10037000030F1EBF0021002030BD5FEA545C05D191
:100380004000494128BF41F0004130BD14F58004D0
:100390003CBF01F5801130BD01F0004545F0FE4144
:1003A00041F470014FF0000030BD7FEA645C1ABF79
:1003B000194610467FEA655C1CBF0B46024650EAB0
:1003C000013406BF52EA033591EA030F41F40021DC
:1003D00030BD00BF90F0000F04BF0021704730B562
:1003E0004FF4806404F132044FF000054FF0000137
:1003F00050E700BF90F0000F04BF0021704730B5F8
:100400004FF4806404F1320410F0004548BF4042CC
:100410004FF000013EE700BF42004FEAE2014FEA21
:1004200031014FEA02701FBF12F07F4393F07F4FFC
:1004300081F06051704732F07F4208BF704793F0FF
:100440007F4F04BF41F40021704730B54FF4607412
:1004500001F0004521F000411CE700BF50EA010215
:1004600008BF704730B54FF000050AE050EA0102BE
:1004700008BF704730B511F0004502D5404261EB2E
:1004800041014FF4806404F132045FEA915C3FF46F
:10049000D8AE4FF003025FEADC0C18BF03325FEA0C
:1004A000DC0C18BF033202EBDC02C2F1200300FABD
:1004B00003FC20FA02F001FA03FE40EA0E0021FAE2
:1004C00002F11444BDE600BF70B54FF0FF0C4CF4D0
:1004D000E06C1CEA11541DBF1CEA135594EA0C0F82
:1004E00095EA0C0F00F0DEF82C4481EA030621EABD
:1004F0004C5123EA4C5350EA013518BF52EA0335F8
:1005000041F4801143F4801338D0A0FB02CE4FF0A9
:100510000005E1FB02E506F00042E0FB03E54FF0D9
:100520000006E1FB03569CF0000F18BF4EF0010ED1
:10053000A4F1FF04B6F5007F64F5407404D25FEACD
:100540004E0E6D4146EB060642EAC62141EA555180
:100550004FEAC52040EA5E504FEACE2EB4F1FD0CC2
:1005600088BFBCF5E06F1ED8BEF1004F08BF5FEA40
:10057000500E50F1000041EB045170BD06F00046F2
:1005800046EA010140EA020081EA0301B4EB5C049F
:10059000C2BFD4EB0C0541EA045170BD41F4801197
:1005A0004FF0000E013C00F3AB8014F1360FDEBFBC
:1005B000002001F0004170BDC4F10004203C35DA98
:1005C0000C341BDC04F11404C4F1200500FA05F31B
:1005D00020FA04F001FA05F240EA020001F00042BC
:1005E00021F0004110EBD37021FA04F642EB060132
:1005F0005EEA430E08BF20EAD37070BDC4F10C045C
:10060000C4F1200500FA04F320FA05F001FA04F21F
:1006100040EA020001F0004110EBD37041F100010B
:100620005EEA430E08BF20EAD37070BDC4F1200516
:1006300000FA05F24EEA020E20FA04F301FA05F27E
:1006400043EA020321FA04F001F0004121FA04F226
:1006500020EA020000EBD3705EEA430E08BF20EAF6
:10066000D37070BD94F0000F0FD101F00046400030
:1006700041EB010111F4801F08BF013CF7D041EAB2
:10068000060195F0000F18BF704703F000465200B6
:1006900043EB030313F4801F08BF013DF7D043EA87
:1006A0000603704794EA0C0F0CEA135518BF95EA3D
:1006B0000C0F0CD050EA410618BF52EA4306D1D1C4
:1006C00081EA030101F000414FF0000070BD50EAE3
:1006D000410606BF1046194652EA430619D094EA6D
:1006E0000C0F02D150EA013613D195EA0C0F05D157
:1006F00052EA03361CBF104619460AD181EA0301AB
:1007000001F0004141F0FE4141F470014FF0000062
:1007100070BD41F0FE4141F4780170BD70B54FF0FD
:10072000FF0C4CF4E06C1CEA11541DBF1CEA13557D
:1007300094EA0C0F95EA0C0F00F0A7F8A4EB05045F
:1007400081EA030E52EA03354FEA013100F0888056
:100750004FEA03334FF0805545EA131343EA12631F
:100760004FEA022245EA111545EA10654FEA0026D4
:100770000EF000419D4208BF964244F1FD0404F58D
:10078000407402D25B084FEA3202B61A65EB0305E9
:100790005B084FEA32024FF480104FF4002CB6EBA6
:1007A000020E75EB030E22BFB61A754640EA0C0026
:1007B0005B084FEA3202B6EB020E75EB030E22BF66
:1007C000B61A754640EA5C005B084FEA3202B6EBA7
:1007D000020E75EB030E22BFB61A754640EA9C0066
:1007E0005B084FEA3202B6EB020E75EB030E22BF36
:1007F000B61A754640EADC0055EA060E18D04FEAF4
:10080000051545EA16754FEA06164FEAC30343EA93
:1008100052734FEAC2025FEA1C1CC0D111F4801F60
:100820000BD141EA00014FF000004FF0004CB6E759
:1008300011F4801F04BF01430020B4F1FD0C88BFF8
:10084000BCF5E06F3FF6AFAEB5EB030C04BFB6EB03
:10085000020C5FEA500C50F1000041EB045170BDF6
:100860000EF0004E4EEA113114EB5C04C2BFD4EB23
:100870000C0541EA045170BD41F480114FF0000EA7
:10088000013C90E645EA060E8DE60CEA135594EA23
:100890000C0F08BF95EA0C0F3FF43BAF94EA0C0F26
:1008A0000AD150EA01347FF434AF95EA0C0F7FF49B
:1008B00025AF104619462CE795EA0C0F06D152EAEF
:1008C00003353FF4FDAE1046194622E750EA4106D3
:1008D00018BF52EA43067FF4C5AE50EA41047FF4E4
:1008E0000DAF52EA43057FF4EBAE12E74FF0FF3C49
:1008F00006E000BF4FF0010C02E000BF4FF0010C1A
:100900004DF804CD4FEA410C7FEA6C5C4FEA430C92
:1009100018BF7FEA6C5C1BD001B050EA410C0CBFE1
:1009200052EA430C91EA030F02BF90EA020F002043
:10093000704710F1000F91EA030F58BF994208BFAA
:1009400090422CBFD8176FEAE37040F00100704767
:100950004FEA410C7FEA6C5C02D150EA013C07D1BE
:100960004FEA430C7FEA6C5CD6D152EA033CD3D009
:100970005DF8040B704700BF8446104662468C4603
:100980001946634600E000BF01B5FFF7B7FF002836
:1009900048BF10F1000F01BD4DF808EDFFF7F4FF5F
:1009A0000CBF012000205DF808FB00BF4DF808EDEA
:1009B000FFF7EAFF34BF012000205DF808FB00BF0D
:1009C0004DF808EDFFF7E0FF94BF012000205DF82F
:1009D00008FB00BF4DF808EDFFF7CEFF94BF0120E4
:1009E00000205DF808FB00BF4DF808EDFFF7C4FFDD
:1009F00034BF012000205DF808FB00BF4FEA410230
:100A000012F5001215D211D56FF47873B3EB625260
:100A100012D94FEAC12343F0004343EA505311F087
:100A2000004F23FA02F018BF404270474FF0000019
:100A3000704750EA013005D111F0004008BF6FF057
:100A4000004070474FF00000704700BF4A0011D2CD
:100A500012F5001211D20DD56FF47873B3EB625218
:100A60000ED44FEAC12343F0004343EA505323FA24
:100A700002F070474FF00000704750EA013002D199
:100A80004FF0FF3070474FF0000070474FEA4102CF
:100A9000B2F1E04324BFB3F5001CDCF1FE5C0DD9DC
:100AA00001F0004C4FEAC0024CEA5070B2F1004F26
:100AB00040EB830008BF20F00100704711F0804F29
:100AC00021D113F13872BCBF01F00040704741F4EE
:100AD00080114FEA5252C2F11802C2F1200C10FAF2
:100AE0000CF320FA02F018BF40F001004FEAC123D6
:100AF0004FEAD32303FA0CFC40EA0C0023FA02F37A
:100B00004FEA4303CCE77FEA625307D150EA01334F
:100B10001EBF4FF0FE4040F44000704701F000401F
:100B200040F0FE4040F40000704700BF80F00040FD
:100B300002E000BF81F0004142001FBF5FEA4103B5
:100B400092EA030F7FEA226C7FEA236C6AD04FEAB5
:100B50001262D2EB1363C1BFD218414048404140FA
:100B6000B8BF5B42192B88BF704710F0004F40F4AC
:100B7000000020F07F4018BF404211F0004F41F4C8
:100B8000000121F07F4118BF494292EA030F3FD094
:100B9000A2F1010241FA03FC10EB0C00C3F12003A7
:100BA00001FA03F100F0004302D5494260EB400036
:100BB000B0F5000F13D3B0F1807F06D340084FEAA1
:100BC000310102F10102FE2A51D2B1F1004F40EB96
:100BD000C25008BF20F0010040EA030070474900FE
:100BE00040EB0000013A28BFB0F5000FEDD2B0FA9B
:100BF00080FCACF1080CB2EB0C0200FA0CF0AABFBE
:100C000000EBC25052421843BCBFD040184370475B
:100C100092F0000F81F4000106BF80F40000013261
:100C2000013BB5E74FEA41037FEA226C18BF7FEA38
:100C3000236C21D092EA030F04D092F0000F08BF7A
:100C40000846704790EA010F1CBF0020704712F061
:100C50007F4F04D1400028BF40F00040704712F1A0
:100C600000723CBF00F50000704700F0004343F005
:100C7000FE4040F4000070477FEA226216BF08463B
:100C80007FEA23630146420206BF5FEA412390EAFE
:100C9000010F40F4800070474FF0000304E000BFF4
:100CA00010F0004348BF40425FEA000C08BF7047A5
:100CB00043F0964301464FF000001CE050EA010269
:100CC00008BF70474FF000030AE000BF50EA01027E
:100CD00008BF704711F0004302D5404261EB41016B
:100CE0005FEA010C02BF84460146002043F0B64390
:100CF00008BFA3F18053A3F50003BCFA8CF2083AB5
:100D0000A3EBC25310DB01FA02FC634400FA02FCBD
:100D1000C2F12002BCF1004F20FA02F243EB0200C4
:100D200008BF20F00100704702F1200201FA02FC26
:100D3000C2F1200250EA4C0021FA02F243EB020019
:100D400008BF20EADC70704780B500AF094B002275
:100D50001A60084B01225A60064B07229A60054927
:100D6000054803F02DF80346002B01D002F030FBBC
:100D700000BF80BD9C010020A801002080B500AF0D
:100D8000094B01221A60084B01225A60064B0422CB
:100D90009A600549054803F013F80346002B01D07B
:100DA00002F016FB00BF80BD9C010020A8010020BE
:100DB00080B500AF094B09221A60084B01225A6026
:100DC000064B05229A600549054802F0F9FF0346E3
:100DD000002B01D002F0FCFA00BF80BD9C01002076
:100DE000A801002080B500AF02F0A0FC00F05AF886
:100DF00000F036FA00F016FA00F0C6F900F076F9C5
:100E000000F0ACF800F0D2F81F4804F067FC1F486F
:100E100004F064FC01224FF400511D4803F05CFE15
:100E200002224FF480411A4803F056FE03224FF489
:100E30000041174803F050FE164802F0D5FD02F0BD
:100E400059FA154B00221A6000F0A6FA01F0C8FE0C
:100E500000F0E4FA114BB3F90220114B1A80104B49
:100E6000B3F90030184601F08DFF00F04FFB0B4B3B
:100E7000B3F904200A4B1A80094BB3F90030184625
:100E800000F056FCE0E700BF6802002020020020CE
:100E900000100140A8010020480300202403002086
:100EA0002003002080B594B000AF07F1280328226A
:100EB0000021184605F019FE07F1140300221A60FC
:100EC0005A609A60DA601A613B1D00221A605A600B
:100ED0009A60DA600123BB624FF48033FB62002327
:100EE0003B630123BB6302237B644FF48033BB6409
:100EF0004FF4E013FB6407F12803184603F036FEB5
:100F00000346002B01D002F063FA0F237B6102231A
:100F1000BB610023FB614FF480633B6200237B6273
:100F200007F114030221184604F0A2F80346002B2F
:100F300001D002F04DFA02237B604FF40043FB60C6
:100F40003B1D184604F00EFA0346002B01D002F0B8
:100F50003FFA00BF5037BD4680BD000080B500AFEE
:100F6000104B114A1A600F4B4FF480729A600D4B70
:100F700001221A730B4B00221A750A4B4FF46022A0
:100F8000DA61084B00225A60064B01221A610548BB
:100F900002F052FC0346002B01D002F019FA00BF08
:100FA00080BD00BFA80100200024014080B596B09C
:100FB00000AF07F1480300221A605A609A60DA60B5
:100FC00007F1400300221A605A6007F1240300224F
:100FD0001A605A609A60DA601A615A619A613B1D20
:100FE00020220021184605F080FD3E4B3E4A1A6043
:100FF0003C4B00225A603B4B00229A60394B5922ED
:10100000DA60384B00221A61364B00225A61354BA8
:1010100000229A61334804F011FB0346002B01D0F3
:1010200002F0D6F94FF48053BB6407F14803194628
:101030002C4805F02FF80346002B01D002F0C8F928
:10104000284804F09DFB0346002B01D002F0C0F9B4
:1010500000233B6400237B6407F1400319462148C9
:1010600005F082FC0346002B01D002F0B1F96023A9
:101070007B620023BB620023FB6200233B630023EF
:101080007B630023BB630023FB6307F1240300227F
:101090001946144804F03CFF0346002B01D002F02F
:1010A00097F900237B600023BB600023FB600023D3
:1010B0003B6100237B614FF40053BB6100233B6223
:1010C0003B1D1946074805F0ADFC0346002B01D037
:1010D00002F07EF9034802F079FA00BF5837BD46A6
:1010E00080BD00BFD8010020002C014080B586B033
:1010F00000AF07F1080300221A605A609A60DA60B4
:101100003B4600221A605A601D4B1E4A1A601C4B57
:1011100040F2CF225A601A4B00229A60184B0122EB
:10112000DA60174B00221A61154B00229A611448AD
:1011300004F084FA0346002B01D002F049F94FF481
:101140008053BB6007F1080319460D4804F0A2FF65
:101150000346002B01D002F03BF900233B60002343
:101160007B603B461946064805F0FEFB0346002B14
:1011700001D002F02DF900BF1837BD4680BD00BF79
:10118000200200200004004080B586B000AF07F1C7
:10119000080300221A605A609A60DA603B46002217
:1011A0001A605A601D4B1E4A1A601C4B41F61F42C2
:1011B0005A601A4B00229A60184B0122DA60174BD2
:1011C00000221A61154B00229A61144804F036FA85
:1011D0000346002B01D002F0FBF84FF48053BB60B4
:1011E00007F1080319460D4804F054FF0346002B8D
:1011F00001D002F0EDF800233B6000237B603B460A
:101200001946064805F0B0FB0346002B01D002F05A
:10121000DFF800BF1837BD4680BD00BF6802002060
:101220000008004080B582B000AF0C4B5B690B4AF0
:1012300043F001035361094B5B6903F001037B60D9
:101240007B68002200210C2003F025F80C2003F01D
:101250003EF800BF0837BD4680BD00BF0010024009
:1012600080B588B000AF07F1100300221A605A6001
:101270009A60DA60434B9B69424A43F010039361E2
:10128000404B9B6903F01003FB60FB683D4B9B697F
:101290003C4A43F0200393613A4B9B6903F02003DF
:1012A000BB60BB68374B9B69364A43F004039361CC
:1012B000344B9B6903F004037B607B68314B9B6973
:1012C000304A43F0080393612E4B9B6903F00803F7
:1012D0003B603B6800224FF460412B4803F0FCFB6D
:1012E00000224FF49861294803F0F6FB00224FF4E6
:1012F0001E41274803F0F0FB4FF460433B6101239C
:101300007B610023BB610223FB6107F110031946D7
:101310001D4803F05DFA01233B611E4B7B610023F6
:10132000BB6107F110031946184803F051FA4FF456
:1013300098633B6101237B610023BB610223FB6156
:1013400007F110031946114803F042FA4FF41E4307
:101350003B6101237B610023BB610223FB6107F139
:10136000100319460A4803F033FA00220021062030
:1013700002F091FF062002F0AAFF00BF2037BD4611
:1013800080BD00BF0010024000100140000C014071
:10139000000801400000111080B500AFFFF7D4FC39
:1013A0001C4802F021FB01211A4802F0F7FB194802
:1013B00002F0FAFC03469AB2174B1A80154802F065
:1013C000C1FBFFF7DBFC134802F00EFB01211148C3
:1013D00002F0E4FB0F4802F0E7FC03469AB20E4B22
:1013E0005A800C4802F0AEFBFFF7E2FC094802F01D
:1013F000FBFA0121074802F0D1FB064802F0D4FCB9
:1014000003469AB2044B9A80024802F09BFB00BF4D
:1014100080BD00BFA8010020EC03002080B485B08F
:1014200000AF40F6F203FB604FF40C73BB6040F674
:1014300042137B6040F221233B60224B1A68BB6859
:10144000D31A642203FB02F2F968BB68CB1A92FB41
:10145000F3F31AB21C4B5A801B4BB3F90230642BC6
:1014600003DD194B64225A8007E0174BB3F90230B1
:10147000002B02DA144B00225A80144B1A683B6886
:10148000D31A642203FB02F279683B68CB1A92FB01
:10149000F3F31AB20C4B9A800B4BB3F90430642B64
:1014A00003DD094B64229A8007E0074BB3F904304F
:1014B000002B02DA044B00229A8000BF1437BD468D
:1014C00080BC7047F803002024030020FC030020A8
:1014D00080B582B000AF0346FB8002F07FF903467F
:1014E000084A1360074B1A68074B1B68D31AC82BAE
:1014F00003D9044B1B68044A136000BF0837BD467C
:1015000080BD00BF1C0300201803002080B500AF81
:10151000804B1B68B3F5D77F03DA7F4B00221A801C
:101520002DE07C4B1B68B3F5487F03DA7A4B012230
:101530001A8024E0774B1B68B3F5966F03DA764B7D
:1015400002221A801BE0734B1B6840F2E552934263
:1015500003DC714B03221A8011E06E4B1B68B3F55C
:10156000FA6F03DA6C4B04221A8008E0694B1B689F
:1015700040F6C312934202DC674B04221A80664B8A
:10158000B3F90030052B00F2B08001A252F823F02D
:10159000A9150008DF150008151600084B160008ED
:1015A00081160008B51600085C4BFF221A605C4BE0
:1015B000FF221A605B4BFF221A6000224FF4007179
:1015C000594803F089FA01224FF4E151564803F0DB
:1015D00083FA01222021554803F07EFA97E04F4B11
:1015E00000221A604E4BB4221A604E4BFF221A6042
:1015F00000224FF480614C4803F06EFA01224FF450
:10160000D151494803F068FA01222021474803F0EC
:1016100063FA7CE0414B00221A60414BFF221A60C2
:10162000404B00221A6000224FF400613E4803F054
:1016300053FA01224FF4B1513B4803F04DFA012215
:1016400020213A4803F048FA61E0344BFF221A6047
:10165000334BFF221A60334B00221A6000224FF4F2
:101660008051314803F038FA01224FF462612E486C
:1016700003F032FA012220212C4803F02DFA46E033
:10168000264BFF221A60264B00221A60254B0022AF
:101690001A6000222021244803F01EFA0022202193
:1016A000224803F019FA01224FF4F0511E4803F0CA
:1016B00013FA2CE0194B00221A60194B00221A6011
:1016C000184BFF221A6000224FF40071164803F0F5
:1016D00003FA01224FF4E151134803F0FDF901220E
:1016E0002021124803F0F8F911E000224FF40071B4
:1016F0000D4803F0F1F901224FF4E1510A4803F0DB
:10170000EBF901222021094803F0E6F900BF00BFF0
:1017100080BD00BFF4030020240300200800002047
:101720000C0000201000002000080140000C0140C7
:1017300080B582B000AF78607B68002B6BD100234E
:1017400000220021002001F0F1FA002300220021F4
:10175000012001F0EBFA002300220021022001F019
:10176000E5FA002300220021032001F0DFFA002324
:1017700000220021042001F0D9FA002300220021D8
:10178000052001F0D3FA002300220021062001F0F9
:10179000CDFA002300220021072001F0C7FA002320
:1017A00000220021082001F0C1FA002300220021BC
:1017B000092001F0BBFA0023002200210A2001F0D9
:1017C000B5FA0023002200210B2001F0AFFA00231C
:1017D000002200210C2001F0A9FA002300220021A0
:1017E0000D2001F0A3FA0023002200210E2001F0B9
:1017F0009DFA0023002200210F2001F097FA002318
:1018000000220021102001F091FA00230022002183
:10181000112001F08BFA7B68002B73DD7B68052BB0
:1018200070DCB84B1968B84B1A68B84B1B680020BD
:1018300001F07CFA002300220021012001F076FA59
:10184000002300220021022001F070FA0023002270
:101850000021032001F06AFA002300220021042065
:1018600001F064FA002300220021052001F05EFA55
:10187000002300220021062001F058FA0023002254
:101880000021072001F052FA002300220021082045
:1018900001F04CFA002300220021092001F046FA51
:1018A0000023002200210A2001F040FA0023002238
:1018B00000210B2001F03AFA0023002200210C2025
:1018C00001F034FA0023002200210D2001F02EFA4D
:1018D0000023002200210E2001F028FA002300221C
:1018E00000210F2001F022FA002300220021102005
:1018F00001F01CFA002300220021112001F016FA49
:1019000001F057B97B68052B76DD7B680B2B73DC08
:101910007C4B19687C4B1A687C4B1B68002001F0DB
:1019200005FA784B1968784B1A68784B1B680120C8
:1019300001F0FCF9002300220021022001F0F6F959
:10194000002300220021032001F0F0F900230022EF
:101950000021042001F0EAF90023002200210520E3
:1019600001F0E4F9002300220021062001F0DEF955
:10197000002300220021072001F0D8F900230022D3
:101980000021082001F0D2F90023002200210920C3
:1019900001F0CCF90023002200210A2001F0C6F951
:1019A0000023002200210B2001F0C0F900230022B7
:1019B00000210C2001F0BAF90023002200210D20A3
:1019C00001F0B4F90023002200210E2001F0AEF94D
:1019D0000023002200210F2001F0A8F9002300229B
:1019E0000021102001F0A2F9002300220021112083
:1019F00001F09CF901F0DDB87B680B2B40F3888087
:101A00007B68112B00F384803E4B19683E4B1A68AB
:101A10003E4B1B68002001F089F93A4B19683A4B9C
:101A20001A683A4B1B68012001F080F9354B1968A0
:101A3000354B1A68354B1B68022001F077F90023FB
:101A400000220021032001F071F90023002200216F
:101A5000032001F06BF9002300220021042001F093
:101A600065F9002300220021052001F05FF9002321
:101A700000220021062001F059F900230022002154
:101A8000072001F053F9002300220021082001F073
:101A90004DF9002300220021092001F047F900231D
:101AA000002200210A2001F041F900230022002138
:101AB0000B2001F03BF90023002200210C2001F053
:101AC00035F90023002200210D2001F02FF9002319
:101AD000002200210E2001F029F90023002200211C
:101AE0000F2001F023F9002300220021102001F033
:101AF0001DF9002300220021112001F017F901F047
:101B000058B800BF080000200C0000201000002082
:101B10007B68112B7CDD7B68172B79DCC24B196845
:101B2000C24B1A68C24B1B68002001F0FFF8BE4B85
:101B30001968BE4B1A68BE4B1B68012001F0F6F80D
:101B4000B94B1968B94B1A68B94B1B68022001F0F0
:101B5000EDF8B54B1968B54B1A68B54B1B680320F7
:101B600001F0E4F8002300220021042001F0DEF857
:101B7000002300220021052001F0D8F800230022D4
:101B80000021062001F0D2F80023002200210720C6
:101B900001F0CCF8002300220021082001F0C6F853
:101BA000002300220021092001F0C0F800230022B8
:101BB00000210A2001F0BAF80023002200210B20A6
:101BC00001F0B4F80023002200210C2001F0AEF84F
:101BD0000023002200210D2001F0A8F8002300229C
:101BE00000210E2001F0A2F80023002200210F2086
:101BF00001F09CF8002300220021102001F096F84B
:101C0000002300220021112001F090F800F0D1BF44
:101C10007B68172B7FDD7B681D2B7CDC824B196872
:101C2000824B1A68824B1B68002001F07FF87E4BC4
:101C300019687E4B1A687E4B1B68012001F076F80C
:101C4000794B1968794B1A68794B1B68022001F0AF
:101C50006DF8754B1968754B1A68754B1B68032036
:101C600001F064F8704B1968704B1A68704B1B6870
:101C7000042001F05BF8002300220021052001F080
:101C800055F8002300220021062001F04FF8002320
:101C900000220021072001F049F800230022002142
:101CA000082001F043F8002300220021092001F060
:101CB0003DF80023002200210A2001F037F800231C
:101CC000002200210B2001F031F800230022002126
:101CD0000C2001F02BF80023002200210D2001F040
:101CE00025F80023002200210E2001F01FF8002318
:101CF000002200210F2001F019F80023002200210A
:101D0000102001F013F8002300220021112001F01F
:101D10000DF800F04EBF7B681D2B40F38B807B6875
:101D2000232B00F38780404B1968404B1A68404BC7
:101D30001B68002000F0FAFF3B4B19683B4B1A6808
:101D40003B4B1B68012000F0F1FF374B1968374B04
:101D50001A68374B1B68022000F0E8FF324B196805
:101D6000324B1A68324B1B68032000F0DFFF2E4B0A
:101D700019682E4B1A682E4B1B68042000F0D6FF02
:101D8000294B1968294B1A68294B1B68052000F05C
:101D9000CDFF002300220021062000F0C7FF002312
:101DA00000220021072000F0C1FF002300220021B3
:101DB000082000F0BBFF002300220021092000F0D2
:101DC000B5FF0023002200210A2000F0AFFF00230E
:101DD000002200210B2000F0A9FF00230022002197
:101DE0000C2000F0A3FF0023002200210D2000F0B2
:101DF0009DFF0023002200210E2000F097FF00230A
:101E0000002200210F2000F091FF0023002200217A
:101E1000102000F08BFF002300220021112000F091
:101E200085FF00F0C6BE00BF080000200C000020A7
:101E3000100000207B68232B40F387807B68292BD0
:101E400000F38380884B1968884B1A68884B1B689D
:101E5000002000F06BFF844B1968844B1A68844B98
:101E60001B68012000F062FF7F4B19687F4B1A68E6
:101E70007F4B1B68022000F059FF7B4B19687B4B9E
:101E80001A687B4B1B68032000F050FF764B1968E3
:101E9000764B1A68764B1B68042000F047FF724BA4
:101EA0001968724B1A68724B1B68052000F03EFFE0
:101EB0006D4B19686D4B1A686D4B1B68062000F05E
:101EC00035FF002300220021072000F02FFF002310
:101ED00000220021082000F029FF00230022002119
:101EE000092000F023FF0023002200210A2000F037
:101EF0001DFF0023002200210B2000F017FF00230C
:101F0000002200210C2000F011FF002300220021FC
:101F10000D2000F00BFF0023002200210E2000F016
:101F200005FF0023002200210F2000F0FFFE002308
:101F300000220021102000F0F9FE002300220021E1
:101F4000112000F0F3FE00F034BE7B68292B40F333
:101F500091807B682F2B00F38D80434B1968434B96
:101F60001A68434B1B68002000F0E0FE3E4B1968E6
:101F70003E4B1A683E4B1B68012000F0D7FE3A4BDF
:101F800019683A4B1A683A4B1B68022000F0CEFEE3
:101F9000354B1968354B1A68354B1B68032000F028
:101FA000C5FE314B1968314B1A68314B1B68042050
:101FB00000F0BCFE2C4B19682C4B1A682C4B1B688C
:101FC000052000F0B3FE284B1968284B1A68284BEF
:101FD0001B68062000F0AAFE234B1968234B1A68E1
:101FE000234B1B68072000F0A1FE002300220021E4
:101FF000082000F09BFE002300220021092000F0B1
:1020000095FE0023002200210A2000F08FFE00230D
:10201000002200210B2000F089FE00230022002175
:102020000C2000F083FE0023002200210D2000F090
:102030007DFE0023002200210E2000F077FE002309
:10204000002200210F2000F071FE00230022002159
:10205000102000F06BFE002300220021112000F070
:1020600065FE00F0A6BD00BF080000200C000020A7
:10207000100000207B682F2B40F38D807B68352B70
:1020800000F389808E4B19688E4B1A688E4B1B6843
:10209000002000F04BFE8A4B19688A4B1A688A4B65
:1020A0001B68012000F042FE854B1968854B1A68B9
:1020B000854B1B68022000F039FE814B1968814B6B
:1020C0001A68814B1B68032000F030FE7C4B1968B6
:1020D0007C4B1A687C4B1B68042000F027FE784B71
:1020E0001968784B1A68784B1B68052000F01EFEB3
:1020F000734B1968734B1A68734B1B68062000F00A
:1021000015FE6F4B19686F4B1A686F4B1B680720E1
:1021100000F00CFE6A4B19686A4B1A686A4B1B6820
:10212000082000F003FE002300220021092000F017
:10213000FDFD0023002200210A2000F0F7FD00230E
:10214000002200210B2000F0F1FD002300220021DD
:102150000C2000F0EBFD0023002200210D2000F0F8
:10216000E5FD0023002200210E2000F0DFFD00230A
:10217000002200210F2000F0D9FD002300220021C1
:10218000102000F0D3FD002300220021112000F0D8
:10219000CDFD00F00EBD7B68352B40F397807B684A
:1021A0003B2B00F39380464B1968464B1A68464B0D
:1021B0001B68002000F0BAFD414B1968414B1A68BA
:1021C000414B1B68012000F0B1FD3D4B19683D4BB0
:1021D0001A683D4B1B68022000F0A8FD384B1968B7
:1021E000384B1A68384B1B68032000F09FFD344BB6
:1021F0001968344B1A68344B1B68042000F096FDB4
:102200002F4B19682F4B1A682F4B1B68052000F0C5
:102210008DFD2B4B19682B4B1A682B4B1B68062026
:1022200000F084FD264B1968264B1A68264B1B6864
:10223000072000F07BFD224B1968224B1A68224BC5
:102240001B68082000F072FD1D4B19681D4B1A68B1
:102250001D4B1B68092000F069FD002300220021AE
:102260000A2000F063FD0023002200210B2000F073
:102270005DFD0023002200210C2000F057FD00230B
:10228000002200210D2000F051FD0023002200213A
:102290000E2000F04BFD0023002200210F2000F053
:1022A00045FD002300220021102000F03FFD002307
:1022B00000220021112000F039FD00F07ABC00BF9F
:1022C000080000200C000020100000207B683B2B41
:1022D00040F392807B68412B00F38E80934B19680A
:1022E000934B1A68934B1B68002000F01FFD8F4B27
:1022F00019688F4B1A688F4B1B68012000F016FD80
:102300008A4B19688A4B1A688A4B1B68022000F0B6
:102310000DFD864B1968864B1A68864B1B68032097
:1023200000F004FD814B1968814B1A68814B1B68D2
:10233000042000F0FBFC7D4B19687D4B1A687D4B37
:102340001B68052000F0F2FC784B1968784B1A687E
:10235000784B1B68062000F0E9FC744B1968744B3D
:102360001A68744B1B68072000F0E0FC6F4B19687B
:102370006F4B1A686F4B1B68082000F0D7FC6B4B43
:1023800019686B4B1A686B4B1B68092000F0CEFC78
:10239000664B1968664B1A68664B1B680A2000F08A
:1023A000C5FC0023002200210B2000F0BFFC00230D
:1023B000002200210C2000F0B9FC002300220021A3
:1023C0000D2000F0B3FC0023002200210E2000F0BD
:1023D000ADFC0023002200210F2000F0A7FC002309
:1023E00000220021102000F0A1FC00230022002187
:1023F000112000F09BFCDCE37B68412B40F39C80C8
:102400007B68472B00F39880484B1968484B1A6843
:10241000484B1B68002000F089FC444B1968444B72
:102420001A68444B1B68012000F080FC3F4B196880
:102430003F4B1A683F4B1B68022000F077FC3B4B78
:1024400019683B4B1A683B4B1B68032000F06EFC7D
:10245000364B1968364B1A68364B1B68042000F05F
:1024600065FC324B1968324B1A68324B1B680520E9
:1024700000F05CFC2D4B19682D4B1A682D4B1B6826
:10248000062000F053FC294B1968294B1A68294B88
:102490001B68072000F04AFC244B1968244B1A687B
:1024A000244B1B68082000F041FC204B1968204B8E
:1024B0001A68204B1B68092000F038FC1B4B196878
:1024C0001B4B1A681B4B1B680A2000F02FFC174B94
:1024D0001968174B1A68174B1B680B2000F026FC75
:1024E0000023002200210C2000F020FC0023002209
:1024F00000210D2000F01AFC0023002200210E20F4
:1025000000F014FC0023002200210F2000F00EFC3C
:10251000002300220021102000F008FC00230022EC
:102520000021112000F002FC43E300BF080000205E
:102530000C000020100000207B68472B40F398809F
:102540007B684D2B00F39480994B1968994B1A685E
:10255000994B1B68002000F0E9FB954B1968954BDF
:102560001A68954B1B68012000F0E0FB904B19683E
:10257000904B1A68904B1B68022000F0D7FB8C4BE5
:1025800019688C4B1A688C4B1B68032000F0CEFB3B
:10259000874B1968874B1A68874B1B68042000F02B
:1025A000C5FB834B1968834B1A68834B1B68052056
:1025B00000F0BCFB7E4B19687E4B1A687E4B1B6893
:1025C000062000F0B3FB7A4B19687A4B1A687A4BF5
:1025D0001B68072000F0AAFB754B1968754B1A6839
:1025E000754B1B68082000F0A1FB714B1968714BFB
:1025F0001A68714B1B68092000F098FB6C4B196836
:102600006C4B1A686C4B1B680A2000F08FFB684B00
:102610001968684B1A68684B1B680B2000F086FB32
:10262000634B1968634B1A68634B1B680C2000F0FE
:102630007DFB0023002200210D2000F077FB00230A
:10264000002200210E2000F071FB00230022002157
:102650000F2000F06BFB002300220021102000F06F
:1026600065FB002300220021112000F05FFBA0E2A7
:102670007B684D2B40F3A2807B68532B00F39E8038
:102680004B4B19684B4B1A684B4B1B68002000F0F2
:102690004DFB474B1968474B1A68474B1B68012095
:1026A00000F044FB424B1968424B1A68424B1B68CE
:1026B000022000F03BFB3E4B19683E4B1A683E4B34
:1026C0001B68032000F032FB394B1968394B1A683C
:1026D000394B1B68042000F029FB354B1968354B3A
:1026E0001A68354B1B68052000F020FB304B196839
:1026F000304B1A68304B1B68062000F017FB2C4B40
:1027000019682C4B1A682C4B1B68072000F00EFB35
:10271000274B1968274B1A68274B1B68082000F0C5
:1027200005FB234B1968234B1A68234B1B680920B0
:1027300000F0FCFA1E4B19681E4B1A681E4B1B68F2
:102740000A2000F0F3FA1A4B19681A4B1A681A4B50
:102750001B680B2000F0EAFA154B1968154B1A6834
:10276000154B1B680C2000F0E1FA114B1968114B56
:102770001A68114B1B680D2000F0D8FA00230022C4
:1027800000210E2000F0D2FA0023002200210F20A9
:1027900000F0CCFA002300220021102000F0C6FA3D
:1027A000002300220021112000F0C0FA01E200BF46
:1027B000080000200C000020100000207B68532B34
:1027C00040F3A4807B68592B00F3A0804C4B196820
:1027D0004C4B1A684C4B1B68002000F0A7FA484B82
:1027E0001968484B1A68484B1B68012000F09EFA94
:1027F000434B1968434B1A68434B1B68022000F097
:1028000095FA3F4B19683F4B1A683F4B1B680320F2
:1028100000F08CFA3A4B19683A4B1A683A4B1B682D
:10282000042000F083FA364B1968364B1A68364B91
:102830001B68052000F07AFA314B1968314B1A6891
:10284000314B1B68062000F071FA2D4B19682D4B97
:102850001A682D4B1B68072000F068FA284B19688E
:10286000284B1A68284B1B68082000F05FFA244B9D
:102870001968244B1A68244B1B68092000F056FA8B
:102880001F4B19681F4B1A681F4B1B680A2000F06A
:102890004DFA1B4B19681B4B1A681B4B1B680B200E
:1028A00000F044FA164B1968164B1A68164B1B6851
:1028B0000C2000F03BFA124B1968124B1A68124BAD
:1028C0001B680D2000F032FA0D4B19680D4B1A6889
:1028D0000D4B1B680E2000F029FA00230022002176
:1028E0000F2000F023FA002300220021102000F026
:1028F0001DFA002300220021112000F017FA58E1F0
:10290000080000200C000020100000207B68592BDC
:1029100040F3A8807B685F2B00F3A4804E4B1968BE
:102920004E4B1A684E4B1B68002000F0FFF94A4BD3
:1029300019684A4B1A684A4B1B68012000F0F6F9E7
:10294000454B1968454B1A68454B1B68022000F03F
:10295000EDF9414B1968414B1A68414B1B68032044
:1029600000F0E4F93C4B19683C4B1A683C4B1B687F
:10297000042000F0DBF9384B1968384B1A68384BE3
:102980001B68052000F0D2F9334B1968334B1A68E5
:10299000334B1B68062000F0C9F92F4B19682F4BE9
:1029A0001A682F4B1B68072000F0C0F92A4B1968E2
:1029B0002A4B1A682A4B1B68082000F0B7F9264BEF
:1029C0001968264B1A68264B1B68092000F0AEF9DF
:1029D000214B1968214B1A68214B1B680A2000F013
:1029E000A5F91D4B19681D4B1A681D4B1B680B2060
:1029F00000F09CF9184B1968184B1A68184B1B68A3
:102A00000C2000F093F9144B1968144B1A68144BFE
:102A10001B680D2000F08AF90F4B19680F4B1A68DC
:102A20000F4B1B680E2000F081F90B4B19680B4B04
:102A30001A680B4B1B680F2000F078F90023002266
:102A40000021102000F072F9002300220021112043
:102A500000F06CF9ADE000BF080000200C00002081
:102A6000100000207B685F2B40F3A3807B68642B01
:102A700000F39F80564B1968564B1A68564B1B68DB
:102A8000002000F053F9524B1968524B1A68524B10
:102A90001B68012000F04AF94D4B19684D4B1A682C
:102AA0004D4B1B68022000F041F9494B1968494B16
:102AB0001A68494B1B68032000F038F9444B196829
:102AC000444B1A68444B1B68042000F02FF9404B1C
:102AD0001968404B1A68404B1B68052000F026F926
:102AE0003B4B19683B4B1A683B4B1B68062000F0B8
:102AF0001DF9374B1968374B1A68374B1B6807208D
:102B000000F014F9324B1968324B1A68324B1B68CB
:102B1000082000F00BF92E4B19682E4B1A682E4B2B
:102B20001B68092000F002F9294B1968294B1A6823
:102B3000294B1B680A2000F0F9F8254B1968254B32
:102B40001A68254B1B680B2000F0F0F8204B196821
:102B5000204B1A68204B1B680C2000F0E7F81C4B38
:102B600019681C4B1A681C4B1B680D2000F0DEF81E
:102B7000174B1968174B1A68174B1B680E2000F08B
:102B8000D5F8134B1968134B1A68134B1B680F20A9
:102B900000F0CCF80E4B19680E4B1A680E4B1B68F0
:102BA000102000F0C3F8002300220021112000F0C3
:102BB000BDF80A4B1B68184600F01EFB00F09AFB9C
:102BC000322000F015FE00BF0837BD4680BD00BFB3
:102BD000080000200C00002010000020040000204D
:102BE00080B485B000AF3B4600221A605A609A60FC
:102BF0003D4BB3F900301A463C4B19883C4B23F847
:102C00001210394BB3F900301846384B5988384AFE
:102C1000831D22F81310344BB3F900301846334BA0
:102C20009988334A00F10C0322F813100023FB604B
:102C30001CE02F4AFB6832F813309AB23B68134409
:102C40003B602B4AFB68063332F813309AB27B683C
:102C500013447B60264AFB680C3332F813309AB277
:102C6000BB681344BB60FB680133FB60FB68052B4A
:102C7000DFDD1D4BB3F900309BB201339BB21AB2BA
:102C8000194B1A80184BB3F90030052B02DD164B97
:102C900000221A803B68174A1360164B1B68164ABD
:102CA00082FB0312DB17D31A124A13607B68134AA4
:102CB0001360124B1B68104A82FB0312DB17D31AF6
:102CC0000E4A1360BB680E4A13600D4B1B680A4A1C
:102CD00082FB0312DB17D31A094A136000BF1437B3
:102CE000BD4680BC704700BF28080020EC030020D0
:102CF000F4020020F4030020ABAAAA2AF803002063
:102D0000FC03002080B582B000AF78600021054848
:102D100002F030FF044B01221A6000BF0837BD46A5
:102D200080BD00BFD80100200004002080B485B021
:102D300000AFF860B9607A603B60FB68D9B2104AB6
:102D4000FB6802F823107B68D9B20D4AFB689B0030
:102D500013440A465A70BB68D9B2094AFB689B0003
:102D600013440A469A703B68D9B2054AFB689B0037
:102D700013440A46DA7000BF1437BD4680BC704762
:102D80004C03002080B483B000AF78607968184BA2
:102D900083FB01239A10CB17D21A13469B001344CE
:102DA0005B00CA1A134B1A607B68114A82FB03123C
:102DB0009210DB17D31A7B6079680D4B83FB0123DC
:102DC0009A10CB17D21A13469B0013445B00CA1A01
:102DD000094B1A607B68064A82FB03129210DB17CC
:102DE000D31A064A136000BF0C37BD4680BC70473B
:102DF0006766666630030020340300203803002035
:102E000080B582B000AF78607B681B68AA4A9342A5
:102E10001AD1AA4B1B68C72B05DCA84B1B680133D2
:102E2000A64A136002E0A54B01221A60A44B1B685E
:102E3000002B04DDA24B1B68013BA14A1360A14B90
:102E40001B6801339F4A13607B681B689E4A93424C
:102E500040F0BF819D4B1B68002B05DD9B4B1B6821
:102E6000013B9A4A1360B4E1994B1B6840F255222A
:102E7000934200F0938140F25522934200F39E81E9
:102E800040F25322934200F07D81B3F5157F80F22A
:102E90009581B3F5DF7F00F39181B3F5D77F11DA28
:102EA000B3F5BE7F00F02281B3F5BE7F00F38681CB
:102EB000E72B00F38381D72B2ADA102B6DDC002B54
:102EC0004ADA7BE1A3F5D773012202FA03F34AF64B
:102ED000AA221A40002A14BF01220022D2B2002ADC
:102EE00040F0318145F255521A40002A14BF0122A8
:102EF0000022D2B2002A40F0058103F48033002B77
:102F000014BF01230023DBB2002B40F0278155E1E1
:102F1000D73B012202FA03F34AF6AA221A40002AFA
:102F200014BF01220022D2B2002A40F0A68045F24E
:102F300055521A40002A14BF01220022D2B2002AA0
:102F40007AD103F48033002B14BF01230023DBB2BA
:102F5000002B40F09D8031E11A46012393404AF650
:102F6000AA221A40002A14BF01220022D2B2002A4B
:102F700037D145F255521A40002A14BF01220022CF
:102F8000D2B2002A0CD103F48033002B14BF0123EA
:102F90000023DBB2002B2FD110E1A52B40D00DE197
:102FA000002240214B4801F097FD4FF480614948D1
:102FB00001F0AAFD484B1A68484B1B684849D200EB
:102FC000134451F82330012B05D1012280214148BF
:102FD00001F082FDF8E0002280213E4801F07CFDF6
:102FE000F2E03E4B1B68013B3C4A13604FF48061AA
:102FF000384801F089FDE7E04FF48061354801F081
:1030000083FD01224021334801F066FD01224FF487
:103010000051344801F060FD304B07221A60D3E0C4
:103020004FF480612B4801F06FFD00224FF40051F6
:103030002C4801F051FDC7E000224021254801F055
:103040004BFD4FF48061234801F05EFD264B1A686A
:10305000224B1B682249D200134451F82330012B24
:1030600005D1012280211B4801F036FDACE0002291
:103070008021184801F030FDA6E0184B1B68013B89
:10308000164A13604FF48061124801F03DFD9BE049
:10309000124B07221A604FF480610E4801F034FD94
:1030A000012240210B4801F017FD01224FF480411D
:1030B0000C4801F011FD87E0000800402C030020BF
:1030C0004403002048030020000400404003002087
:1030D0003C030020000C01403803002000000020C9
:1030E0001400002000100140340300204FF48061E0
:1030F0003A4801F009FD00224FF48041384801F0C0
:10310000EBFC61E000224021344801F0E5FC4FF483
:103110008061324801F0F8FC324B1A68324B1B6870
:103120003249D200134451F82330012B05D101223A
:1031300080212A4801F0D0FC46E000228021274867
:1031400001F0CAFC40E0284B1B68013B264A136093
:103150004FF48061214801F0D7FC35E04FF48061E5
:103160001E4801F0D1FC012240211C4801F0B4FCB2
:1031700001224FF400411A4801F0AEFC1A4B07221D
:103180001A6021E04FF48061144801F0BDFC002278
:103190004FF40041124801F09FFC15E04FF48061AC
:1031A0000E4801F0B1FC124B32221A60114B4FF065
:1031B000FF321A600C4B07221A6005E04FF4806161
:1031C000064801F0A1FC00BF0A4B1B680133094A05
:1031D000136000BF0837BD4680BD00BF000C014032
:1031E00000100140300300200000002014000020E7
:1031F000400300203C030020B0B586B000AF7860EB
:103200007B682D2B01DD2D237B6000237B615FE03C
:10321000354A7B6912F82310344A7B6902F823107F
:1032200001233B614EE07B68C3F15A031846FDF76A
:1032300037FD0346FB60F868FDF7EEF828A3D3E9F5
:103240000023FDF741F902460B46104619464FF0A0
:103250000002274BFDF762FA02460B46104619465C
:10326000FDF714FC0346FB601F4A7B699B001A4470
:103270003B6913441B781846FDF7BCF804460D461D
:10328000F868FDF7C9F802460B461046194603F0E8
:1032900059FC02460B4620462946FDF73FFA0246F6
:1032A0000B4610461946FDF7D1FB0346D9B20F4A2B
:1032B0007B699B001A443B6913440A461A703B69B8
:1032C00001333B613B69032BADDD7B6901337B61DE
:1032D0007B69132B9CDD00BF00BF1837BD46B0BD16
:1032E000F1D4C853FB2109404C0300209C0300206B
:1032F0000080664080B586B000AF00237B6100236C
:103300003B6136E02E4A3B699B0013445B781A040C
:103310002B493B699B000B449B781B021A432849AD
:103320003B699B000B44DB7813437B601723FB60F6
:1033300019E00122FB6802FA03F31A467B68134086
:10334000002B05D01F4A7B693C2122F8131004E0B2
:103350001C4A7B691E2122F813107B6901337B61B3
:10336000FB68013BFB60FB68002BE2DA3B69013341
:103370003B613B69132BC5DD0023BB600AE0114AAA
:103380007B69002122F813107B6901337B61BB68E4
:103390000133BB60BB68312BF1DD7B699BB2094A0D
:1033A0000021094802F044FA00BF084B1B68002BBB
:1033B000FBD0064B00221A6000BF1837BD4680BD07
:1033C0009C03002004040020D801002000040020F9
:1033D00080B400AF00BFBD4680BC704780B483B0EE
:1033E00000AF0E4B9B690D4A43F0010393610B4BF9
:1033F0009B6903F001037B607B68084BDB69074A2C
:1034000043F08053D361054BDB6903F080533B608D
:103410003B6800BF0C37BD4680BC704700100240BF
:1034200080B58AB000AF786007F1180300221A60F7
:103430005A609A60DA607B681B681F4A934237D1F2
:103440001E4B9B691D4A43F4007393611B4B9B69A0
:1034500003F400737B617B69184B9B69174A43F047
:1034600004039361154B9B6903F004033B613B69C3
:10347000124B9B69114A43F0080393610F4B9B6900
:1034800003F00803FB60FB680323BB610323FB61BC
:1034900007F1180319460A4801F09AF90223BB61A3
:1034A0000323FB6107F118031946064801F090F960
:1034B00000BF2837BD4680BD0024014000100240F7
:1034C00000080140000C014080B586B000AF786074
:1034D0007B681B68374A934234D1374B9B69364A25
:1034E00043F400639361344B9B6903F400637B6195
:1034F0007B69324B324A1A60304B10225A602F4B94
:1035000000229A602D4B8022DA602C4B4FF480729F
:103510001A612A4B4FF480625A61284B00229A614B
:10352000264B0022DA61254800F0ECFE0346002B12
:1035300001D0FFF74DFF7B68204A5A621F4A7B6823
:10354000536232E07B681B681E4A934214D11A4BC7
:10355000DB69194A43F00203D361174BDB6903F0BF
:1035600002033B613B69002200211D2000F093FE15
:103570001D2000F0ACFE18E07B681B68124A9342E5
:1035800013D10D4BDB690C4A43F00403D3610A4BA2
:10359000DB6903F00403FB60FB68002200211E20AE
:1035A00000F079FE1E2000F092FE00BF1837BD46E5
:1035B00080BD00BF002C014000100240B00200207E
:1035C0001C000240000400400008004080B588B0A4
:1035D00000AF786007F1100300221A605A609A6009
:1035E000DA607B681B68104A934218D10F4B9B69C5
:1035F0000E4A43F0040393610C4B9B6903F00403F0
:10360000FB60FB684FF480733B6102237B61022304
:10361000FB6107F110031946054801F0D9F800BF16
:103620002037BD4680BD00BF002C01400010024085
:103630000008014080B400AF00BFBD4680BC7047A9
:1036400080B400AFFEE780B400AFFEE780B400AF07
:10365000FEE780B400AFFEE780B400AF00BFBD4618
:1036600080BC704780B400AF00BFBD4680BC7047CF
:1036700080B400AF00BFBD4680BC704780B500AFCE
:1036800000F09AF800BF80BD80B500AF012001F0C6
:1036900055FA00BF80BD000080B500AF024800F0C1
:1036A00063FF00BF80BD00BFB002002080B500AF47
:1036B000024802F025FB00BF80BD00BF20020020B1
:1036C00080B500AF024802F01BFB00BF80BD00BF09
:1036D0006802002080B400AF00BFBD4680BC7047C8
:1036E000FFF7F8FF0B480C490C4A002302E0D458BE
:1036F000C4500433C4188C42F9D3094A094C00233E
:1037000001E013600432A242FBD303F0F7F9FDF7A6
:1037100069FB70470000002080010020307E000817
:103720008001002030080020FEE7000080B500AFD7
:10373000084B1B68074A43F010031360032000F096
:103740009FFD0F2000F008F8FFF748FE0023184601
:1037500080BD00BF0020024080B582B000AF78601D
:10376000124B1A68124B1B7819464FF47A73B3FB4D
:10377000F1F3B2FBF3F3184600F0B7FD0346002B5C
:1037800001D001230EE07B680F2B0AD80022796854
:103790004FF0FF3000F07FFD064A7B681360002386
:1037A00000E0012318460837BD4680BD74010020A3
:1037B0007C0100207801002080B400AF054B1B780D
:1037C0001A46054B1B681344034A136000BFBD46ED
:1037D00080BC70477C0100202C08002080B400AF22
:1037E000024B1B681846BD4680BC70472C08002061
:1037F00080B584B000AF7860FFF7F0FFB8607B68F9
:10380000FB60FB68B3F1FF3F05D00A4B1B781A46FB
:10381000FB681344FB6000BFFFF7E0FF0246BB6894
:10382000D31AFA689A42F7D800BF00BF1037BD46D6
:1038300080BD00BF7C01002080B586B000AF7860FD
:103840000023FB7500233B610023BB600023FB606A
:103850007B68002B01D10123BEE07B689B68002BB5
:103860007B689B6A002B09D17B680022DA627B6847
:10387000002283F824207868FFF7D2FD786800F0F2
:10388000F1FB0346FB757B689B6A03F01003002B7A
:1038900040F09980FB7D002B40F095807B689B6A0F
:1038A00023F4885323F0020343F002027B689A62F8
:1038B0007B685A687B68DB691A437B681B7B5B000B
:1038C0001343BA681343BB607B689B68B3F5807F82
:1038D00003D07B689B68012B02D14FF4807300E01A
:1038E00000233A6913433B617B681B7D012B19D18F
:1038F0007B681B7B002B09D17B689B69013B5A03CA
:103900003B69134343F400633B610BE07B689B6AB4
:1039100043F020027B689A627B68DB6A43F0010215
:103920007B68DA627B681B685B6823F469417B68AB
:103930001B683A690A435A607B681B689A68284B7F
:1039400013407A681268B9680B4393607B689B6880
:10395000B3F5807F03D07B689B68012B04D17B6823
:103960001B69013B1B05FB607B681B68DB6A23F45A
:1039700070017B681B68FA680A43DA627B681B681F
:103980009A68184B1340BA689A420BD17B680022A0
:10399000DA627B689B6A23F0030343F001027B68D1
:1039A0009A6218E07B689B6A23F0120343F01002CE
:1039B0007B689A627B68DB6A43F001027B68DA62AB
:1039C0000123FB7507E07B689B6A43F010027B686C
:1039D0009A620123FB75FB7D18461837BD4680BDF2
:1039E000FDF7E1FFFE0E1FFF80B584B000AF7860E9
:1039F0000023FB737B6893F82430012B01D1022351
:103A000098E07B68012283F82420786800F0D0FADF
:103A10000346FB73FB7B002B40F087807B689B6A2F
:103A200023F4407323F0010343F480727B689A62AD
:103A30007B681B68414A934205D1414B5B6803F4A4
:103A40007023002B15D17B689B6A23F480127B685E
:103A50009A627B681B685B6803F48063002B26D046
:103A60007B689B6A23F4405343F480527B689A62DC
:103A70001DE07B689B6A43F480127B689A627B68D6
:103A80001B682F4A934204D07B681B682B4A9342E1
:103A90000DD12B4B5B6803F48063002B07D07B6850
:103AA0009B6A23F4405343F480527B689A627B689C
:103AB0009B6A03F48053002B06D07B68DB6A23F0FB
:103AC00006027B68DA6202E07B680022DA627B68C9
:103AD000002283F824207B681B686FF002021A60C2
:103AE0007B681B689B6803F46023B3F5602F13D1D8
:103AF0007B681B68114A934205D1114B5B6803F444
:103B00007023002B08D17B681B689A687B681B6850
:103B100042F4A0029A600CE07B681B689A687B689C
:103B20001B6842F480129A6003E07B68002283F8ED
:103B30002420FB7B18461037BD4680BD002801407D
:103B40000024014080B584B000AF78600023FB738F
:103B50007B6893F82430012B01D102231AE07B68A3
:103B6000012283F82420786800F07CFA0346FB7376
:103B7000FB7B002B09D17B689B6A23F4885323F0DD
:103B8000010343F001027B689A627B68002283F89C
:103B90002420FB7B18461037BD4680BD90B587B00A
:103BA00000AF7860396000237B610023FB60002355
:103BB0003B61FFF713FE78617B681B689B6803F429
:103BC0008073002B0BD07B689B6A43F020027B68DC
:103BD0009A627B68002283F824200123D3E07B686B
:103BE0001B685B6803F48073002B31D17B681B6812
:103BF000DB6A03F47003002B2AD121E03B68B3F1A8
:103C0000FF3F1DD03B68002B07D0FFF7E7FD0246C2
:103C10007B69D31A3A689A4212D27B681B681B6888
:103C200003F00203002B0BD17B689B6A43F0040274
:103C30007B689A627B68002283F824200323A2E039
:103C40007B681B681B6803F00203002BD6D070E072
:103C50004F4B1C68022001F03BFC0346B4FBF3F21F
:103C60007B681B6819694B4B0B40002B18D17B6894
:103C70001B68D968484B0B40002B11D17B681B682F
:103C80001969464B0B40002B08D17B681B68D9682B
:103C9000434B0B40002B01D1142320E029231EE0CD
:103CA0007B681B6819693D4B0B40002B06D17B6874
:103CB0001B68D9683A4B0B40002B0DD07B681B6802
:103CC0001969384B0B40002B08D17B681B68D968F9
:103CD000344B0B40002B01D1542300E0FC2302FBAA
:103CE00003F33B6121E03B68B3F1FF3F1AD03B682F
:103CF000002B07D0FFF772FD02467B69D31A3A68A2
:103D00009A420FD2FB683A699A420BD97B689B6A48
:103D100043F004027B689A627B68002283F82420C7
:103D2000032330E0FB680133FB60FB683A699A4289
:103D3000D9D87B681B686FF012021A607B689B6A97
:103D400043F400727B689A627B681B689B6803F48B
:103D50006023B3F5602F15D17B681B7B002B11D13D
:103D60007B689B6A23F480727B689A627B689B6A9B
:103D700003F48053002B05D17B689B6A43F001025A
:103D80007B689A62002318461C37BD4690BD00BF71
:103D9000740100202449922424499200922449125B
:103DA000922449004992240080B483B000AF786027
:103DB0007B681B68DB6C18460C37BD4680BC7047BF
:103DC00080B485B000AF786039600023FB730023B6
:103DD000BB607B6893F82430012B01D10223DCE027
:103DE0007B68012283F824203B685B68062B1CD883
:103DF0007B681B68596B3B685A6813469B001344E9
:103E0000053B1F2202FA03F3DB4319403B681868A5
:103E10003B685A6813469B001344053B00FA03F2C3
:103E20007B681B680A435A633CE03B685B680C2B69
:103E30001CD87B681B68196B3B685A6813469B004B
:103E40001344233B1F2202FA03F3DB4319403B6870
:103E500018683B685A6813469B001344233B00FADA
:103E600003F27B681B680A431A631BE07B681B68CC
:103E7000D96A3B685A6813469B001344413B1F2292
:103E800002FA03F3DB4319403B6818683B685A6841
:103E900013469B001344413B00FA03F27B681B6806
:103EA0000A43DA623B681B68092B1CD97B681B68D4
:103EB000D9683B681A6813465B0013441E3B07220F
:103EC00002FA03F3DB4319403B6898683B681A68C1
:103ED00013465B0013441E3B00FA03F27B681B6829
:103EE0000A43DA6019E07B681B6819693B681A6845
:103EF00013465B001344072202FA03F3DB43194025
:103F00003B6898683B681A6813465B00134400FAE4
:103F100003F27B681B680A431A613B681B68102B1D
:103F200003D03B681B68112B32D17B681B681D4A8C
:103F3000934225D17B681B689B6803F40003002B28
:103F400026D17B681B689A687B681B6842F4000274
:103F50009A603B681B68102B1AD1134B1B68134ADD
:103F6000A2FB03239A0C13469B0013445B00BB6027
:103F700002E0BB68013BBB60BB68002BF9D107E0E6
:103F80007B689B6A43F020027B689A620123FB7383
:103F90007B68002283F82420FB7B18461437BD463B
:103FA00080BC7047002401407401002083DE1B4365
:103FB00080B584B000AF78600023FB600023BB6055
:103FC0007B681B689B6803F00103012B40D07B6872
:103FD0001B689A687B681B6842F001029A601F4B5D
:103FE0001B681F4AA2FB03239B0CBB6002E0BB685B
:103FF000013BBB60BB68002BF9D1FFF7EFFBF8601A
:104000001FE0FFF7EBFB0246FB68D31A022B18D91F
:104010007B681B689B6803F00103012B11D07B6850
:104020009B6A43F010027B689A627B68DB6A43F00C
:1040300001027B68DA627B68002283F82420012376
:1040400007E07B681B689B6803F00103012BD8D154
:10405000002318461037BD4680BD00BF7401002004
:1040600083DE1B4380B584B000AF78600023FB6023
:104070007B681B689B6803F00103012B2ED17B68D2
:104080001B689A687B681B6822F001029A60FFF740
:10409000A5FBF8601BE0FFF7A1FB0246FB68D31A03
:1040A000022B14D97B681B689B6803F00103012B6A
:1040B0000DD17B689B6A43F010027B689A627B6833
:1040C000DB6A43F001027B68DA62012307E07B6868
:1040D0001B689B6803F00103012BDCD0002318460A
:1040E0001037BD4680BD000080B485B000AF786059
:1040F0007B6803F00703FB600C4BDB68BB60BA68AE
:104100004FF6FF031340BB60FB681A02BB68134302
:1041100043F0BF6343F40033BB60044ABB68D36021
:1041200000BF1437BD4680BC704700BF00ED00E003
:1041300080B400AF044BDB681B0A03F0070318468A
:10414000BD4680BC704700BF00ED00E080B483B086
:1041500000AF0346FB7197F90730002B0BDBFB79AF
:1041600003F01F02064997F907305B09012000FAA6
:1041700002F241F8232000BF0C37BD4680BC7047D7
:1041800000E100E080B483B000AF03463960FB710A
:1041900097F90730002B0ADB3B68DAB20C4997F934
:1041A00007301201D2B20B4483F800230AE03B68C7
:1041B000DAB20849FB7903F00F03043B1201D2B2D3
:1041C0000B441A7600BF0C37BD4680BC704700BF59
:1041D00000E100E000ED00E080B489B000AFF860DD
:1041E000B9607A60FB6803F00703FB61FB69C3F108
:1041F0000703042B28BF0423BB61FB690433062B90
:1042000002D9FB69033B00E000237B614FF0FF32E2
:10421000BB6902FA03F3DA43BB681A407B699A4030
:104220004FF0FF317B6901FA03F3D9437B680B4000
:10423000134318462437BD4680BC704780B582B012
:1042400000AF78607B68013BB3F1807F01D301232D
:104250000FE00A4A7B68013B53600F214FF0FF30AB
:10426000FFF790FF054B00229A60044B07221A606B
:10427000002318460837BD4680BD00BF10E000E0AF
:1042800080B582B000AF78607868FFF72DFF00BF7F
:104290000837BD4680BD80B586B000AF0346B96023
:1042A0007A60FB7300237B61FFF742FF78617A68D5
:1042B000B9687869FFF790FF024697F90F30114609
:1042C0001846FFF75FFF00BF1837BD4680BD80B5B9
:1042D00082B000AF0346FB7197F907301846FFF72D
:1042E00035FF00BF0837BD4680BD80B582B000AF46
:1042F00078607868FFF7A2FF034618460837BD4686
:1043000080BD000080B485B000AF78600023FB6002
:104310007B68002B01D1012343E07B681B681A46B0
:10432000224B1344224AA2FB03231B099A007B68F9
:104330001A647B681F4ADA637B68022283F82120B3
:104340007B681B681B68FB60FB6823F47F5323F0CA
:104350003003FB607B685A687B689B681A437B6804
:10436000DB681A437B681B691A437B685B691A43E5
:104370007B689B691A437B68DB691343FA681343C4
:10438000FB607B681B68FA681A607B6800229A638E
:104390007B68012283F821207B68002283F820209B
:1043A000002318461437BD4680BC7047F8FFFDBF98
:1043B000CDCCCCCC0000024080B586B000AFF86018
:1043C000B9607A603B600023FB75FB6893F820308E
:1043D000012B01D102234BE0FB68012283F820204E
:1043E000FB6893F82130DBB2012B3AD1FB68022243
:1043F00083F82120FB6800229A63FB681B681A6817
:10440000FB681B6822F001021A603B687A68B96891
:10441000F86800F0AFF9FB68DB6A002B08D0FB6896
:104420001B681A68FB681B6842F00E021A600FE0F6
:10443000FB681B681A68FB681B6822F004021A609C
:10444000FB681B681A68FB681B6842F00A021A6066
:10445000FB681B681A68FB681B6842F001021A605F
:1044600005E0FB68002283F820200223FB75FB7D1A
:1044700018461837BD4680BD80B584B000AF78605F
:104480000023FB737B6893F82130DBB2022B05D04D
:104490007B6804229A630123FB7351E07B681B68ED
:1044A0001A687B681B6822F00E021A607B681B6822
:1044B0001A687B681B6822F001021A607B681B681F
:1044C000224A934229D07B681B68214A934222D01A
:1044D0007B681B681F4A93421AD07B681B681E4A80
:1044E000934212D07B681B681C4A93420AD07B68B7
:1044F0001B681B4A934202D14FF480130EE04FF029
:1045000080730BE04FF4803308E04FF4805305E0F4
:104510004FF4807302E0102300E00123114A53603E
:104520007B68012283F821207B68002283F8202009
:104530007B685B6B002B03D07B685B6B786898476C
:10454000FB7B18461037BD4680BD00BF0800024007
:104550001C0002403000024044000240580002406B
:104560006C0002400000024080B584B000AF78606B
:104570007B68DB6B1B68FB607B681B681B68BB6030
:104580007B681B6C04229A40FB681340002B4FD0C1
:10459000BB6803F00403002B4AD07B681B681B68D0
:1045A00003F02003002B07D17B681B681A687B6827
:1045B0001B6822F004021A607B681B68664A9342FB
:1045C00029D07B681B68654A934222D07B681B68B0
:1045D000634A93421AD07B681B68624A934212D0A6
:1045E0007B681B68604A93420AD07B681B685F4AFD
:1045F000934202D14FF480030EE04FF080630BE052
:104600004FF4802308E04FF4804305E04FF48063CB
:1046100002E0402300E00423554A53607B68DB6AD4
:10462000002B00F094807B68DB6A786898478EE006
:104630007B681B6C02229A40FB681340002B56D00B
:10464000BB6803F00203002B51D07B681B681B681A
:1046500003F02003002B0BD17B681B681A687B6872
:104660001B6822F00A021A607B68012283F821206D
:104670007B681B68384A934229D07B681B68374A9D
:10468000934222D07B681B68354A93421AD07B68DC
:104690001B68344A934212D07B681B68324A9342AB
:1046A0000AD07B681B68314A934202D14FF4001351
:1046B0000EE04FF000730BE04FF4003308E04FF4CE
:1046C000005305E04FF4007302E0202300E00223D2
:1046D000274A53607B68002283F820207B689B6A0E
:1046E000002B34D07B689B6A786898472FE07B6802
:1046F0001B6C08229A40FB681340002B28D0BB6833
:1047000003F00803002B23D07B681B681A687B68C2
:104710001B6822F00E021A607B681A6C7B68DB6BE8
:10472000012101FA02F25A607B6801229A637B68D8
:10473000012283F821207B68002283F820207B68F7
:104740001B6B002B04D07B681B6B7868984700BFFD
:1047500000BF1037BD4680BD080002401C0002406B
:104760003000024044000240580002406C00024009
:104770000000024080B485B000AFF860B9607A6094
:104780003B60FB681A6CFB68DB6B012101FA02F2EB
:104790005A60FB681B683A685A60FB685B68102BBC
:1047A00008D1FB681B687A689A60FB681B68BA6866
:1047B000DA6007E0FB681B68BA689A60FB681B68F0
:1047C0007A68DA6000BF1437BD4680BC70470000CD
:1047D00080B48BB000AF7860396000237B62002327
:1047E0003B6269E101227B6A02FA03F3FB613B68E9
:1047F0001B68FA691340BB61BA69FB699A4240F0D1
:1048000058813B685B689A4A93425ED0984A9342CB
:1048100075D8984A934258D0964A93426FD8964A90
:10482000934252D0944A934269D8944A93424CD0CE
:10483000924A934263D8924A934246D0904A934216
:104840005DD8122B2AD8122B59D801A252F823F086
:10485000CB480008A5480008B7480008F9480008F8
:10486000FF480008FF480008FF480008FF4800080C
:10487000FF480008FF480008FF480008FF480008FC
:10488000FF480008FF480008FF480008FF480008EC
:10489000FF480008AD480008C1480008794A934223
:1048A00013D02CE03B68DB683B6229E03B68DB68A7
:1048B00004333B6224E03B68DB6808333B621FE063
:1048C0003B68DB680C333B621AE03B689B68002B5B
:1048D00002D104233B6213E03B689B68012B05D1A6
:1048E00008233B627B68FA691A6109E008233B628E
:1048F0007B68FA695A6103E000233B6200E000BF75
:10490000BB69FF2B01D87B6801E07B6804337B61C6
:10491000BB69FF2B02D87B6A9B0002E07B6A083BE5
:104920009B003B617B691A680F213B6901FA03F325
:10493000DB431A40396A3B6901FA03F31A437B6986
:104940001A603B685B6803F08053002B00F0B18075
:104950004D4B9B694C4A43F0010393614A4B9B6961
:1049600003F00103BB60BB68484A7B6A9B080233C3
:1049700052F82330FB607B6A03F003039B000F2295
:1049800002FA03F3DB43FA681340FB607B68404A9A
:10499000934213D07B683F4A93420DD07B683E4AD6
:1049A000934207D07B683D4A934201D1032306E03E
:1049B000042304E0022302E0012300E000237A6ADA
:1049C00002F0030292009340FA681343FB602F4900
:1049D0007B6A9B080233FA6841F823203B685B68D6
:1049E00003F48013002B06D02D4B9A682C49BB6929
:1049F00013438B6006E02A4B9A68BB69DB43284966
:104A000013408B603B685B6803F40013002B06D0F7
:104A1000234BDA682249BB691343CB6006E0204B85
:104A2000DA68BB69DB431E491340CB603B685B68B7
:104A300003F40033002B06D0194B5A681849BB69A0
:104A400013434B6006E0164B5A68BB69DB431449BD
:104A500013404B603B685B6803F48033002B21D02C
:104A60000F4B1A680E49BB6913430B6021E000BF6E
:104A70000000321000003110000022100000211050
:104A80000000121000001110001002400000014050
:104A900000080140000C01400010014000140140DA
:104AA000000401400B4B1A68BB69DB430949134002
:104AB0000B607B6A01337B623B681A687B6A22FA6F
:104AC00003F3002B7FF48EAE00BF00BF2C37BD4632
:104AD00080BC70470004014080B483B000AF7860B0
:104AE0000B467B8013467B707B78002B03D07A8843
:104AF0007B681A6103E07B881A047B681A6100BF37
:104B00000C37BD4680BC704780B485B000AF78607C
:104B10000B467B807B68DB68FB607A88FB68134010
:104B20001A04FB68D9437B880B401A437B681A61DF
:104B300000BF1437BD4680BC7047000080B582B00E
:104B400000AF0346FB80084B5A69FB881340002BDB
:104B500006D0054AFB885361FB881846FCF7B8FC71
:104B600000BF0837BD4680BD0004014080B586B057
:104B700000AF78607B68002B01D1012372E27B6873
:104B80001B6803F00103002B00F08780924B5B68E9
:104B900003F00C03042B0CD08F4B5B6803F00C0369
:104BA000082B12D18C4B5B6803F48033B3F5803F44
:104BB0000BD1894B1B6803F40033002B6CD07B684E
:104BC0005B68002B68D101234CE27B685B68B3F51E
:104BD000803F06D1804B1B687F4A43F480331360CB
:104BE0002EE07B685B68002B0CD17B4B1B687A4AFC
:104BF00023F480331360784B1B68774A23F48023B7
:104C000013601DE07B685B68B3F5A02F0CD1724B7D
:104C10001B68714A43F4802313606F4B1B686E4A14
:104C200043F4803313600BE06B4B1B686A4A23F438
:104C300080331360684B1B68674A23F4802313603A
:104C40007B685B68002B13D0FEF7C8FD386108E075
:104C5000FEF7C4FD02463B69D31A642B01D9032336
:104C600000E25D4B1B6803F40033002BF0D014E02E
:104C7000FEF7B4FD386108E0FEF7B0FD02463B697F
:104C8000D31A642B01D90323ECE1534B1B6803F4C3
:104C90000033002BF0D100E000BF7B681B6803F0FD
:104CA0000203002B63D04C4B5B6803F00C03002B1A
:104CB0000BD0494B5B6803F00C03082B1CD1464B0F
:104CC0005B6803F48033002B16D1434B1B6803F061
:104CD0000203002B05D07B681B69012B01D0012347
:104CE000C0E13D4B1B6823F0F8027B685B69DB0089
:104CF000394913430B603AE07B681B69002B20D0D5
:104D0000364B01221A60FEF769FD386108E0FEF7B4
:104D100065FD02463B69D31A022B01D90323A1E1A9
:104D20002D4B1B6803F00203002BF0D02A4B1B68AD
:104D300023F0F8027B685B69DB00274913430B60B3
:104D400015E0264B00221A60FEF748FD386108E0A6
:104D5000FEF744FD02463B69D31A022B01D9032317
:104D600080E11D4B1B6803F00203002BF0D17B6830
:104D70001B6803F00803002B3AD07B689B69002B6B
:104D800019D0174B01221A60FEF728FD386108E0A0
:104D9000FEF724FD02463B69D31A022B01D90323F7
:104DA00060E10D4B5B6A03F00203002BF0D00120A1
:104DB00000F0BAFA1CE00A4B00221A60FEF70EFD62
:104DC00038610FE0FEF70AFD02463B69D31A022B59
:104DD00008D9032346E100BF001002400000424210
:104DE00080044242924B5B6A03F00203002BE9D13C
:104DF0007B681B6803F00403002B00F0A6800023EF
:104E0000FB758B4BDB6903F08053002B0DD1884B76
:104E1000DB69874A43F08053D361854BDB6903F03C
:104E20008053BB60BB680123FB75824B1B6803F496
:104E30008073002B18D17F4B1B687E4A43F480732C
:104E40001360FEF7CBFC386108E0FEF7C7FC0246B2
:104E50003B69D31A642B01D9032303E1754B1B680B
:104E600003F48073002BF0D07B68DB68012B06D144
:104E70006F4B1B6A6E4A43F0010313622DE07B689F
:104E8000DB68002B0CD16A4B1B6A694A23F00103D3
:104E90001362674B1B6A664A23F0040313621CE02B
:104EA0007B68DB68052B0CD1614B1B6A604A43F0C1
:104EB000040313625E4B1B6A5D4A43F001031362F5
:104EC0000BE05B4B1B6A5A4A23F001031362584BF9
:104ED0001B6A574A23F0040313627B68DB68002BCC
:104EE00015D0FEF77BFC38610AE0FEF777FC02463E
:104EF0003B69D31A41F28832934201D90323B1E0CE
:104F00004B4B1B6A03F00203002BEED014E0FEF7BC
:104F100065FC38610AE0FEF761FC02463B69D31A82
:104F200041F28832934201D903239BE0404B1B6A34
:104F300003F00203002BEED1FB7D012B05D13C4B8E
:104F4000DB693B4A23F08053D3617B68DB69002B2C
:104F500000F08780364B5B6803F00C03082B61D0B0
:104F60007B68DB69022B46D1334B00221A60FEF7C7
:104F700035FC386108E0FEF731FC02463B69D31A84
:104F8000022B01D903236DE0294B1B6803F000734A
:104F9000002BF0D17B681B6AB3F5803F08D1244B0E
:104FA0005B6823F400327B689B68214913434B60A4
:104FB0001F4B5B6823F474127B68196A7B685B6A19
:104FC0000B431B4913434B601B4B01221A60FEF736
:104FD00005FC386108E0FEF701FC02463B69D31A84
:104FE000022B01D903233DE0114B1B6803F0007332
:104FF000002BF0D035E0104B00221A60FEF7EEFBDC
:10500000386108E0FEF7EAFB02463B69D31A022B3F
:1050100001D9032326E0064B1B6803F00073002B25
:10502000F0D11EE07B68DB69012B07D1012319E079
:105030000010024000700040600042420B4B5B6871
:10504000FB60FB6803F480327B681B6A9A4206D1DE
:10505000FB6803F470127B685B6A9A4201D00123FB
:1050600000E0002318461837BD4680BD00100240FE
:1050700080B584B000AF786039607B68002B01D1C7
:105080000123D0E06A4B1B6803F007033A689A4299
:1050900010D9674B1B6823F0070265493B6813432F
:1050A0000B60634B1B6803F007033A689A4201D018
:1050B0000123B8E07B681B6803F00203002B20D0BB
:1050C0007B681B6803F00403002B05D0594B5B6819
:1050D000584A43F4E06353607B681B6803F008039D
:1050E000002B05D0534B5B68524A43F46053536026
:1050F000504B5B6823F0F0027B689B684D4913437B
:105100004B607B681B6803F00103002B40D07B6879
:105110005B68012B07D1474B1B6803F40033002B5E
:1051200015D101237FE07B685B68022B07D1414BDF
:105130001B6803F00073002B09D1012373E03D4B82
:105140001B6803F00203002B01D101236BE0394BF4
:105150005B6823F003027B685B68364913434B604E
:10516000FEF73CFBF8600AE0FEF738FB0246FB68FE
:10517000D31A41F28832934201D9032353E02D4BD5
:105180005B6803F00C027B685B689B009A42EBD182
:10519000274B1B6803F007033A689A4210D2244B4E
:1051A0001B6823F0070222493B6813430B60204B26
:1051B0001B6803F007033A689A4201D0012332E0EA
:1051C0007B681B6803F00403002B08D0194B5B6855
:1051D00023F4E0627B68DB68164913434B607B680D
:1051E0001B6803F00803002B09D0124B5B6823F403
:1051F00060527B681B69DB000E4913434B6000F073
:1052000021F802460B4B5B681B0903F00F030A49A8
:10521000CB5C22FA03F3094A1360094B1B6818465A
:10522000FEF79AFA002318461037BD4680BD00BF2E
:105230000020024000100240107C00087401002091
:105240007801002080B487B000AF0023FB6000230A
:10525000BB6000237B6100237B6000233B611E4B0E
:105260005B68FB60FB6803F00C03042B02D0082B87
:1052700003D027E0194B3B6127E0FB689B0C03F050
:105280000F03174AD35C7B60FB6803F48033002B69
:1052900010D0114B5B685B0C03F00103114AD35C27
:1052A000BB607B680D4A03FB02F2BB68B2FBF3F301
:1052B0007B6104E07B680C4A02FB03F37B617B6942
:1052C0003B6102E0054B3B6100BF3B6918461C3760
:1052D000BD4680BC704700BF0010024000127A003B
:1052E000287C0008387C000800093D0080B400AF2D
:1052F000024B1B681846BD4680BC704774010020F5
:1053000080B500AFFFF7F2FF0246054B5B68DB0A92
:1053100003F007030349CB5C22FA03F3184680BD70
:1053200000100240207C000880B485B000AF786097
:105330000A4B1B680A4AA2FB03235B0A7A6802FB3A
:1053400003F3FB6000BFFB685A1EFA60002BF9D123
:1053500000BF00BF1437BD4680BC704774010020F9
:10536000D34D621080B586B000AF786000233B61FA
:105370000023FB607B681B6803F00103002B7DD0DA
:105380000023FB754F4BDB6903F08053002B0DD1DD
:105390004C4BDB694B4A43F08053D361494BDB698B
:1053A00003F08053BB60BB680123FB75464B1B6851
:1053B00003F48073002B18D1434B1B68424A43F41B
:1053C00080731360FEF70AFA386108E0FEF706FA08
:1053D00002463B69D31A642B01D903236DE03A4B93
:1053E0001B6803F48073002BF0D0364B1B6A03F468
:1053F0004073FB60FB68002B2ED07B685B6803F476
:105400004073FA689A4227D02E4B1B6A23F44073EC
:10541000FB602E4B01221A602C4B00221A60294A95
:10542000FB681362FB6803F00103002B14D0FEF746
:10543000D5F938610AE0FEF7D1F902463B69D31A83
:1054400041F28832934201D9032336E01D4B1B6A97
:1054500003F00203002BEED01A4B1B6A23F44072B8
:105460007B685B68174913430B62FB7D012B05D1F9
:10547000144BDB69134A23F08053D3617B681B68AC
:1054800003F00203002B08D00E4B5B6823F440426C
:105490007B689B680B4913434B607B681B6803F078
:1054A0001003002B08D0074B5B6823F480027B6855
:1054B000DB68044913434B60002318461837BD4688
:1054C00080BD00BF00100240007000404004424216
:1054D00080B588B000AF786000237B610023FB615A
:1054E00000233B610023FB600023BB617B68102B22
:1054F0000AD07B68102B00F28A807B68012B45D094
:105500007B68022B75D082E0464B5B68FB60454BA5
:105510001B6803F08073002B7BD0FB689B0C03F0AF
:105520000F03414AD35C3B61FB6803F48033002BDB
:1055300015D03C4B5B685B0C03F001033B4AD35C2A
:105540007B61FB6803F48033002B0DD0384A7B6904
:10555000B2FBF3F23B6902FB03F3FB6104E03B693E
:10556000344A02FB03F3FB612E4B5B6803F48003B8
:10557000B3F5800F02D1FB69BB614AE0FB695B00B8
:105580002D4AA2FB03235B08BB6142E0254B1B6A4B
:10559000FB60FB6803F44073B3F5807F08D1FB68C0
:1055A00003F00203002B03D04FF40043BB611FE064
:1055B000FB6803F44073B3F5007F09D1194B5B6AB4
:1055C00003F00203002B03D049F64043BB610FE018
:1055D000FB6803F44073B3F5407F1CD1114B1B688B
:1055E00003F40033002B16D04FF22443BB6112E0CA
:1055F00011E0FFF785FE02460A4B5B689B0B03F048
:10560000030301335B00B2FBF3F3BB6104E000BFB3
:1056100002E000BF00E000BFBB6918462037BD466E
:1056200080BD00BF001002403C7C00084C7C00089C
:1056300000127A0000093D00ABAAAAAA80B582B088
:1056400000AF78607B68002B01D1012341E07B68CB
:1056500093F83D30DBB2002B06D17B68002283F843
:105660003C207868FDF730FF7B68022283F83D20FC
:105670007B681A687B6804331946104600F0D0FE38
:105680007B68012283F846207B68012283F83E2054
:105690007B68012283F83F207B68012283F8402049
:1056A0007B68012283F841207B68012283F8422035
:1056B0007B68012283F843207B68012283F8442021
:1056C0007B68012283F845207B68012283F83D2016
:1056D000002318460837BD4680BD000080B485B061
:1056E00000AF78607B6893F83D30DBB2012B01D0CE
:1056F00001233AE07B68022283F83D207B681B6827
:10570000DA687B681B6842F00102DA607B681B681C
:10571000184A93420ED07B681B68B3F1804F09D0C2
:105720007B681B68144A934204D07B681B68134A49
:10573000934211D17B681B689B6803F00703FB60F1
:10574000FB68062B10D07B681B681A687B681B6897
:1057500042F001021A6007E07B681B681A687B68E8
:105760001B6842F001021A60002318461437BD4638
:1057700080BC7047002C014000040040000800403D
:1057800080B582B000AF78607B68002B01D1012327
:1057900041E07B6893F83D30DBB2002B06D17B689B
:1057A000002283F83C20786800F039F87B680222F8
:1057B00083F83D207B681A687B68043319461046DD
:1057C00000F02EFE7B68012283F846207B680122D0
:1057D00083F83E207B68012283F83F207B6801220A
:1057E00083F840207B68012283F841207B680122F6
:1057F00083F842207B68012283F843207B680122E2
:1058000083F844207B68012283F845207B680122CD
:1058100083F83D20002318460837BD4680BD80B47C
:1058200083B000AF786000BF0C37BD4680BC7047C6
:1058300080B586B000AFF860B9607A607B800023E5
:10584000FB75BB68002B09D1FB6893F83E30DBB2D7
:10585000022B0CBF01230023DBB222E0BB68042B28
:1058600009D1FB6893F83F30DBB2022B0CBF012358
:105870000023DBB215E0BB68082B09D1FB6893F865
:105880004030DBB2022B0CBF01230023DBB208E067
:10589000FB6893F84130DBB2022B0CBF01230023DD
:1058A000DBB2002B01D0022353E1BB68002B09D1EE
:1058B000FB6893F83E30DBB2012B0CBF01230023C1
:1058C000DBB222E0BB68042B09D1FB6893F83F30C0
:1058D000DBB2012B0CBF01230023DBB215E0BB6858
:1058E000082B09D1FB6893F84030DBB2012B0CBFC9
:1058F00001230023DBB208E0FB6893F84130DBB200
:10590000012B0CBF01230023DBB2002B24D07B68CA
:10591000002B02D07B88002B01D1012319E1BB6849
:10592000002B04D1FB68022283F83E2016E0BB68FE
:10593000042B04D1FB68022283F83F200EE0BB68F1
:10594000082B04D1FB68022283F8402006E0FB68A4
:10595000022283F8412001E00123FAE0BB680C2B0E
:1059600000F2AE8001A252F823F000BFA159000856
:10597000C15A0008C15A0008C15A0008E959000874
:10598000C15A0008C15A0008C15A0008315A00081B
:10599000C15A0008C15A0008C15A0008795A0008C3
:1059A000FB685B6A6D4A9A62FB685B6A6C4ADA6202
:1059B000FB685B6A6B4A1A63FB68586A7968FB6824
:1059C0001B6834331A467B88FEF7F6FC0346002B2F
:1059D00001D00123BDE0FB681B68DA68FB681B6827
:1059E00042F40072DA606EE0FB689B6A5B4A9A627E
:1059F000FB689B6A5A4ADA62FB689B6A594A1A63D7
:105A0000FB68986A7968FB681B6838331A467B889C
:105A1000FEF7D2FC0346002B01D0012399E0FB687E
:105A20001B68DA68FB681B6842F48062DA604AE04F
:105A3000FB68DB6A494A9A62FB68DB6A484ADA62B9
:105A4000FB68DB6A474A1A63FB68D86A7968FB68B7
:105A50001B683C331A467B88FEF7AEFC0346002BDE
:105A600001D0012375E0FB681B68DA68FB681B68DE
:105A700042F40062DA6026E0FB681B6B374A9A62E8
:105A8000FB681B6B364ADA62FB681B6B354A1A638C
:105A9000FB68186B7968FB681B6840331A467B8883
:105AA000FEF78AFC0346002B01D0012351E0FB687E
:105AB0001B68DA68FB681B6842F48052DA6002E017
:105AC0000123FB7500BFFB7D002B41D1FB681B68E8
:105AD0000122B968184600F023FFFB681B68224AC0
