:020000040800F2
:1000000000500020997D0008ED7C0008F97C000874
:10001000FF7C0008057D00080B7D00080000000043
:10002000000000000000000000000000117D00083A
:100030001D7D000800000000297D0008357D0008B6
:10004000E17D0008E17D0008E17D0008E17D000818
:10005000E17D0008E17D0008417D0008E17D0008A8
:10006000E17D0008E17D0008E17D0008E17D0008F8
:10007000517D0008E17D0008E17D0008E17D000878
:10008000E17D0008E17D0008E17D0008E17D0008D8
:10009000E17D0008E17D0008E17D0008E17D0008C8
:1000A000E17D0008E17D0008E17D0008E17D0008B8
:1000B000E17D0008657D0008797D0008E17D00088C
:1000C000E17D0008E17D0008E17D0008E17D000898
:1000D000E17D0008E17D0008E17D0008E17D000888
:1000E000E17D0008E17D0008E17D000800000000DE
:1000F0000000000000000000000000000000000000
:0C01000000000000000000005FF808F1A3
:1001100010B5054C237833B9044B13B10448AFF341
:1001200000800123237010BD80010020000000002A
:1001300068C2000808B5034B1BB103490348AFF37D
:10014000008008BD000000008401002068C2000893
:1001500081F0004102E000BF83F0004330B54FEA78
:1001600041044FEA430594EA050F08BF90EA020FE5
:100170001FBF54EA000C55EA020C7FEA645C7FEA78
:10018000655C00F0E2804FEA5454D4EB5555B8BF9B
:100190006D420CDD2C4480EA020281EA030382EA0C
:1001A000000083EA010180EA020281EA0303362D9E
:1001B00088BF30BD11F0004F4FEA01314FF4801C71
:1001C0004CEA113102D0404261EB410113F0004F83
:1001D0004FEA03334CEA133302D0524263EB43033A
:1001E00094EA050F00F0A780A4F10104D5F1200ED8
:1001F0000DDB02FA0EFC22FA05F2801841F1000133
:1002000003FA0EF2801843FA05F359410EE0A5F106
:1002100020050EF1200E012A03FA0EFC28BF4CF037
:10022000020C43FA05F3C01851EBE37101F00045ED
:1002300007D54FF0000EDCF1000C7EEB00006EEBFA
:100240000101B1F5801F1BD3B1F5001F0CD3490884
:100250005FEA30004FEA3C0C04F101044FEA4452DB
:1002600012F5800F80F09A80BCF1004F08BF5FEA62
:10027000500C50F1000041EB045141EA050130BD42
:100280005FEA4C0C404141EB0101013C28BFB1F554
:10029000801FE9D291F0000F04BF01460020B1FA9F
:1002A00081F308BF2033A3F10B03B3F120020CDA72
:1002B0000C3208DD02F1140CC2F10C0201FA0CF050
:1002C00021FA02F10CE002F11402D8BFC2F1200CB5
:1002D00001FA02F120FA0CFCDCBF41EA0C0190406B
:1002E000E41AA2BF01EB0451294330BD6FEA0404B4
:1002F0001F3C1CDA0C340EDC04F11404C4F120029F
:1003000020FA04F001FA02F340EA030021FA04F3B0
:1003100045EA030130BDC4F10C04C4F1200220FA07
:1003200002F001FA04F340EA0300294630BD21FA45
:1003300004F0294630BD94F0000F83F4801306BF0B
:1003400081F480110134013D4EE77FEA645C18BFFF
:100350007FEA655C29D094EA050F08BF90EA020F96
:1003600005D054EA000C04BF1946104630BD91EA8E
:10037000030F1EBF0021002030BD5FEA545C05D191
:100380004000494128BF41F0004130BD14F58004D0
:100390003CBF01F5801130BD01F0004545F0FE4144
:1003A00041F470014FF0000030BD7FEA645C1ABF79
:1003B000194610467FEA655C1CBF0B46024650EAB0
:1003C000013406BF52EA033591EA030F41F40021DC
:1003D00030BD00BF90F0000F04BF0021704730B562
:1003E0004FF4806404F132044FF000054FF0000137
:1003F00050E700BF90F0000F04BF0021704730B5F8
:100400004FF4806404F1320410F0004548BF4042CC
:100410004FF000013EE700BF42004FEAE2014FEA21
:1004200031014FEA02701FBF12F07F4393F07F4FFC
:1004300081F06051704732F07F4208BF704793F0FF
:100440007F4F04BF41F40021704730B54FF4607412
:1004500001F0004521F000411CE700BF50EA010215
:1004600008BF704730B54FF000050AE050EA0102BE
:1004700008BF704730B511F0004502D5404261EB2E
:1004800041014FF4806404F132045FEA915C3FF46F
:10049000D8AE4FF003025FEADC0C18BF03325FEA0C
:1004A000DC0C18BF033202EBDC02C2F1200300FABD
:1004B00003FC20FA02F001FA03FE40EA0E0021FAE2
:1004C00002F11444BDE600BF70B54FF0FF0C4CF4D0
:1004D000E06C1CEA11541DBF1CEA135594EA0C0F82
:1004E00095EA0C0F00F0DEF82C4481EA030621EABD
:1004F0004C5123EA4C5350EA013518BF52EA0335F8
:1005000041F4801143F4801338D0A0FB02CE4FF0A9
:100510000005E1FB02E506F00042E0FB03E54FF0D9
:100520000006E1FB03569CF0000F18BF4EF0010ED1
:10053000A4F1FF04B6F5007F64F5407404D25FEACD
:100540004E0E6D4146EB060642EAC62141EA555180
:100550004FEAC52040EA5E504FEACE2EB4F1FD0CC2
:1005600088BFBCF5E06F1ED8BEF1004F08BF5FEA40
:10057000500E50F1000041EB045170BD06F00046F2
:1005800046EA010140EA020081EA0301B4EB5C049F
:10059000C2BFD4EB0C0541EA045170BD41F4801197
:1005A0004FF0000E013C00F3AB8014F1360FDEBFBC
:1005B000002001F0004170BDC4F10004203C35DA98
:1005C0000C341BDC04F11404C4F1200500FA05F31B
:1005D00020FA04F001FA05F240EA020001F00042BC
:1005E00021F0004110EBD37021FA04F642EB060132
:1005F0005EEA430E08BF20EAD37070BDC4F10C045C
:10060000C4F1200500FA04F320FA05F001FA04F21F
:1006100040EA020001F0004110EBD37041F100010B
:100620005EEA430E08BF20EAD37070BDC4F1200516
:1006300000FA05F24EEA020E20FA04F301FA05F27E
:1006400043EA020321FA04F001F0004121FA04F226
:1006500020EA020000EBD3705EEA430E08BF20EAF6
:10066000D37070BD94F0000F0FD101F00046400030
:1006700041EB010111F4801F08BF013CF7D041EAB2
:10068000060195F0000F18BF704703F000465200B6
:1006900043EB030313F4801F08BF013DF7D043EA87
:1006A0000603704794EA0C0F0CEA135518BF95EA3D
:1006B0000C0F0CD050EA410618BF52EA4306D1D1C4
:1006C00081EA030101F000414FF0000070BD50EAE3
:1006D000410606BF1046194652EA430619D094EA6D
:1006E0000C0F02D150EA013613D195EA0C0F05D157
:1006F00052EA03361CBF104619460AD181EA0301AB
:1007000001F0004141F0FE4141F470014FF0000062
:1007100070BD41F0FE4141F4780170BD70B54FF0FD
:10072000FF0C4CF4E06C1CEA11541DBF1CEA13557D
:1007300094EA0C0F95EA0C0F00F0A7F8A4EB05045F
:1007400081EA030E52EA03354FEA013100F0888056
:100750004FEA03334FF0805545EA131343EA12631F
:100760004FEA022245EA111545EA10654FEA0026D4
:100770000EF000419D4208BF964244F1FD0404F58D
:10078000407402D25B084FEA3202B61A65EB0305E9
:100790005B084FEA32024FF480104FF4002CB6EBA6
:1007A000020E75EB030E22BFB61A754640EA0C0026
:1007B0005B084FEA3202B6EB020E75EB030E22BF66
:1007C000B61A754640EA5C005B084FEA3202B6EBA7
:1007D000020E75EB030E22BFB61A754640EA9C0066
:1007E0005B084FEA3202B6EB020E75EB030E22BF36
:1007F000B61A754640EADC0055EA060E18D04FEAF4
:10080000051545EA16754FEA06164FEAC30343EA93
:1008100052734FEAC2025FEA1C1CC0D111F4801F60
:100820000BD141EA00014FF000004FF0004CB6E759
:1008300011F4801F04BF01430020B4F1FD0C88BFF8
:10084000BCF5E06F3FF6AFAEB5EB030C04BFB6EB03
:10085000020C5FEA500C50F1000041EB045170BDF6
:100860000EF0004E4EEA113114EB5C04C2BFD4EB23
:100870000C0541EA045170BD41F480114FF0000EA7
:10088000013C90E645EA060E8DE60CEA135594EA23
:100890000C0F08BF95EA0C0F3FF43BAF94EA0C0F26
:1008A0000AD150EA01347FF434AF95EA0C0F7FF49B
:1008B00025AF104619462CE795EA0C0F06D152EAEF
:1008C00003353FF4FDAE1046194622E750EA4106D3
:1008D00018BF52EA43067FF4C5AE50EA41047FF4E4
:1008E0000DAF52EA43057FF4EBAE12E74FF0FF3C49
:1008F00006E000BF4FF0010C02E000BF4FF0010C1A
:100900004DF804CD4FEA410C7FEA6C5C4FEA430C92
:1009100018BF7FEA6C5C1BD001B050EA410C0CBFE1
:1009200052EA430C91EA030F02BF90EA020F002043
:10093000704710F1000F91EA030F58BF994208BFAA
:1009400090422CBFD8176FEAE37040F00100704767
:100950004FEA410C7FEA6C5C02D150EA013C07D1BE
:100960004FEA430C7FEA6C5CD6D152EA033CD3D009
:100970005DF8040B704700BF8446104662468C4603
:100980001946634600E000BF01B5FFF7B7FF002836
:1009900048BF10F1000F01BD4DF808EDFFF7F4FF5F
:1009A0000CBF012000205DF808FB00BF4DF808EDEA
:1009B000FFF7EAFF34BF012000205DF808FB00BF0D
:1009C0004DF808EDFFF7E0FF94BF012000205DF82F
:1009D00008FB00BF4DF808EDFFF7CEFF94BF0120E4
:1009E00000205DF808FB00BF4DF808EDFFF7C4FFDD
:1009F00034BF012000205DF808FB00BF4FEA410230
:100A000012F5001215D211D56FF47873B3EB625260
:100A100012D94FEAC12343F0004343EA505311F087
:100A2000004F23FA02F018BF404270474FF0000019
:100A3000704750EA013005D111F0004008BF6FF057
:100A4000004070474FF00000704700BF4A0011D2CD
:100A500012F5001211D20DD56FF47873B3EB625218
:100A60000ED44FEAC12343F0004343EA505323FA24
:100A700002F070474FF00000704750EA013002D199
:100A80004FF0FF3070474FF0000070474FEA4102CF
:100A9000B2F1E04324BFB3F5001CDCF1FE5C0DD9DC
:100AA00001F0004C4FEAC0024CEA5070B2F1004F26
:100AB00040EB830008BF20F00100704711F0804F29
:100AC00021D113F13872BCBF01F00040704741F4EE
:100AD00080114FEA5252C2F11802C2F1200C10FAF2
:100AE0000CF320FA02F018BF40F001004FEAC123D6
:100AF0004FEAD32303FA0CFC40EA0C0023FA02F37A
:100B00004FEA4303CCE77FEA625307D150EA01334F
:100B10001EBF4FF0FE4040F44000704701F000401F
:100B200040F0FE4040F40000704700BF80F00040FD
:100B300002E000BF81F0004142001FBF5FEA4103B5
:100B400092EA030F7FEA226C7FEA236C6AD04FEAB5
:100B50001262D2EB1363C1BFD218414048404140FA
:100B6000B8BF5B42192B88BF704710F0004F40F4AC
:100B7000000020F07F4018BF404211F0004F41F4C8
:100B8000000121F07F4118BF494292EA030F3FD094
:100B9000A2F1010241FA03FC10EB0C00C3F12003A7
:100BA00001FA03F100F0004302D5494260EB400036
:100BB000B0F5000F13D3B0F1807F06D340084FEAA1
:100BC000310102F10102FE2A51D2B1F1004F40EB96
:100BD000C25008BF20F0010040EA030070474900FE
:100BE00040EB0000013A28BFB0F5000FEDD2B0FA9B
:100BF00080FCACF1080CB2EB0C0200FA0CF0AABFBE
:100C000000EBC25052421843BCBFD040184370475B
:100C100092F0000F81F4000106BF80F40000013261
:100C2000013BB5E74FEA41037FEA226C18BF7FEA38
:100C3000236C21D092EA030F04D092F0000F08BF7A
:100C40000846704790EA010F1CBF0020704712F061
:100C50007F4F04D1400028BF40F00040704712F1A0
:100C600000723CBF00F50000704700F0004343F005
:100C7000FE4040F4000070477FEA226216BF08463B
:100C80007FEA23630146420206BF5FEA412390EAFE
:100C9000010F40F4800070474FF0000304E000BFF4
:100CA00010F0004348BF40425FEA000C08BF7047A5
:100CB00043F0964301464FF000001CE050EA010269
:100CC00008BF70474FF000030AE000BF50EA01027E
:100CD00008BF704711F0004302D5404261EB41016B
:100CE0005FEA010C02BF84460146002043F0B64390
:100CF00008BFA3F18053A3F50003BCFA8CF2083AB5
:100D0000A3EBC25310DB01FA02FC634400FA02FCBD
:100D1000C2F12002BCF1004F20FA02F243EB0200C4
:100D200008BF20F00100704702F1200201FA02FC26
:100D3000C2F1200250EA4C0021FA02F243EB020019
:100D400008BF20EADC70704780B500AF094B002275
:100D50001A60084B01225A60064B07229A60054927
:100D6000054807F065FB0346002B01D006F08CFE1A
:100D700000BF80BD9C010020A801002080B500AF0D
:100D8000094B01221A60084B01225A60064B0422CB
:100D90009A600549054807F04BFB0346002B01D03C
:100DA00006F072FE00BF80BD9C010020A80100205B
:100DB00080B500AF094B09221A60084B01225A6026
:100DC000064B05229A600549054807F031FB0346AA
:100DD000002B01D006F058FE00BF80BD9C01002012
:100DE000A801002080B500AF06F0FCFF00F054F829
:100DF00000F030FA00F010FA00F0C0F900F070F9DD
:100E000000F0A6F800F0CCF81D4808F09FFF1D4840
:100E100008F09CFF01224FF400511B4808F094F9A0
:100E200002224FF48041184808F08EF903224FF453
:100E30000041154808F088F9144807F00DF906F04C
:100E4000B5FD00F0A3FA06F037FA00F0E1FA104B16
:100E5000B3F904200F4B1A800E4BB3F9003018463B
:100E600006F0FCFA00F038FB094BB3F90220094BFD
:100E70001A80084BB3F90030184600F039FCE0E75F
:100E8000680200202002002000100140A80100207C
:100E9000200300201803002080B594B000AF07F1B4
:100EA00028032822002118460AF057F907F11403F5
:100EB00000221A605A609A60DA601A613B1D0022B3
:100EC0001A605A609A60DA600123BB624FF4803383
:100ED000FB6200233B630123BB6302237B644FF46B
:100EE0008033BB644FF4E013FB6407F1280318461A
:100EF00008F074F90346002B01D006F0C5FD0F235E
:100F00007B610223BB610023FB614FF480633B6282
:100F100000237B6207F114030221184608F0E0FB6E
:100F20000346002B01D006F0AFFD02237B604FF497
:100F30000043FB603B1D184608F04CFD0346002BA8
:100F400001D006F0A1FD00BF5037BD4680BD0000B6
:100F500080B500AF104B114A1A600F4B4FF48072EE
:100F60009A600D4B01221A730B4B00221A750A4B23
:100F70004FF46022DA61084B00225A60064B0122CE
:100F80001A61054806F090FF0346002B01D006F0D9
:100F90007BFD00BF80BD00BFA801002000240140F0
:100FA00080B596B000AF07F1480300221A605A607E
:100FB0009A60DA6007F1400300221A605A6007F174
:100FC000240300221A605A609A60DA601A615A613A
:100FD0009A613B1D2022002118460AF0BEF83E4BC4
:100FE0003E4A1A603C4B00225A603B4B00229A60FA
:100FF000394B5922DA60384B00221A61364B0022F5
:101000005A61354B00229A61334808F04FFE03467F
:10101000002B01D006F038FD4FF48053BB6407F17C
:10102000480319462C4809F06DFB0346002B01D0FC
:1010300006F02AFD284808F0DBFE0346002B01D00D
:1010400006F022FD00233B6400237B6407F140038C
:101050001946214809F0C0FF0346002B01D006F0D5
:1010600013FD60237B620023BB620023FB6200232D
:101070003B6300237B630023BB630023FB6307F117
:10108000240300221946144809F07AFA0346002B7B
:1010900001D006F0F9FC00237B600023BB60002335
:1010A000FB6000233B6100237B614FF40053BB6175
:1010B00000233B623B1D1946074809F0EBFF03463E
:1010C000002B01D006F0E0FC034806F0DBFD00BF7A
:1010D0005837BD4680BD00BFD8010020002C01401C
:1010E00080B586B000AF07F1080300221A605A608D
:1010F0009A60DA603B4600221A605A601D4B1E4A15
:101100001A601C4B40F2CF225A601A4B00229A60A0
:10111000184B0122DA60174B00221A61154B00228E
:101120009A61144808F0C2FD0346002B01D006F076
:10113000ABFC4FF48053BB6007F1080319460D4820
:1011400009F0E0FA0346002B01D006F09DFC0023D5
:101150003B6000237B603B461946064809F03CFF94
:101160000346002B01D006F08FFC00BF1837BD46A8
:1011700080BD00BF200200200004004080B586B082
:1011800000AF07F1080300221A605A609A60DA6023
:101190003B4600221A605A601D4B1E4A1A601C4BC7
:1011A00041F61F425A601A4B00229A60184B0122E6
:1011B000DA60174B00221A61154B00229A6114481D
:1011C00008F074FD0346002B01D006F05DFC4FF4DF
:1011D0008053BB6007F1080319460D4809F092FAE5
:1011E0000346002B01D006F04FFC00233B60002398
:1011F0007B603B461946064809F0EEFE0346002B8D
:1012000001D006F041FC00BF1837BD4680BD00BFCD
:10121000680200200008004080B582B000AF0C4B8F
:101220005B690B4A43F001035361094B5B6903F0AF
:1012300001037B607B68002200210C2007F063FB28
:101240000C2007F07CFB00BF0837BD4680BD00BF07
:101250000010024080B588B000AF07F110030022F3
:101260001A605A609A60DA60434B9B69424A43F0C5
:1012700010039361404B9B6903F01003FB60FB6814
:101280003D4B9B693C4A43F0200393613A4B9B6979
:1012900003F02003BB60BB68374B9B69364A43F0C1
:1012A00004039361344B9B6903F004037B607B6808
:1012B000314B9B69304A43F0080393612E4B9B6985
:1012C00003F008033B603B6800224FF460412B4869
:1012D00007F03AFF00224FF49C61294807F034FFE1
:1012E00000224FF4F051274807F02EFF4FF46043DF
:1012F0003B6101237B610023BB610223FB6107F19A
:10130000100319461D4807F09BFD01233B611E4B4E
:101310007B610023BB6107F110031946184807F0F1
:101320008FFD4FF49C633B6101237B610023BB6114
:101330000223FB6107F110031946114807F080FDF5
:101340004FF4F0533B6101237B610023BB61022317
:10135000FB6107F1100319460A4807F071FD0022EE
:101360000021062007F0CFFA062007F0E8FA00BFB8
:101370002037BD4680BD00BF001002400010014074
:10138000000C0140000801400000111080B500AFC2
:10139000FFF7DAFC1C4806F05FFE01211A4806F050
:1013A00035FF194807F038F803469AB2174B1A80F0
:1013B000154806F0FFFEFFF7E1FC134806F04CFE6F
:1013C0000121114806F022FF0F4807F025F80346D7
:1013D0009AB20E4B5A800C4806F0ECFEFFF7E8FC80
:1013E000094806F039FE0121074806F00FFF0648BC
:1013F00007F012F803469AB2044B9A80024806F0AE
:10140000D9FE00BF80BD00BFA801002060060020FB
:1014100080B485B000AF40F6F203FB604FF40C736C
:10142000BB6040F642137B6040F221233B60224BBD
:101430001A68BB68D31A642203FB02F2F968BB681E
:10144000CB1A92FBF3F31AB21C4B5A801B4BB3F925
:101450000230642B03DD194B64225A8007E0174BDE
:10146000B3F90230002B02DA144B00225A80144BDD
:101470001A683B68D31A642203FB02F279683B685E
:10148000CB1A92FBF3F31AB20C4B9A800B4BB3F9C5
:101490000430642B03DD094B64229A8007E0074B7C
:1014A000B3F90430002B02DA044B00229A8000BF0B
:1014B0001437BD4680BC70476C0600202003002016
:1014C0007006002080B483B000AF0346FB8000BFED
:1014D0000C37BD4680BC704780B500AF7D4B1B68A4
:1014E000B3F5D77F03DA7C4B00221A802CE0794BCE
:1014F0001B68B3F5487F03DA774B01221A8023E09B
:10150000744B1B68B3F5966F03DA734B02221A8093
:101510001AE0704B1B68B3F5C86F03DA6E4B0322F9
:101520001A8011E06B4B1B68B3F5FA6F03DA6A4B54
:1015300004221A8008E0674B1B6840F6C3129342EE
:1015400002DC654B05221A80634BB3F90030052B92
:1015500000F2AC8001A252F823F000BF751500081C
:10156000AB150008E1150008171600084D16000815
:1015700077160008594BFF221A60594BFF221A6058
:10158000584BFF221A6000224FF4E051564807F0F2
:10159000DBFD00224FF40071534807F0D5FD002217
:1015A0002021524807F0D0FD92E04C4B00221A60F7
:1015B0004B4BB4221A604B4BFF221A6001224FF4AE
:1015C0008061494807F0C0FD00224FF4D0514648E1
:1015D00007F0BAFD00222021444807F0B5FD77E06E
:1015E0003E4B00221A603E4BFF221A603D4B002208
:1015F0001A6000224FF400613B4807F0A5FD00226D
:101600004FF4B051384807F09FFD002220213748A1
:1016100007F09AFD5CE0314BFF221A60304BFF224D
:101620001A60304B00221A6001224FF480512E487C
:1016300007F08AFD00224FF460612B4807F084FD1B
:1016400000222021294807F07FFD41E0234BFF22A3
:101650001A60234B00221A60224B00221A600122DA
:101660002021224807F070FD00224FF4F0511E485F
:1016700007F06AFD2CE0194B00221A60184B00227B
:101680001A60184BFF221A6000224FF4E0511648EE
:1016900007F05AFD00222021144807F055FD0022D2
:1016A0004FF40071104807F04FFD11E001224FF494
:1016B00000710D4807F048FD00224FF4E0510A4840
:1016C00007F042FD00222021084807F03DFD00BF41
:1016D00000BF80BD68060020200300200800002015
:1016E0000C0000201000002000080140000C014008
:1016F00080B584B000AF78600023FB600023002237
:101700000021F86805F07EFEFB680133FB600023D2
:1017100000220021F86805F075FEFB680133FB60CC
:10172000002300220021F86805F06CFEFB680133FD
:10173000FB60002300220021F86805F063FEFB68CF
:101740000133FB60002300220021F86805F05AFEF7
:10175000FB680133FB60002300220021F86805F0DC
:1017600051FEFB680133FB60002300220021F86872
:1017700005F048FEFB680133FB60002300220021D6
:10178000F86805F03FFEFB680133FB600023002290
:101790000021F86805F036FEFB680133FB6000238A
:1017A00000220021F86805F02DFEFB680133FB6084
:1017B000002300220021F86805F024FEFB680133B5
:1017C000FB60002300220021F86805F01BFEFB6887
:1017D0000133FB60002300220021F86805F012FEAF
:1017E000FB680133FB60002300220021F86805F04C
:1017F00009FEFB680133FB60002300220021F8682A
:1018000005F000FEFB680133FB600023002200218D
:10181000F86805F0F7FDFB680133FB600023002248
:101820000021F86805F0EEFDFB680133FB60002342
:1018300000220021F86805F0E5FDFB680133FB603C
:10184000002300220021F86805F0DCFDFB6801336D
:10185000FB60002300220021F86805F0D3FDFB683F
:101860000133FB60002300220021F86805F0CAFD67
:10187000FB680133FB60002300220021F86805F0BB
:10188000C1FDFB680133FB60002300220021F868E2
:1018900005F0B8FDFB680133FB6000230022002146
:1018A000F86805F0AFFDFB680133FB600023002200
:1018B0000021F86805F0A6FDFB680133FB600023FA
:1018C00000220021F86805F09DFDFB680133FB60F4
:1018D000002300220021F86805F094FDFB68013325
:1018E000FB60002300220021F86805F08BFDFB68F7
:1018F0000133FB60002300220021F86805F082FD1F
:10190000FB680133FB60002300220021F86805F02A
:1019100079FDFB680133FB60002300220021F86899
:1019200005F070FDFB680133FB60002300220021FD
:10193000F86805F067FDFB680133FB6000230022B7
:101940000021F86805F05EFDFB680133FB600023B1
:1019500000220021F86805F055FDFB680133FB60AB
:10196000002300220021F86805F04CFDFB680133DC
:10197000FB60002300220021F86805F043FDFB68AE
:101980000133FB60002300220021F86805F03AFDD6
:10199000FB680133FB60002300220021F86805F09A
:1019A00031FDFB680133FB60002300220021F86851
:1019B00005F028FDFB680133FB60002300220021B5
:1019C000F86805F01FFDFB680133FB60002300226F
:1019D0000021F86805F016FDFB680133FB60002369
:1019E00000220021F86805F00DFDFB680133FB6063
:1019F000002300220021F86805F004FDFB68013394
:101A0000FB60002300220021F86805F0FBFCFB6866
:101A10000133FB60002300220021F86805F0F2FC8E
:101A2000FB680133FB60002300220021F86805F009
:101A3000E9FCFB680133FB60002300220021F86809
:101A400005F0E0FCFB680133FB600023002200216D
:101A5000F86805F0D7FCFB680133FB600023002227
:101A60000021F86805F0CEFCFB680133FB60002321
:101A700000220021F86805F0C5FCFB680133FB601B
:101A8000002300220021F86805F0BCFCFB6801334C
:101A9000FB60002300220021F86805F0B3FCFB681E
:101AA0000133FB60002300220021F86805F0AAFC46
:101AB000FB680133FB60002300220021F86805F079
:101AC000A1FCFB680133FB60002300220021F868C1
:101AD00005F098FCFB680133FB6000230022002125
:101AE000F86805F08FFCFB680133FB6000230022DF
:101AF0000021F86805F086FCFB680133FB600023D9
:101B000000220021F86805F07DFCFB680133FB60D2
:101B1000002300220021F86805F074FCFB68013303
:101B2000FB60002300220021F86805F06BFCFB68D5
:101B30000133FB60002300220021F86805F062FCFD
:101B4000FB680133FB60002300220021F86805F0E8
:101B500059FCFB680133FB60002300220021F86878
:101B600005F050FCFB680133FB60002300220021DC
:101B7000F86805F047FCFB680133FB600023002296
:101B80000021F86805F03EFCFB680133FB60002390
:101B900000220021F86805F035FCFB680133FB608A
:101BA000002300220021F86805F02CFCFB680133BB
:101BB000FB60002300220021F86805F023FCFB688D
:101BC0000133FB60002300220021F86805F01AFCB5
:101BD000FB680133FB60002300220021F86805F058
:101BE00011FCFB680133FB60002300220021F86830
:101BF00005F008FCFB680133FB6000230022002194
:101C0000F86805F0FFFBFB680133FB60002300224E
:101C10000021F86805F0F6FBFB680133FB60002348
:101C200000220021F86805F0EDFBFB680133FB6042
:101C3000002300220021F86805F0E4FBFB68013373
:101C4000FB60002300220021F86805F0DBFBFB6845
:101C50000133FB60002300220021F86805F0D2FB6D
:101C6000FB680133FB60002300220021F86805F0C7
:101C7000C9FBFB680133FB60002300220021F868E8
:101C800005F0C0FBFB680133FB600023002200214C
:101C9000F86805F0B7FBFB680133FB600023002206
:101CA0000021F86805F0AEFBFB680133FB60002300
:101CB00000220021F86805F0A5FBFB680133FB60FA
:101CC000002300220021F86805F09CFBFB6801332B
:101CD000FB60002300220021F86805F093FBFB68FD
:101CE0000133FB60002300220021F86805F08AFB25
:101CF000FB680133FB60002300220021F86805F037
:101D000081FBFB680133FB60002300220021F8689F
:101D100005F078FBFB680133FB6000230022002103
:101D2000F86805F06FFBFB680133FB6000230022BD
:101D30000021F86805F066FBFB680133FB600023B7
:101D400000220021F86805F05DFBAA4BB3F90420DE
:101D5000A94B1A80A74BB3F900309BB21A46120167
:101D600013449BB21AB2A54B1A80A24BB3F90030B0
:101D7000002B03F0B9809F4BB3F90030052B03F023
:101D8000B3807B68002B40F03B819C4BB3F9003063
:101D9000184600230022002105F034FB974BB3F9CD
:101DA00000309BB201339BB21AB2944B1A80934B12
:101DB000B3F90030184600230022002105F022FB71
:101DC0008E4BB3F900309BB201339BB21AB28B4BEE
:101DD0001A808A4BB3F900301846002300220021F4
:101DE00005F010FB854BB3F900309BB201339BB279
:101DF0001AB2824B1A80814BB3F900301846002387
:101E00000022002105F0FEFA7C4BB3F900309BB2B2
:101E100001339BB21AB2794B1A80784BB3F9003078
:101E2000184600230022002105F0ECFA734BB3F9A9
:101E300000309BB201339BB21AB2704B1A806F4BC9
:101E4000B3F90030184600230022002105F0DAFA29
:101E50006A4BB3F900309BB201339BB21AB2674BA5
:101E60001A80664BB3F90030184600230022002187
:101E700005F0C8FA614BB3F900309BB201339BB255
:101E80001AB25E4B1A805D4BB3F90030184600233E
:101E90000022002105F0B6FA584BB3F900309BB28E
:101EA00001339BB21AB2554B1A80544BB3F9003030
:101EB000184600230022002105F0A4FA4F4BB3F985
:101EC00000309BB201339BB21AB24C4B1A804B4B81
:101ED000B3F90030184600230022002105F092FAE1
:101EE000464BB3F900309BB201339BB21AB2434B5D
:101EF0001A80424BB3F9003018460023002200211B
:101F000005F080FA3D4BB3F900309BB201339BB230
:101F10001AB23A4B1A80394BB3F9003018460023F5
:101F20000022002105F06EFA344BB3F900309BB269
:101F300001339BB21AB2314B1A80304BB3F90030E7
:101F4000184600230022002105F05CFA2B4BB3F960
:101F500000309BB201339BB21AB2284B1A80274B38
:101F6000B3F90030184600230022002105F04AFA98
:101F7000224BB3F900309BB201339BB21AB21F4B14
:101F80001A801E4BB3F900301846002300220021AE
:101F900005F038FA194BB3F900309BB201339BB20C
:101FA0001AB2164B1A80154BB3F9003018460023AD
:101FB0000022002105F026FA104BB3F900309BB245
:101FC00001339BB21AB20D4B1A800C4BB3F900309F
:101FD000184600230022002105F014FA074BB3F93C
:101FE00000309BB201339BB21AB2044B1A8002F04C
:101FF0007BBF00BF200300201A0300201C03002029
:102000007B68002B40F344817B68052B00F3408103
:102010009B4BB3F9003018469A4B19689A4B1A68D3
:102020009A4B1B6805F0EEF9954BB3F900309BB263
:1020300001339BB21AB2924B1A80914BB3F9003024
:10204000184600230022002105F0DCF98C4BB3F97F
:1020500000309BB201339BB21AB2894B1A80884B75
:10206000B3F90030184600230022002105F0CAF918
:10207000834BB3F900309BB201339BB21AB2804B51
:102080001A807F4BB3F9003018460023002200214C
:1020900005F0B8F97A4BB3F900309BB201339BB22B
:1020A0001AB2774B1A80764BB3F9003018460023EA
:1020B0000022002105F0A6F9714BB3F900309BB264
:1020C00001339BB21AB26E4B1A806D4BB3F90030DC
:1020D000184600230022002105F094F9684BB3F95B
:1020E00000309BB201339BB21AB2654B1A80644B2D
:1020F000B3F90030184600230022002105F082F9D0
:102100005F4BB3F900309BB201339BB21AB25C4B08
:102110001A805B4BB3F900301846002300220021DF
:1021200005F070F9564BB3F900309BB201339BB206
:102130001AB2534B1A80524BB3F9003018460023A1
:102140000022002105F05EF94D4BB3F900309BB23F
:1021500001339BB21AB24A4B1A80494BB3F9003093
:10216000184600230022002105F04CF9444BB3F936
:1021700000309BB201339BB21AB2414B1A80404BE4
:10218000B3F90030184600230022002105F03AF987
:102190003B4BB3F900309BB201339BB21AB2384BC0
:1021A0001A80374BB3F90030184600230022002173
:1021B00005F028F9324BB3F900309BB201339BB2E2
:1021C0001AB22F4B1A802E4BB3F900301846002359
:1021D0000022002105F016F9294BB3F900309BB21B
:1021E00001339BB21AB2264B1A80254BB3F900304B
:1021F000184600230022002105F004F9204BB3F912
:1022000000309BB201339BB21AB21D4B1A801C4B9B
:10221000B3F90030184600230022002105F0F2F83F
:10222000174BB3F900309BB201339BB21AB2144B77
:102230001A80134BB3F90030184600230022002106
:1022400005F0E0F80E4BB3F900309BB201339BB2BE
:102250001AB20B4B1A800A4BB3F900301846002310
:102260000022002105F0CEF8054BB3F900309BB2F7
:1022700001339BB21AB2024B1A8002F035BE00BF86
:102280001C030020080000200C000020100000208B
:102290007B68052B40F346817B680B2B00F3428162
:1022A0009C4BB3F9003018469B4B19689B4B1A683E
:1022B0009B4B1B6805F0A6F8964BB3F900309BB218
:1022C00001339BB21AB2934B1A80924BB3F9003090
:1022D0001846914B1968914B1A68914B1B6805F091
:1022E00091F88C4BB3F900309BB201339BB21AB218
:1022F000884B1A80874BB3F9003018460023002220
:10230000002105F07FF8834BB3F900309BB2013315
:102310009BB21AB27F4B1A807E4BB3F9003018463D
:1023200000230022002105F06DF87A4BB3F900304C
:102330009BB201339BB21AB2764B1A80754BB3F93C
:102340000030184600230022002105F05BF8714B95
:10235000B3F900309BB201339BB21AB26D4B1A80B5
:102360006C4BB3F90030184600230022002105F021
:1023700049F8684BB3F900309BB201339BB21AB2F3
:10238000644B1A80634BB3F90030184600230022D7
:10239000002105F037F85F4BB3F900309BB20133F1
:1023A0009BB21AB25B4B1A805A4BB3F900301846F5
:1023B00000230022002105F025F8564BB3F9003028
:1023C0009BB201339BB21AB2524B1A80514BB3F9F4
:1023D0000030184600230022002105F013F84D4B71
:1023E000B3F900309BB201339BB21AB2494B1A8049
:1023F000484BB3F90030184600230022002105F0B5
:1024000001F8444BB3F900309BB201339BB21AB2CE
:10241000404B1A803F4BB3F900301846002300228E
:10242000002104F0EFFF3B4BB3F900309BB20133C6
:102430009BB21AB2374B1A80364BB3F900301846AC
:1024400000230022002104F0DDFF324BB3F90030FD
:102450009BB201339BB21AB22E4B1A802D4BB3F9AB
:102460000030184600230022002104F0CBFF294B46
:10247000B3F900309BB201339BB21AB2254B1A80DC
:10248000244BB3F90030184600230022002104F049
:10249000B9FF204BB3F900309BB201339BB21AB2A3
:1024A0001C4B1A801B4BB3F9003018460023002246
:1024B000002104F0A7FF174BB3F900309BB20133A2
:1024C0009BB21AB2134B1A80124BB3F90030184664
:1024D00000230022002104F095FF0E4BB3F90030D9
:1024E0009BB201339BB21AB20A4B1A80094BB3F963
:1024F0000030184600230022002104F083FF054B22
:10250000B3F900309BB201339BB21AB2014B1A806F
:1025100002F0EABC1C030020080000200C00002090
:10252000100000207B680B2B40F34A817B68112B45
:1025300000F346819E4BB3F9003018469D4B196855
:102540009D4B1A689D4B1B6804F05CFF984BB3F9D8
:1025500000309BB201339BB21AB2954B1A80944B58
:10256000B3F900301846934B1968934B1A68934B94
:102570001B6804F047FF8E4BB3F900309BB2013368
:102580009BB21AB28A4B1A80894BB3F900301846B5
:10259000884B1968884B1A68884B1B6804F032FF17
:1025A000834BB3F900309BB201339BB21AB2804B1C
:1025B0001A807F4BB3F90030184600230022002117
:1025C00004F020FF7A4BB3F900309BB201339BB289
:1025D0001AB2774B1A80764BB3F9003018460023B5
:1025E0000022002104F00EFF714BB3F900309BB2C2
:1025F00001339BB21AB26E4B1A806D4BB3F90030A7
:10260000184600230022002104F0FCFE684BB3F9B9
:1026100000309BB201339BB21AB2654B1A80644BF7
:10262000B3F90030184600230022002104F0EAFE2E
:102630005F4BB3F900309BB201339BB21AB25C4BD3
:102640001A805B4BB3F900301846002300220021AA
:1026500004F0D8FE564BB3F900309BB201339BB265
:102660001AB2534B1A80524BB3F90030184600236C
:102670000022002104F0C6FE4D4BB3F900309BB29E
:1026800001339BB21AB24A4B1A80494BB3F900305E
:10269000184600230022002104F0B4FE444BB3F995
:1026A00000309BB201339BB21AB2414B1A80404BAF
:1026B000B3F90030184600230022002104F0A2FEE6
:1026C0003B4BB3F900309BB201339BB21AB2384B8B
:1026D0001A80374BB3F9003018460023002200213E
:1026E00004F090FE324BB3F900309BB201339BB241
:1026F0001AB22F4B1A802E4BB3F900301846002324
:102700000022002104F07EFE294BB3F900309BB279
:1027100001339BB21AB2264B1A80254BB3F9003015
:10272000184600230022002104F06CFE204BB3F970
:1027300000309BB201339BB21AB21D4B1A801C4B66
:10274000B3F90030184600230022002104F05AFE9D
:10275000174BB3F900309BB201339BB21AB2144B42
:102760001A80134BB3F900301846002300220021D1
:1027700004F048FE0E4BB3F900309BB201339BB21C
:102780001AB20B4B1A800A4BB3F9003018460023DB
:102790000022002104F036FE054BB3F900309BB255
:1027A00001339BB21AB2024B1A8002F09DBB00BFEC
:1027B0001C030020080000200C0000201000002056
:1027C0007B68112B40F34C817B68172B00F3488109
:1027D0009F4BB3F9003018469E4B19689E4B1A6800
:1027E0009E4B1B6804F00EFE994BB3F900309BB270
:1027F00001339BB21AB2964B1A80954BB3F9003055
:102800001846944B1968944B1A68944B1B6804F053
:10281000F9FD8F4BB3F900309BB201339BB21AB272
:102820008B4B1A808A4BB3F900301846894B1968D4
:10283000894B1A68894B1B6804F0E4FD844BB3F99B
:1028400000309BB201339BB21AB2814B1A80804B8D
:10285000B3F9003018467F4B19687F4B1A687F4BDD
:102860001B6804F0CFFD7A4BB3F900309BB2013303
:102870009BB21AB2764B1A80754BB3F900301846EA
:1028800000230022002104F0BDFD714BB3F900309C
:102890009BB201339BB21AB26D4B1A806C4BB3F9E9
:1028A0000030184600230022002104F0ABFD684BE5
:1028B000B3F900309BB201339BB21AB2644B1A8059
:1028C000634BB3F90030184600230022002104F0C6
:1028D00099FD5F4BB3F900309BB201339BB21AB242
:1028E0005B4B1A805A4BB3F9003018460023002284
:1028F000002104F087FD564BB3F900309BB2013341
:102900009BB21AB2524B1A80514BB3F900301846A1
:1029100000230022002104F075FD4D4BB3F9003077
:102920009BB201339BB21AB2494B1A80484BB3F9A0
:102930000030184600230022002104F063FD444BC0
:10294000B3F900309BB201339BB21AB2404B1A80EC
:102950003F4BB3F90030184600230022002104F059
:1029600051FD3B4BB3F900309BB201339BB21AB21D
:10297000374B1A80364BB3F900301846002300223B
:10298000002104F03FFD324BB3F900309BB201331C
:102990009BB21AB22E4B1A802D4BB3F90030184659
:1029A00000230022002104F02DFD294BB3F9003053
:1029B0009BB201339BB21AB2254B1A80244BB3F958
:1029C0000030184600230022002104F01BFD204B9C
:1029D000B3F900309BB201339BB21AB21C4B1A8080
:1029E0001B4BB3F90030184600230022002104F0ED
:1029F00009FD174BB3F900309BB201339BB21AB2F9
:102A0000134B1A80124BB3F90030184600230022F2
:102A1000002104F0F7FC0E4BB3F900309BB20133F8
:102A20009BB21AB20A4B1A80094BB3F90030184610
:102A300000230022002104F0E5FC054BB3F900302F
:102A40009BB201339BB21AB2014B1A8002F04CBA0E
:102A50001C030020080000200C00002010000020B3
:102A60007B68172B40F350817B681D2B00F34C8152
:102A7000A14BB3F900301846A04B1968A04B1A6857
:102A8000A04B1B6804F0BEFC9B4BB3F900309BB21B
:102A900001339BB21AB2984B1A80974BB3F90030AE
:102AA0001846964B1968964B1A68964B1B6804F0AB
:102AB000A9FC914BB3F900309BB201339BB21AB21F
:102AC0008D4B1A808C4BB3F9003018468B4B19682C
:102AD0008B4B1A688B4B1B6804F094FC864BB3F944
:102AE00000309BB201339BB21AB2834B1A80824BE7
:102AF000B3F900301846814B1968814B1A68814B35
:102B00001B6804F07FFC7C4BB3F900309BB20133AF
:102B10009BB21AB2784B1A80774BB3F90030184643
:102B2000764B1968764B1A68764B1B6804F06AFC82
:102B3000714BB3F900309BB201339BB21AB26E4BAA
:102B40001A806D4BB3F90030184600230022002193
:102B500004F058FC684BB3F900309BB201339BB2D0
:102B60001AB2654B1A80644BB3F900301846002343
:102B70000022002104F046FC5F4BB3F900309BB209
:102B800001339BB21AB25C4B1A805B4BB3F9003035
:102B9000184600230022002104F034FC564BB3F900
:102BA00000309BB201339BB21AB2534B1A80524B86
:102BB000B3F90030184600230022002104F022FC63
:102BC0004D4BB3F900309BB201339BB21AB24A4B62
:102BD0001A80494BB3F90030184600230022002127
:102BE00004F010FC444BB3F900309BB201339BB2AC
:102BF0001AB2414B1A80404BB3F9003018460023FB
:102C00000022002104F0FEFB3B4BB3F900309BB2E5
:102C100001339BB21AB2384B1A80374BB3F90030EC
:102C2000184600230022002104F0ECFB324BB3F9DC
:102C300000309BB201339BB21AB22F4B1A802E4B3D
:102C4000B3F90030184600230022002104F0DAFB1B
:102C5000294BB3F900309BB201339BB21AB2264B19
:102C60001A80254BB3F900301846002300220021BA
:102C700004F0C8FB204BB3F900309BB201339BB288
:102C80001AB21D4B1A801C4BB3F9003018460023B2
:102C90000022002104F0B6FB174BB3F900309BB2C1
:102CA00001339BB21AB2144B1A80134BB3F90030A4
:102CB000184600230022002104F0A4FB0E4BB3F9B8
:102CC00000309BB201339BB21AB20B4B1A800A4BF5
:102CD000B3F90030184600230022002104F092FBD3
:102CE000054BB3F900309BB201339BB21AB2024BD1
:102CF0001A8002F0F9B800BF1C0300200800002071
:102D00000C000020100000207B681D2B40F3528136
:102D10007B68232B00F34E81A24BB3F90030184699
:102D2000A14B1968A14B1A68A14B1B6804F06AFB00
:102D30009C4BB3F900309BB201339BB21AB2994B52
:102D40001A80984BB3F900301846974B1968974B87
:102D50001A68974B1B6804F055FB924BB3F900308F
:102D60009BB201339BB21AB28E4B1A808D4BB3F9D2
:102D7000003018468C4B19688C4B1A688C4B1B68BA
:102D800004F040FB874BB3F900309BB201339BB298
:102D90001AB2844B1A80834BB3F900301846824B29
:102DA0001968824B1A68824B1B6804F02BFB7D4B21
:102DB000B3F900309BB201339BB21AB2794B1A803F
:102DC000784BB3F900301846774B1968774B1A687F
:102DD000774B1B6804F016FB724BB3F900309BB2C3
:102DE00001339BB21AB26F4B1A806E4BB3F90030AD
:102DF00018466D4B19686D4B1A686D4B1B6804F0D3
:102E000001FB684BB3F900309BB201339BB21AB29D
:102E1000644B1A80634BB3F900301846002300223C
:102E2000002104F0EFFA5F4BB3F900309BB201339D
:102E30009BB21AB25B4B1A805A4BB3F9003018465A
:102E400000230022002104F0DDFA564BB3F90030D4
:102E50009BB201339BB21AB2524B1A80514BB3F959
:102E60000030184600230022002104F0CBFA4D4B1D
:102E7000B3F900309BB201339BB21AB2494B1A80AE
:102E8000484BB3F90030184600230022002104F01B
:102E9000B9FA444BB3F900309BB201339BB21AB27A
:102EA000404B1A803F4BB3F90030184600230022F4
:102EB000002104F0A7FA3B4BB3F900309BB2013379
:102EC0009BB21AB2374B1A80364BB3F90030184612
:102ED00000230022002104F095FA324BB3F90030B0
:102EE0009BB201339BB21AB22E4B1A802D4BB3F911
:102EF0000030184600230022002104F083FA294BF9
:102F0000B3F900309BB201339BB21AB2254B1A8041
:102F1000244BB3F90030184600230022002104F0AE
:102F200071FA204BB3F900309BB201339BB21AB255
:102F30001C4B1A801B4BB3F90030184600230022AB
:102F4000002104F05FFA174BB3F900309BB2013354
:102F50009BB21AB2134B1A80124BB3F900301846C9
:102F600000230022002104F04DFA0E4BB3F900308B
:102F70009BB201339BB21AB20A4B1A80094BB3F9C8
:102F80000030184600230022002104F03BFA054BD4
:102F9000B3F900309BB201339BB21AB2014B1A80D5
:102FA00001F0A2BF1C030020080000200C0000203C
:102FB000100000207B68232B40F356817B68292B6F
:102FC00000F35281A44BB3F900301846A34B1968A3
:102FD000A34B1A68A34B1B6804F014FA9E4BB3F979
:102FE00000309BB201339BB21AB29B4B1A809A4BB2
:102FF000B3F900301846994B1968994B1A68994BE8
:103000001B6804F0FFF9944BB3F900309BB2013315
:103010009BB21AB2904B1A808F4BB3F9003018460E
:103020008E4B19688E4B1A688E4B1B6804F0EAF9B8
:10303000894BB3F900309BB201339BB21AB2864B75
:103040001A80854BB3F900301846844B1968844BBD
:103050001A68844B1B6804F0D5F97F4BB3F9003034
:103060009BB201339BB21AB27B4B1A807A4BB3F9F5
:1030700000301846794B1968794B1A68794B1B68F0
:1030800004F0C0F9744BB3F900309BB201339BB22A
:103090001AB2714B1A80704BB3F9003018466F4B5F
:1030A00019686F4B1A686F4B1B6804F0ABF96A4BD9
:1030B000B3F900309BB201339BB21AB2664B1A804F
:1030C000654BB3F900301846644B1968644B1A68B5
:1030D000644B1B6804F096F95F4BB3F900309BB268
:1030E00001339BB21AB25C4B1A805B4BB3F90030D0
:1030F000184600230022002104F084F9564BB3F94E
:1031000000309BB201339BB21AB2534B1A80524B20
:10311000B3F90030184600230022002104F072F9B0
:103120004D4BB3F900309BB201339BB21AB24A4BFC
:103130001A80494BB3F900301846002300220021C1
:1031400004F060F9444BB3F900309BB201339BB2F9
:103150001AB2414B1A80404BB3F900301846002395
:103160000022002104F04EF93B4BB3F900309BB232
:1031700001339BB21AB2384B1A80374BB3F9003087
:10318000184600230022002104F03CF9324BB3F929
:1031900000309BB201339BB21AB22F4B1A802E4BD8
:1031A000B3F90030184600230022002104F02AF968
:1031B000294BB3F900309BB201339BB21AB2264BB4
:1031C0001A80254BB3F90030184600230022002155
:1031D00004F018F9204BB3F900309BB201339BB2D5
:1031E0001AB21D4B1A801C4BB3F90030184600234D
:1031F0000022002104F006F9174BB3F900309BB20E
:1032000001339BB21AB2144B1A80134BB3F900303E
:10321000184600230022002104F0F4F80E4BB3F905
:1032200000309BB201339BB21AB20B4B1A800A4B8F
:10323000B3F90030184600230022002104F0E2F820
:10324000054BB3F900309BB201339BB21AB2024B6B
:103250001A8001F049BE00BF1C03002008000020B6
:103260000C000020100000207B68292B40F35881BF
:103270007B682F2B00F35481A54BB3F9003018461F
:10328000A44B1968A44B1A68A44B1B6804F0BAF845
:103290009F4BB3F900309BB201339BB21AB29C4BE7
:1032A0001A809B4BB3F9003018469A4B19689A4B19
:1032B0001A689A4B1B6804F0A5F8954BB3F90030D7
:1032C0009BB201339BB21AB2914B1A80904BB3F967
:1032D000003018468F4B19688F4B1A688F4B1B684C
:1032E00004F090F88A4BB3F900309BB201339BB2E3
:1032F0001AB2874B1A80864BB3F900301846854BBB
:103300001968854B1A68854B1B6804F07BF8804B65
:10331000B3F900309BB201339BB21AB27C4B1A80D6
:103320007B4BB3F9003018467A4B19687A4B1A6810
:103330007A4B1B6804F066F8754BB3F900309BB20A
:1033400001339BB21AB2724B1A80714BB3F9003041
:103350001846704B1968704B1A68704B1B6804F064
:1033600051F86B4BB3F900309BB201339BB21AB2E8
:10337000674B1A80664BB3F900301846654B1968E5
:10338000654B1A68654B1B6804F03CF8604BB3F959
:1033900000309BB201339BB21AB25D4B1A805C4B7A
:1033A000B3F9003018465B4B19685B4B1A685B4BEE
:1033B0001B6804F027F8564BB3F900309BB2013379
:1033C0009BB21AB2524B1A80514BB3F900301846D7
:1033D00000230022002104F015F84D4BB3F9003012
:1033E0009BB201339BB21AB2494B1A80484BB3F9D6
:1033F0000030184600230022002104F003F8444B5B
:10340000B3F900309BB201339BB21AB2404B1A8021
:103410003F4BB3F90030184600230022002103F08F
:10342000F1FF3B4BB3F900309BB201339BB21AB2B0
:10343000374B1A80364BB3F9003018460023002270
:10344000002103F0DFFF324BB3F900309BB20133B0
:103450009BB21AB22E4B1A802D4BB3F9003018468E
:1034600000230022002103F0CDFF294BB3F90030E7
:103470009BB201339BB21AB2254B1A80244BB3F98D
:103480000030184600230022002103F0BBFF204B30
:10349000B3F900309BB201339BB21AB21C4B1A80B5
:1034A0001B4BB3F90030184600230022002103F023
:1034B000A9FF174BB3F900309BB201339BB21AB28C
:1034C000134B1A80124BB3F9003018460023002228
:1034D000002103F097FF0E4BB3F900309BB201338C
:1034E0009BB21AB20A4B1A80094BB3F90030184646
:1034F00000230022002103F085FF054BB3F90030C3
:103500009BB201339BB21AB2014B1A8001F0ECBCA2
:103510001C030020080000200C00002010000020E8
:103520007B682F2B40F35C817B68352B00F358813F
:10353000A74BB3F900301846A64B1968A64B1A687A
:10354000A64B1B6803F05EFFA14BB3F900309BB2A2
:1035500001339BB21AB29E4B1A809D4BB3F90030D7
:1035600018469C4B19689C4B1A689C4B1B6803F0CF
:1035700049FF974BB3F900309BB201339BB21AB2AB
:10358000934B1A80924BB3F900301846914B19684F
:10359000914B1A68914B1B6803F034FF8C4BB3F9C5
:1035A00000309BB201339BB21AB2894B1A80884B10
:1035B000B3F900301846874B1968874B1A68874B58
:1035C0001B6803F01FFF824BB3F900309BB201333D
:1035D0009BB21AB27E4B1A807D4BB3F9003018466D
:1035E0007C4B19687C4B1A687C4B1B6803F00AFF04
:1035F000774BB3F900309BB201339BB21AB2744BD4
:103600001A80734BB3F900301846724B1968724B2D
:103610001A68724B1B6803F0F5FE6D4BB3F900306E
:103620009BB201339BB21AB2694B1A80684BB3F953
:1036300000301846674B1968674B1A68674B1B6860
:1036400003F0E0FE624BB3F900309BB201339BB252
:103650001AB25F4B1A805E4BB3F9003018465D4BCF
:1036600019685D4B1A685D4B1B6803F0CBFE584B25
:10367000B3F900309BB201339BB21AB2544B1A809B
:10368000534BB3F900301846524B1968524B1A6825
:10369000524B1B6803F0B6FE4D4BB3F900309BB2A2
:1036A00001339BB21AB24A4B1A80494BB3F900302E
:1036B000184600230022002103F0A4FE444BB3F976
:1036C00000309BB201339BB21AB2414B1A80404B7F
:1036D000B3F90030184600230022002103F092FEC7
:1036E0003B4BB3F900309BB201339BB21AB2384B5B
:1036F0001A80374BB3F9003018460023002200210E
:1037000003F080FE324BB3F900309BB201339BB221
:103710001AB22F4B1A802E4BB3F9003018460023F3
:103720000022002103F06EFE294BB3F900309BB25A
:1037300001339BB21AB2264B1A80254BB3F90030E5
:10374000184600230022002103F05CFE204BB3F951
:1037500000309BB201339BB21AB21D4B1A801C4B36
:10376000B3F90030184600230022002103F04AFE7E
:10377000174BB3F900309BB201339BB21AB2144B12
:103780001A80134BB3F900301846002300220021A1
:1037900003F038FE0E4BB3F900309BB201339BB2FD
:1037A0001AB20B4B1A800A4BB3F9003018460023AB
:1037B0000022002103F026FE054BB3F900309BB236
:1037C00001339BB21AB2024B1A8001F08DBB00BFCD
:1037D0001C030020080000200C0000201000002026
:1037E0007B68352B40F362817B683B2B00F35E8165
:1037F000A64BB3F900301846A54B1968A54B1A68BB
:10380000A54B1B6803F0FEFDA04BB3F900309BB243
:1038100001339BB21AB29D4B1A809C4BB3F9003016
:1038200018469B4B19689B4B1A689B4B1B6803F00F
:10383000E9FD964BB3F900309BB201339BB21AB24B
:10384000924B1A80914BB3F900301846904B19688F
:10385000904B1A68904B1B6803F0D4FD8B4BB3F967
:1038600000309BB201339BB21AB2884B1A80874B4F
:10387000B3F900301846864B1968864B1A68864B98
:103880001B6803F0BFFD814BB3F900309BB20133DD
:103890009BB21AB27D4B1A807C4BB3F900301846AC
:1038A0007B4B19687B4B1A687B4B1B6803F0AAFDA6
:1038B000764BB3F900309BB201339BB21AB2734B13
:1038C0001A80724BB3F900301846714B1968714B6E
:1038D0001A68714B1B6803F095FD6C4BB3F900300F
:1038E0009BB201339BB21AB2684B1A80674BB3F993
:1038F00000301846664B1968664B1A68664B1B68A1
:1039000003F080FD614BB3F900309BB201339BB2F1
:103910001AB25E4B1A805D4BB3F9003018465C4B0F
:1039200019685C4B1A685C4B1B6803F06BFD574BC6
:10393000B3F900309BB201339BB21AB2534B1A80D9
:10394000524BB3F900301846514B1968514B1A6865
:10395000514B1B6803F056FD4C4BB3F900309BB242
:1039600001339BB21AB2494B1A80484BB3F900306D
:103970001846474B1968474B1A68474B1B6803F0BA
:1039800041FD424BB3F900309BB201339BB21AB2F6
:103990003E4B1A803D4BB3F90030184600230022FD
:1039A000002103F02FFD394BB3F900309BB20133F6
:1039B0009BB21AB2354B1A80344BB3F9003018461B
:1039C00000230022002103F01DFD304BB3F900302D
:1039D0009BB201339BB21AB22C4B1A802B4BB3F91A
:1039E0000030184600230022002103F00BFD274B76
:1039F000B3F900309BB201339BB21AB2234B1A8049
:103A0000224BB3F90030184600230022002103F0B6
:103A1000F9FC1E4BB3F900309BB201339BB21AB2D2
:103A20001A4B1A80194BB3F90030184600230022B4
:103A3000002103F0E7FC154BB3F900309BB20133D2
:103A40009BB21AB2114B1A80104BB3F900301846D2
:103A500000230022002103F0D5FC0C4BB3F9003009
:103A60009BB201339BB21AB2084B1A80074BB3F9D1
:103A70000030184600230022002103F0C3FC034B52
:103A8000B3F900309BB2013308E000BF1C030020F3
:103A9000080000200C000020100000209BB21AB289
:103AA000014B1A8001F020BA1C0300207B683B2BDD
:103AB00040F366817B68412B00F36281A44BB3F92C
:103AC00000301846A34B1968A34B1A68A34B1B6818
:103AD00003F098FC9E4BB3F900309BB201339BB2CC
:103AE0001AB29B4B1A809A4BB3F900301846994B87
:103AF0001968994B1A68994B1B6803F083FC944B27
:103B0000B3F900309BB201339BB21AB2904B1A80CA
:103B10008F4BB3F9003018468E4B19688E4B1A68DC
:103B20008E4B1B6803F06EFC894BB3F900309BB2DF
:103B300001339BB21AB2864B1A80854BB3F9003021
:103B40001846844B1968844B1A68844B1B6803F031
:103B500059FC7F4BB3F900309BB201339BB21AB2D0
:103B60007B4B1A807A4BB3F900301846794B1968B1
:103B7000794B1A68794B1B6803F044FC744BB3F91A
:103B800000309BB201339BB21AB2714B1A80704B5A
:103B9000B3F9003018466F4B19686F4B1A686F4BBA
:103BA0001B6803F02FFC6A4BB3F900309BB2013362
:103BB0009BB21AB2664B1A80654BB3F900301846B7
:103BC000644B1968644B1A68644B1B6803F01AFC59
:103BD0005F4BB3F900309BB201339BB21AB25C4B1E
:103BE0001A805B4BB3F9003018465A4B19685A4B90
:103BF0001A685A4B1B6803F005FC554BB3F90030AB
:103C00009BB201339BB21AB2514B1A80504BB3F99D
:103C1000003018464F4B19684F4B1A684F4B1B68C2
:103C200003F0F0FB4A4BB3F900309BB201339BB277
:103C30001AB2474B1A80464BB3F900301846454B31
:103C40001968454B1A68454B1B6803F0DBFB404B7A
:103C5000B3F900309BB201339BB21AB23C4B1A80CD
:103C60003B4BB3F9003018463A4B19683A4B1A6887
:103C70003A4B1B6803F0C6FB354BB3F900309BB2DF
:103C800001339BB21AB2324B1A80314BB3F9003078
:103C9000184600230022002103F0B4FB2C4BB3F99B
:103CA00000309BB201339BB21AB2294B1A80284BC9
:103CB000B3F90030184600230022002103F0A2FBD4
:103CC000234BB3F900309BB201339BB21AB2204BA5
:103CD0001A801F4BB3F90030184600230022002140
:103CE00003F090FB1A4BB3F900309BB201339BB247
:103CF0001AB2174B1A80164BB3F90030184600233E
:103D00000022002103F07EFB114BB3F900309BB27F
:103D100001339BB21AB20E4B1A800D4BB3F900302F
:103D2000184600230022002103F06CFB084BB3F976
:103D300000309BB201339BB21AB2054B1A80044B80
:103D4000B3F90030184600230022002108E000BF2C
:103D50001C030020080000200C00002010000020A0
:103D600003F050FB054BB3F900309BB201339BB21B
:103D70001AB2024B1A8001F0B7B800BF1C03002032
:103D80007B68412B40F368817B68472B00F364819B
:103D9000A24BB3F900301846A14B1968A14B1A6821
:103DA000A14B1B6803F02EFB9C4BB3F900309BB278
:103DB00001339BB21AB2994B1A80984BB3F9003079
:103DC0001846974B1968974B1A68974B1B6803F076
:103DD00019FB924BB3F900309BB201339BB21AB27C
:103DE0008E4B1A808D4BB3F9003018468C4B1968F6
:103DF0008C4B1A688C4B1B6803F004FB874BB3F9A0
:103E000000309BB201339BB21AB2844B1A80834BB1
:103E1000B3F900301846824B1968824B1A68824BFE
:103E20001B6803F0EFFA7D4BB3F900309BB201330E
:103E30009BB21AB2794B1A80784BB3F9003018460E
:103E4000774B1968774B1A68774B1B6803F0DAFADF
:103E5000724BB3F900309BB201339BB21AB26F4B75
:103E60001A806E4BB3F9003018466D4B19686D4BD4
:103E70001A686D4B1B6803F0C5FA684BB3F9003044
:103E80009BB201339BB21AB2644B1A80634BB3F9F5
:103E900000301846624B1968624B1A68624B1B6807
:103EA00003F0B0FA5D4BB3F900309BB201339BB223
:103EB0001AB25A4B1A80594BB3F900301846584B76
:103EC0001968584B1A68584B1B6803F09BFA534B00
:103ED000B3F900309BB201339BB21AB24F4B1A8038
:103EE0004E4BB3F9003018464D4B19684D4B1A68CC
:103EF0004D4B1B6803F086FA484BB3F900309BB278
:103F000001339BB21AB2454B1A80444BB3F90030CF
:103F10001846434B1968434B1A68434B1B6803F020
:103F200071FA3E4BB3F900309BB201339BB21AB227
:103F30003A4B1A80394BB3F900301846384B1968A0
:103F4000384B1A68384B1B6803F05CFA334BB3F9F3
:103F500000309BB201339BB21AB2304B1A802F4B08
:103F6000B3F9003018462E4B19682E4B1A682E4BA9
:103F70001B6803F047FA294BB3F900309BB20133B9
:103F80009BB21AB2254B1A80244BB3F90030184665
:103F900000230022002103F035FA204BB3F9003052
:103FA0009BB201339BB21AB21C4B1A801B4BB3F964
:103FB0000030184600230022002103F023FA174B9B
:103FC000B3F900309BB201339BB21AB2134B1A8083
:103FD000124BB3F90030184600230022002103F0F1
:103FE00011FA0E4BB3F900309BB201339BB21AB2F7
:103FF0000A4B1A80094BB3F90030184600230022FF
:10400000002103F0FFF9054BB3F900309BB20133F7
:104010009BB21AB2014B1A8008E000BF1C030020BB
:10402000080000200C00002010000020094BB3F90C
:104030000030184600230022002103F0E3F9054B6D
:10404000B3F900309BB201339BB21AB2014B1A8014
:1040500000F04ABF1C0300207B68472B40F36C81B3
:104060007B684D2B00F36881A14BB3F900301846F3
:10407000A04B1968A04B1A68A04B1B6803F0C2F94B
:104080009B4BB3F900309BB201339BB21AB2984BF1
:104090001A80974BB3F900301846964B1968964B27
:1040A0001A68964B1B6803F0ADF9914BB3F90030D9
:1040B0009BB201339BB21AB28D4B1A808C4BB3F971
:1040C000003018468B4B19688B4B1A688B4B1B685A
:1040D00003F098F9864BB3F900309BB201339BB2E1
:1040E0001AB2834B1A80824BB3F900301846814BC9
:1040F0001968814B1A68814B1B6803F083F97C4B6C
:10410000B3F900309BB201339BB21AB2784B1A80DC
:10411000774BB3F900301846764B1968764B1A681E
:10412000764B1B6803F06EF9714BB3F900309BB20C
:1041300001339BB21AB26E4B1A806D4BB3F900304B
:1041400018466C4B19686C4B1A686C4B1B6803F073
:1041500059F9674BB3F900309BB201339BB21AB2E5
:10416000634B1A80624BB3F900301846614B1968F3
:10417000614B1A68614B1B6803F044F95C4BB3F95F
:1041800000309BB201339BB21AB2594B1A80584B84
:10419000B3F900301846574B1968574B1A68574BFC
:1041A0001B6803F02FF9524BB3F900309BB2013377
:1041B0009BB21AB24E4B1A804D4BB3F900301846E1
:1041C0004C4B19684C4B1A684C4B1B6803F01AF99E
:1041D000474BB3F900309BB201339BB21AB2444B48
:1041E0001A80434BB3F900301846424B1968424BD2
:1041F0001A68424B1B6803F005F93D4BB3F90030D8
:104200009BB201339BB21AB2394B1A80384BB3F9C7
:1042100000301846374B1968374B1A68374B1B6804
:1042200003F0F0F8324BB3F900309BB201339BB28C
:104230001AB22F4B1A802E4BB3F9003018462D4B73
:1042400019682D4B1A682D4B1B6803F0DBF8284BBF
:10425000B3F900309BB201339BB21AB2244B1A80DF
:10426000234BB3F900301846224B1968224B1A68C9
:10427000224B1B6803F0C6F81D4BB3F900309BB20C
:1042800001339BB21AB21A4B1A80194BB3F90030A2
:10429000184600230022002103F0B4F8144BB3F9B0
:1042A00000309BB201339BB21AB2114B1A80104BF3
:1042B000B3F90030184600230022002103F0A2F8D1
:1042C0000B4BB3F900309BB201339BB21AB2084BCF
:1042D0001A80074BB3F90030184600230022002152
:1042E00003F090F8024BB3F900309BB208E000BF36
:1042F0001C030020080000200C00002010000020FB
:1043000001339BB21AB20B4B1A800A4BB3F900303F
:10431000184600230022002103F074F8054BB3F97E
:1043200000309BB201339BB21AB2024B1A8000F0EC
:10433000DBBD00BF1C0300207B684D2B40F36E816A
:104340007B68532B00F36A819F4BB3F9003018460A
:104350009E4B19689E4B1A689E4B1B6803F052F8DF
:10436000994BB3F900309BB201339BB21AB2964B12
:104370001A80954BB3F900301846944B1968944B4A
:104380001A68944B1B6803F03DF88F4BB3F900306B
:104390009BB201339BB21AB28B4B1A808A4BB3F992
:1043A00000301846894B1968894B1A68894B1B687D
:1043B00003F028F8844BB3F900309BB201339BB271
:1043C0001AB2814B1A80804BB3F9003018467F4BEC
:1043D00019687F4B1A687F4B1B6803F013F87A4B00
:1043E000B3F900309BB201339BB21AB2764B1A80FC
:1043F000754BB3F900301846744B1968744B1A6842
:10440000744B1B6802F0FEFF6F4BB3F900309BB298
:1044100001339BB21AB26C4B1A806B4BB3F900306C
:1044200018466A4B19686A4B1A686A4B1B6802F097
:10443000E9FF654BB3F900309BB201339BB21AB26E
:10444000614B1A80604BB3F9003018465F4B196816
:104450005F4B1A685F4B1B6802F0D4FF5A4BB3F9ED
:1044600000309BB201339BB21AB2574B1A80564BA5
:10447000B3F900301846554B1968554B1A68554B1F
:104480001B6802F0BFFF504BB3F900309BB2013301
:104490009BB21AB24C4B1A804B4BB3F90030184602
:1044A0004A4B19684A4B1A684A4B1B6802F0AAFF2C
:1044B000454BB3F900309BB201339BB21AB2424B69
:1044C0001A80414BB3F900301846404B1968404BF5
:1044D0001A68404B1B6802F095FF3B4BB3F9003064
:1044E0009BB201339BB21AB2374B1A80364BB3F9E9
:1044F00000301846354B1968354B1A68354B1B6828
:1045000002F080FF304BB3F900309BB201339BB215
:104510001AB22D4B1A802C4BB3F9003018462B4B96
:1045200019682B4B1A682B4B1B6802F06BFF264B4C
:10453000B3F900309BB201339BB21AB2224B1A80FE
:10454000214BB3F900301846204B1968204B1A68EC
:10455000204B1B6802F056FF1B4BB3F900309BB297
:1045600001339BB21AB2184B1A80174BB3F90030C3
:104570001846164B1968164B1A68164B1B6802F042
:1045800041FF114BB3F900309BB201339BB21AB219
:104590000D4B1A800C4BB3F9003018460023002253
:1045A000002102F02FFF084BB3F900309BB201331A
:1045B0009BB21AB2044B1A80034BB3F90030184671
:1045C0000023002208E000BF1C0300200800002098
:1045D0000C00002010000020002102F013FF0E4B01
:1045E000B3F900309BB201339BB21AB20A4B1A8066
:1045F000094BB3F90030184600230022002102F0D5
:1046000001FF054BB3F900309BB201339BB21AB2E4
:10461000014B1A8000F068BC1C0300207B68532B00
:1046200040F370817B68592B00F36C819C4BB3F98C
:10463000003018469B4B19689B4B1A689B4B1B68B4
:1046400002F0E0FE964BB3F900309BB201339BB20F
:104650001AB2934B1A80924BB3F900301846914B23
:104660001968914B1A68914B1B6802F0CBFE8C4B7A
:10467000B3F900309BB201339BB21AB2884B1A8057
:10468000874BB3F900301846864B1968864B1A6879
:10469000864B1B6802F0B6FE814BB3F900309BB22B
:1046A00001339BB21AB27E4B1A807D4BB3F90030B6
:1046B00018467C4B19687C4B1A687C4B1B6802F0CF
:1046C000A1FE774BB3F900309BB201339BB21AB213
:1046D000734B1A80724BB3F900301846714B19684E
:1046E000714B1A68714B1B6802F08CFE6C4BB3F96E
:1046F00000309BB201339BB21AB2694B1A80684BEF
:10470000B3F900301846674B1968674B1A68674B56
:104710001B6802F077FE624BB3F900309BB20133A5
:104720009BB21AB25E4B1A805D4BB3F9003018464B
:104730005C4B19685C4B1A685C4B1B6802F062FEAC
:10474000574BB3F900309BB201339BB21AB2544BB2
:104750001A80534BB3F900301846524B1968524B2C
:104760001A68524B1B6802F04DFE4D4BB3F90030F6
:104770009BB201339BB21AB2494B1A80484BB3F932
:1047800000301846474B1968474B1A68474B1B685F
:1047900002F038FE424BB3F900309BB201339BB2BA
:1047A0001AB23F4B1A803E4BB3F9003018463D4BCE
:1047B00019683D4B1A683D4B1B6802F023FE384BCD
:1047C000B3F900309BB201339BB21AB2344B1A805A
:1047D000334BB3F900301846324B1968324B1A6824
:1047E000324B1B6802F00EFE2D4BB3F900309BB22A
:1047F00001339BB21AB22A4B1A80294BB3F900300D
:104800001846284B1968284B1A68284B1B6802F079
:10481000F9FD234BB3F900309BB201339BB21AB2BE
:104820001F4B1A801E4BB3F9003018461D4B1968F8
:104830001D4B1A681D4B1B6802F0E4FD184BB3F9C1
:1048400000309BB201339BB21AB2154B1A80144B45
:10485000B3F900301846134B1968134B1A68134B01
:104860001B6802F0CFFD0E4BB3F900309BB2013351
:104870009BB21AB20A4B1A80094BB3F900301846A2
:10488000084B1968084B1A68084B1B6802F0BAFD00
:10489000034BB3F900309BB201339BB21AB207E06D
:1048A0001C030020080000200C0000201000002045
:1048B000134B1A80124BB3F9003018460023002224
:1048C000002102F09FFD0E4BB3F900309BB2013383
:1048D0009BB21AB20A4B1A80094BB3F90030184642
:1048E00000230022002102F08DFD054BB3F90030BA
:1048F0009BB201339BB21AB2014B1A80F4E200BFA3
:104900001C0300207B68592B40F378817B685F2B68
:1049100000F374819C4BB3F9003018469B4B196827
:104920009B4B1A689B4B1B6802F06CFD964BB3F9CE
:1049300000309BB201339BB21AB2934B1A80924B58
:10494000B3F900301846914B1968914B1A68914B96
:104950001B6802F057FD8C4BB3F900309BB201335A
:104960009BB21AB2884B1A80874BB3F900301846B5
:10497000864B1968864B1A68864B1B6802F042FD0D
:10498000814BB3F900309BB201339BB21AB27E4B1C
:104990001A807D4BB3F9003018467C4B19687C4B6C
:1049A0001A687C4B1B6802F02DFD774BB3F9003081
:1049B0009BB201339BB21AB2734B1A80724BB3F99C
:1049C00000301846714B1968714B1A68714B1B689F
:1049D00002F018FD6C4BB3F900309BB201339BB26F
:1049E0001AB2694B1A80684BB3F900301846674B0E
:1049F0001968674B1A68674B1B6802F003FD624B2E
:104A0000B3F900309BB201339BB21AB25E4B1A80ED
:104A10005D4BB3F9003018465C4B19685C4B1A6863
:104A20005C4B1B6802F0EEFC574BB3F900309BB2B5
:104A300001339BB21AB2544B1A80534BB3F9003076
:104A40001846524B1968524B1A68524B1B6802F0B9
:104A5000D9FC4D4BB3F900309BB201339BB21AB273
:104A6000494B1A80484BB3F900301846474B196838
:104A7000474B1A68474B1B6802F0C4FC424BB3F922
:104A800000309BB201339BB21AB23F4B1A803E4BAF
:104A9000B3F9003018463D4B19683D4B1A683D4B41
:104AA0001B6802F0AFFC384BB3F900309BB2013306
:104AB0009BB21AB2344B1A80334BB3F9003018460C
:104AC000324B1968324B1A68324B1B6802F09AFC61
:104AD0002D4BB3F900309BB201339BB21AB22A4B73
:104AE0001A80294BB3F900301846284B1968284B17
:104AF0001A68284B1B6802F085FC234BB3F9003081
:104B00009BB201339BB21AB21F4B1A801E4BB3F9F2
:104B1000003018461D4B19681D4B1A681D4B1B6849
:104B200002F070FC184BB3F900309BB201339BB21A
:104B30001AB2154B1A80144BB3F900301846134BB8
:104B40001968134B1A68134B1B6802F05BFC0E4B81
:104B5000B3F900309BB201339BB21AB20A4B1A80F0
:104B6000094BB3F900301846084B1968084B1A680E
:104B7000084B1B6802F046FC034BB3F900309BB2B4
:104B800001339BB21AB207E01C030020080000208A
:104B90000C00002010000020144B1A80134BB3F9B6
:104BA00000301846124B1968124B1A68124B1B68DA
:104BB00002F028FC0D4BB3F900309BB201339BB2DD
:104BC0001AB20A4B1A80094BB3F900301846002379
:104BD0000022002102F016FC044BB3F900309BB216
:104BE00001339BB21AB2014B1A807DE11C030020F5
:104BF000080000200C000020100000207B685F2BC4
:104C000040F372817B68642B00F36E819C4BB3F997
:104C1000003018469B4B19689B4B1A689B4B1B68CE
:104C200002F0F0FB964BB3F900309BB201339BB21C
:104C30001AB2934B1A80924BB3F900301846914B3D
:104C40001968914B1A68914B1B6802F0DBFB8C4B87
:104C5000B3F900309BB201339BB21AB2884B1A8071
:104C6000874BB3F900301846864B1968864B1A6893
:104C7000864B1B6802F0C6FB814BB3F900309BB238
:104C800001339BB21AB27E4B1A807D4BB3F90030D0
:104C900018467C4B19687C4B1A687C4B1B6802F0E9
:104CA000B1FB774BB3F900309BB201339BB21AB220
:104CB000734B1A80724BB3F900301846714B196868
:104CC000714B1A68714B1B6802F09CFB6C4BB3F97B
:104CD00000309BB201339BB21AB2694B1A80684B09
:104CE000B3F900301846674B1968674B1A68674B71
:104CF0001B6802F087FB624BB3F900309BB20133B3
:104D00009BB21AB25E4B1A805D4BB3F90030184665
:104D10005C4B19685C4B1A685C4B1B6802F072FBB9
:104D2000574BB3F900309BB201339BB21AB2544BCC
:104D30001A80534BB3F900301846524B1968524B46
:104D40001A68524B1B6802F05DFB4D4BB3F9003003
:104D50009BB201339BB21AB2494B1A80484BB3F94C
:104D600000301846474B1968474B1A68474B1B6879
:104D700002F048FB424BB3F900309BB201339BB2C7
:104D80001AB23F4B1A803E4BB3F9003018463D4BE8
:104D900019683D4B1A683D4B1B6802F033FB384BDA
:104DA000B3F900309BB201339BB21AB2344B1A8074
:104DB000334BB3F900301846324B1968324B1A683E
:104DC000324B1B6802F01EFB2D4BB3F900309BB237
:104DD00001339BB21AB22A4B1A80294BB3F9003027
:104DE0001846284B1968284B1A68284B1B6802F094
:104DF00009FB234BB3F900309BB201339BB21AB2CB
:104E00001F4B1A801E4BB3F9003018461D4B196812
:104E10001D4B1A681D4B1B6802F0F4FA184BB3F9CE
:104E200000309BB201339BB21AB2154B1A80144B5F
:104E3000B3F900301846134B1968134B1A68134B1B
:104E40001B6802F0DFFA0E4BB3F900309BB201335E
:104E50009BB21AB20A4B1A80094BB3F900301846BC
:104E6000084B1968084B1A68084B1B6802F0CAFA0D
:104E7000034BB3F900309BB201339BB21AB207E087
:104E80001C030020080000200C000020100000205F
:104E9000C04B1A80BF4BB3F900301846BE4B19689F
:104EA000BE4B1A68BE4B1B6802F0ACFAB94BB3F9A3
:104EB00000309BB201339BB21AB2B64B1A80B54B8D
:104EC000B3F900301846B44B1968B44B1A68B44BA8
:104ED0001B6802F097FAAF4BB3F900309BB2013375
:104EE0009BB21AB2AB4B1A80AE4BB3F90030052B14
:104EF00041F0D1817B68002B67D100230022002183
:104F0000002002F07FFA002300220021012002F09D
:104F100079FA002300220021022002F073FA002314
:104F200000220021032002F06DFA0023002200215C
:104F3000042002F067FA002300220021052002F07D
:104F400061FA002300220021062002F05BFA002310
:104F500000220021072002F055FA00230022002140
:104F6000082002F04FFA002300220021092002F05D
:104F700049FA0023002200210A2002F043FA00230C
:104F8000002200210B2002F03DFA00230022002124
:104F90000C2002F037FA0023002200210D2002F03D
:104FA00031FA0023002200210E2002F02BFA002308
:104FB000002200210F2002F025FA00230022002108
:104FC000102002F01FFA02F068B97B68002B6DDD3B
:104FD0007B68052B6ADC704B1968704B1A68704B44
:104FE0001B68002002F00EFA00230022002101209D
:104FF00002F008FA002300220021022002F002FA47
:10500000002300220021032002F0FCF900230022EB
:105010000021042002F0F6F90023002200210520DF
:1050200002F0F0F9002300220021062002F0EAF944
:10503000002300220021072002F0E4F900230022CF
:105040000021082002F0DEF90023002200210920BF
:1050500002F0D8F90023002200210A2002F0D2F940
:105060000023002200210B2002F0CCF900230022B3
:1050700000210C2002F0C6F90023002200210D209F
:1050800002F0C0F90023002200210E2002F0BAF93C
:105090000023002200210F2002F0B4F90023002297
:1050A0000021102002F0AEF902F0F7B87B68052B62
:1050B0007ADD7B680B2B77DC374B1968374B1A6826
:1050C000374B1B68002002F09DF9334B1968334BB6
:1050D0001A68334B1B68012002F094F90023002268
:1050E0000021022002F08EF900230022002103207B
:1050F00002F088F9002300220021042002F082F946
:10510000002300220021052002F07CF90023002268
:105110000021062002F076F900230022002107205A
:1051200002F070F9002300220021082002F06AF941
:10513000002300220021092002F064F9002300224C
:1051400000210A2002F05EF90023002200210B203A
:1051500002F058F90023002200210C2002F052F93D
:105160000023002200210D2002F04CF90023002230
:1051700000210E2002F046F90023002200210F201A
:1051800002F040F9002300220021102002F03AF939
:1051900002F083B81C030020080000200C0000204F
:1051A00010000020200300207B680B2B73DD7B6840
:1051B000112B70DCB34B1968B34B1A68B34B1B68E7
:1051C000002002F01FF9AF4B1968AF4B1A68AF4BC4
:1051D0001B68012002F016F9AA4B1968AA4B1A683D
:1051E000AA4B1B68022002F00DF9002300220021C7
:1051F000032002F007F9002300220021042002F01E
:1052000001F9002300220021052002F0FBF8002311
:1052100000220021062002F0F5F8002300220021E0
:10522000072002F0EFF8002300220021082002F0FE
:10523000E9F8002300220021092002F0E3F800230E
:10524000002200210A2002F0DDF8002300220021C4
:105250000B2002F0D7F80023002200210C2002F0DE
:10526000D1F80023002200210D2002F0CBF800230A
:10527000002200210E2002F0C5F8002300220021A8
:105280000F2002F0BFF8002300220021102002F0BE
:10529000B9F802F002B87B68112B76DD7B68172B1A
:1052A00073DC784B1968784B1A68784B1B680020C0
:1052B00002F0A8F8734B1968734B1A68734B1B689C
:1052C000012002F09FF86F4B19686F4B1A686F4B03
:1052D0001B68022002F096F86A4B19686A4B1A683C
:1052E0006A4B1B68032002F08DF800230022002186
:1052F000042002F087F8002300220021052002F09C
:1053000081F8002300220021062002F07BF8002310
:1053100000220021072002F075F80023002200215E
:10532000082002F06FF8002300220021092002F07B
:1053300069F80023002200210A2002F063F800230C
:10534000002200210B2002F05DF800230022002142
:105350000C2002F057F80023002200210D2002F05B
:1053600051F80023002200210E2002F04BF8002308
:10537000002200210F2002F045F800230022002126
:10538000102002F03FF801F088BF7B68172B7FDD0B
:105390007B681D2B7CDC3B4B19683B4B1A683B4BF5
:1053A0001B68002002F02EF8364B1968364B1A683D
:1053B000364B1B68012002F025F8324B1968324B3E
:1053C0001A68324B1B68022002F01CF82D4B19683A
:1053D0002D4B1A682D4B1B68032002F013F8294B44
:1053E0001968294B1A68294B1B68042002F00AF837
:1053F000002300220021052002F004F800230022EF
:105400000021062001F0FEFF0023002200210720DA
:1054100001F0F8FF002300220021082001F0F2FF34
:10542000002300220021092001F0ECFF00230022CC
:1054300000210A2001F0E6FF0023002200210B20BA
:1054400001F0E0FF0023002200210C2001F0DAFF30
:105450000023002200210D2001F0D4FF00230022B0
:1054600000210E2001F0CEFF0023002200210F209A
:1054700001F0C8FF002300220021102001F0C2FF2C
:1054800001F00BBF080000200C00002010000020DD
:105490007B681D2B7CDD7B68232B79DC7F4B1968B7
:1054A0007F4B1A687F4B1B68002001F0ABFF7B4BE2
:1054B00019687B4B1A687B4B1B68012001F0A2FF27
:1054C000764B1968764B1A68764B1B68022001F000
:1054D00099FF724B1968724B1A68724B1B68032054
:1054E00001F090FF6D4B19686D4B1A686D4B1B688E
:1054F000042001F087FF694B1968694B1A68694BF2
:105500001B68052001F07EFF0023002200210620F9
:1055100001F078FF002300220021072001F072FF34
:10552000002300220021082001F06CFF002300224C
:105530000021092001F066FF0023002200210A203B
:1055400001F060FF0023002200210B2001F05AFF30
:105550000023002200210C2001F054FF0023002230
:1055600000210D2001F04EFF0023002200210E201B
:1055700001F048FF0023002200210F2001F042FF2C
:10558000002300220021102001F03CFF01F085BE25
:105590007B68232B40F388807B68292B00F3848071
:1055A0003E4B19683E4B1A683E4B1B68002001F0C9
:1055B00029FF3A4B19683A4B1A683A4B1B6801208D
:1055C00001F020FF354B1968354B1A68354B1B68C5
:1055D000022001F017FF314B1968314B1A68314B2B
:1055E0001B68032001F00EFF2C4B19682C4B1A6826
:1055F0002C4B1B68042001F005FF284B1968284B31
:105600001A68284B1B68052001F0FCFE234B196823
:10561000234B1A68234B1B68062001F0F3FE00237E
:1056200000220021072001F0EDFE002300220021CE
:10563000082001F0E7FE002300220021092001F0EC
:10564000E1FE0023002200210A2001F0DBFE0023FE
:10565000002200210B2001F0D5FE002300220021B2
:105660000C2001F0CFFE0023002200210D2001F0CC
:10567000C9FE0023002200210E2001F0C3FE0023FA
:10568000002200210F2001F0BDFE00230022002196
:10569000102001F0B7FE01F000BE00BF080000209E
:1056A0000C000020100000207B68292B40F3838031
:1056B0007B682F2B7FDC854B1968854B1A68854BDF
:1056C0001B68002001F09EFE804B1968804B1A6811
:1056D000804B1B68012001F095FE7C4B19687C4BC8
:1056E0001A687C4B1B68022001F08CFE774B19680E
:1056F000774B1A68774B1B68032001F083FE734BCE
:105700001968734B1A68734B1B68042001F07AFE0A
:105710006E4B19686E4B1A686E4B1B68052001F0C2
:1057200071FE6A4B19686A4B1A686A4B1B6806203F
:1057300001F068FE654B1968654B1A68654B1B687C
:10574000072001F05FFE002300220021082001F065
:1057500059FE002300220021092001F053FE0023FE
:10576000002200210A2001F04DFE0023002200212A
:105770000B2001F047FE0023002200210C2001F045
:1057800041FE0023002200210D2001F03BFE0023FA
:10579000002200210E2001F035FE0023002200210E
:1057A0000F2001F02FFE002300220021102001F025
:1057B00029FE01F072BD7B682F2B40F38D807B6842
:1057C000352B00F38980414B1968414B1A68414BD6
:1057D0001B68002001F016FE3C4B19683C4B1A6810
:1057E0003C4B1B68012001F00DFE384B1968384B0B
:1057F0001A68384B1B68022001F004FE334B19680D
:10580000334B1A68334B1B68032001F0FBFD2F4B11
:1058100019682F4B1A682F4B1B68042001F0F2FD0A
:105820002A4B19682A4B1A682A4B1B68052001F07D
:10583000E9FD264B1968264B1A68264B1B68062083
:1058400001F0E0FD214B1968214B1A68214B1B68C0
:10585000072001F0D7FD1D4B19681D4B1A681D4B21
:105860001B68082001F0CEFD002300220021092042
:1058700001F0C8FD0023002200210A2001F0C2FD32
:105880000023002200210B2001F0BCFD0023002298
:1058900000210C2001F0B6FD0023002200210D2084
:1058A00001F0B0FD0023002200210E2001F0AAFD2E
:1058B0000023002200210F2001F0A4FD002300227C
:1058C0000021102001F09EFD01F0E7BC080000203F
:1058D0000C000020100000207B68352B40F38A80EC
:1058E0007B683B2B00F386808B4B19688B4B1A68C7
:1058F0008B4B1B68002001F085FD874B1968874B97
:105900001A68874B1B68012001F07CFD824B1968E7
:10591000824B1A68824B1B68022001F073FD7E4B9C
:1059200019687E4B1A687E4B1B68032001F06AFDE4
:10593000794B1968794B1A68794B1B68042001F080
:1059400061FD754B1968754B1A68754B1B6805200E
:1059500001F058FD704B1968704B1A68704B1B684A
:10596000062001F04FFD6C4B19686C4B1A686C4BAC
:105970001B68072001F046FD674B1968674B1A68E2
:10598000674B1B68082001F03DFD634B1968634BB2
:105990001A68634B1B68092001F034FD00230022C4
:1059A00000210A2001F02EFD0023002200210B20FF
:1059B00001F028FD0023002200210C2001F022FD2F
:1059C0000023002200210D2001F01CFD00230022F5
:1059D00000210E2001F016FD0023002200210F20DF
:1059E00001F010FD002300220021102001F00AFD2B
:1059F00001F053BC7B683B2B40F394807B68412BC8
:105A000000F39080444B1968444B1A68444B1B6860
:105A1000002001F0F7FC404B1968404B1A68404BDE
:105A20001B68012001F0EEFC3B4B19683B4B1A68E8
:105A30003B4B1B68022001F0E5FC374B1968374BE4
:105A40001A68374B1B68032001F0DCFC324B1968E5
:105A5000324B1A68324B1B68042001F0D3FC2E4BEA
:105A600019682E4B1A682E4B1B68052001F0CAFCE2
:105A7000294B1968294B1A68294B1B68062001F02D
:105A8000C1FC254B1968254B1A68254B1B6807205C
:105A900001F0B8FC204B1968204B1A68204B1B689A
:105AA000082001F0AFFC1C4B19681C4B1A681C4BFA
:105AB0001B68092001F0A6FC174B1968174B1A68E0
:105AC000174B1B680A2001F09DFC002300220021D7
:105AD0000B2001F097FC0023002200210C2001F094
