:020000040800F2
:10000000005000203D3300087D320008893200088E
:100010008F320008953200089B3200080000000073
:10002000000000000000000000000000A1320008F5
:10003000AD32000800000000B9320008C5320008E7
:1000400085330008853300088533000885330008B0
:100050008533000885330008D13200088533000855
:10006000853300088533000885330008E132000835
:10007000F532000885330008853300088533000811
:100080008533000885330008853300088533000870
:100090008533000885330008853300088533000860
:1000A0008533000885330008853300088533000850
:1000B00085330008093300081D3300088533000824
:1000C0008533000885330008853300088533000830
:1000D0008533000885330008853300088533000820
:1000E00085330008853300088533000800000000D0
:1000F0000000000000000000000000000000000000
:0C01000000000000000000005FF808F1A3
:1001100010B5054C237833B9044B13B10448AFF341
:1001200000800123237010BD80010020000000002A
:100130009875000808B5034B1BB103490348AFF39A
:10014000008008BD000000008401002098750008B0
:1001500081F0004102E000BF83F0004330B54FEA78
:1001600041044FEA430594EA050F08BF90EA020FE5
:100170001FBF54EA000C55EA020C7FEA645C7FEA78
:10018000655C00F0E2804FEA5454D4EB5555B8BF9B
:100190006D420CDD2C4480EA020281EA030382EA0C
:1001A000000083EA010180EA020281EA0303362D9E
:1001B00088BF30BD11F0004F4FEA01314FF4801C71
:1001C0004CEA113102D0404261EB410113F0004F83
:1001D0004FEA03334CEA133302D0524263EB43033A
:1001E00094EA050F00F0A780A4F10104D5F1200ED8
:1001F0000DDB02FA0EFC22FA05F2801841F1000133
:1002000003FA0EF2801843FA05F359410EE0A5F106
:1002100020050EF1200E012A03FA0EFC28BF4CF037
:10022000020C43FA05F3C01851EBE37101F00045ED
:1002300007D54FF0000EDCF1000C7EEB00006EEBFA
:100240000101B1F5801F1BD3B1F5001F0CD3490884
:100250005FEA30004FEA3C0C04F101044FEA4452DB
:1002600012F5800F80F09A80BCF1004F08BF5FEA62
:10027000500C50F1000041EB045141EA050130BD42
:100280005FEA4C0C404141EB0101013C28BFB1F554
:10029000801FE9D291F0000F04BF01460020B1FA9F
:1002A00081F308BF2033A3F10B03B3F120020CDA72
:1002B0000C3208DD02F1140CC2F10C0201FA0CF050
:1002C00021FA02F10CE002F11402D8BFC2F1200CB5
:1002D00001FA02F120FA0CFCDCBF41EA0C0190406B
:1002E000E41AA2BF01EB0451294330BD6FEA0404B4
:1002F0001F3C1CDA0C340EDC04F11404C4F120029F
:1003000020FA04F001FA02F340EA030021FA04F3B0
:1003100045EA030130BDC4F10C04C4F1200220FA07
:1003200002F001FA04F340EA0300294630BD21FA45
:1003300004F0294630BD94F0000F83F4801306BF0B
:1003400081F480110134013D4EE77FEA645C18BFFF
:100350007FEA655C29D094EA050F08BF90EA020F96
:1003600005D054EA000C04BF1946104630BD91EA8E
:10037000030F1EBF0021002030BD5FEA545C05D191
:100380004000494128BF41F0004130BD14F58004D0
:100390003CBF01F5801130BD01F0004545F0FE4144
:1003A00041F470014FF0000030BD7FEA645C1ABF79
:1003B000194610467FEA655C1CBF0B46024650EAB0
:1003C000013406BF52EA033591EA030F41F40021DC
:1003D00030BD00BF90F0000F04BF0021704730B562
:1003E0004FF4806404F132044FF000054FF0000137
:1003F00050E700BF90F0000F04BF0021704730B5F8
:100400004FF4806404F1320410F0004548BF4042CC
:100410004FF000013EE700BF42004FEAE2014FEA21
:1004200031014FEA02701FBF12F07F4393F07F4FFC
:1004300081F06051704732F07F4208BF704793F0FF
:100440007F4F04BF41F40021704730B54FF4607412
:1004500001F0004521F000411CE700BF50EA010215
:1004600008BF704730B54FF000050AE050EA0102BE
:1004700008BF704730B511F0004502D5404261EB2E
:1004800041014FF4806404F132045FEA915C3FF46F
:10049000D8AE4FF003025FEADC0C18BF03325FEA0C
:1004A000DC0C18BF033202EBDC02C2F1200300FABD
:1004B00003FC20FA02F001FA03FE40EA0E0021FAE2
:1004C00002F11444BDE600BF70B54FF0FF0C4CF4D0
:1004D000E06C1CEA11541DBF1CEA135594EA0C0F82
:1004E00095EA0C0F00F0DEF82C4481EA030621EABD
:1004F0004C5123EA4C5350EA013518BF52EA0335F8
:1005000041F4801143F4801338D0A0FB02CE4FF0A9
:100510000005E1FB02E506F00042E0FB03E54FF0D9
:100520000006E1FB03569CF0000F18BF4EF0010ED1
:10053000A4F1FF04B6F5007F64F5407404D25FEACD
:100540004E0E6D4146EB060642EAC62141EA555180
:100550004FEAC52040EA5E504FEACE2EB4F1FD0CC2
:1005600088BFBCF5E06F1ED8BEF1004F08BF5FEA40
:10057000500E50F1000041EB045170BD06F00046F2
:1005800046EA010140EA020081EA0301B4EB5C049F
:10059000C2BFD4EB0C0541EA045170BD41F4801197
:1005A0004FF0000E013C00F3AB8014F1360FDEBFBC
:1005B000002001F0004170BDC4F10004203C35DA98
:1005C0000C341BDC04F11404C4F1200500FA05F31B
:1005D00020FA04F001FA05F240EA020001F00042BC
:1005E00021F0004110EBD37021FA04F642EB060132
:1005F0005EEA430E08BF20EAD37070BDC4F10C045C
:10060000C4F1200500FA04F320FA05F001FA04F21F
:1006100040EA020001F0004110EBD37041F100010B
:100620005EEA430E08BF20EAD37070BDC4F1200516
:1006300000FA05F24EEA020E20FA04F301FA05F27E
:1006400043EA020321FA04F001F0004121FA04F226
:1006500020EA020000EBD3705EEA430E08BF20EAF6
:10066000D37070BD94F0000F0FD101F00046400030
:1006700041EB010111F4801F08BF013CF7D041EAB2
:10068000060195F0000F18BF704703F000465200B6
:1006900043EB030313F4801F08BF013DF7D043EA87
:1006A0000603704794EA0C0F0CEA135518BF95EA3D
:1006B0000C0F0CD050EA410618BF52EA4306D1D1C4
:1006C00081EA030101F000414FF0000070BD50EAE3
:1006D000410606BF1046194652EA430619D094EA6D
:1006E0000C0F02D150EA013613D195EA0C0F05D157
:1006F00052EA03361CBF104619460AD181EA0301AB
:1007000001F0004141F0FE4141F470014FF0000062
:1007100070BD41F0FE4141F4780170BD70B54FF0FD
:10072000FF0C4CF4E06C1CEA11541DBF1CEA13557D
:1007300094EA0C0F95EA0C0F00F0A7F8A4EB05045F
:1007400081EA030E52EA03354FEA013100F0888056
:100750004FEA03334FF0805545EA131343EA12631F
:100760004FEA022245EA111545EA10654FEA0026D4
:100770000EF000419D4208BF964244F1FD0404F58D
:10078000407402D25B084FEA3202B61A65EB0305E9
:100790005B084FEA32024FF480104FF4002CB6EBA6
:1007A000020E75EB030E22BFB61A754640EA0C0026
:1007B0005B084FEA3202B6EB020E75EB030E22BF66
:1007C000B61A754640EA5C005B084FEA3202B6EBA7
:1007D000020E75EB030E22BFB61A754640EA9C0066
:1007E0005B084FEA3202B6EB020E75EB030E22BF36
:1007F000B61A754640EADC0055EA060E18D04FEAF4
:10080000051545EA16754FEA06164FEAC30343EA93
:1008100052734FEAC2025FEA1C1CC0D111F4801F60
:100820000BD141EA00014FF000004FF0004CB6E759
:1008300011F4801F04BF01430020B4F1FD0C88BFF8
:10084000BCF5E06F3FF6AFAEB5EB030C04BFB6EB03
:10085000020C5FEA500C50F1000041EB045170BDF6
:100860000EF0004E4EEA113114EB5C04C2BFD4EB23
:100870000C0541EA045170BD41F480114FF0000EA7
:10088000013C90E645EA060E8DE60CEA135594EA23
:100890000C0F08BF95EA0C0F3FF43BAF94EA0C0F26
:1008A0000AD150EA01347FF434AF95EA0C0F7FF49B
:1008B00025AF104619462CE795EA0C0F06D152EAEF
:1008C00003353FF4FDAE1046194622E750EA4106D3
:1008D00018BF52EA43067FF4C5AE50EA41047FF4E4
:1008E0000DAF52EA43057FF4EBAE12E74FF0FF3C49
:1008F00006E000BF4FF0010C02E000BF4FF0010C1A
:100900004DF804CD4FEA410C7FEA6C5C4FEA430C92
:1009100018BF7FEA6C5C1BD001B050EA410C0CBFE1
:1009200052EA430C91EA030F02BF90EA020F002043
:10093000704710F1000F91EA030F58BF994208BFAA
:1009400090422CBFD8176FEAE37040F00100704767
:100950004FEA410C7FEA6C5C02D150EA013C07D1BE
:100960004FEA430C7FEA6C5CD6D152EA033CD3D009
:100970005DF8040B704700BF8446104662468C4603
:100980001946634600E000BF01B5FFF7B7FF002836
:1009900048BF10F1000F01BD4DF808EDFFF7F4FF5F
:1009A0000CBF012000205DF808FB00BF4DF808EDEA
:1009B000FFF7EAFF34BF012000205DF808FB00BF0D
:1009C0004DF808EDFFF7E0FF94BF012000205DF82F
:1009D00008FB00BF4DF808EDFFF7CEFF94BF0120E4
:1009E00000205DF808FB00BF4DF808EDFFF7C4FFDD
:1009F00034BF012000205DF808FB00BF4FEA410230
:100A000012F5001215D211D56FF47873B3EB625260
:100A100012D94FEAC12343F0004343EA505311F087
:100A2000004F23FA02F018BF404270474FF0000019
:100A3000704750EA013005D111F0004008BF6FF057
:100A4000004070474FF00000704700BF4A0011D2CD
:100A500012F5001211D20DD56FF47873B3EB625218
:100A60000ED44FEAC12343F0004343EA505323FA24
:100A700002F070474FF00000704750EA013002D199
:100A80004FF0FF3070474FF0000070474FEA4102CF
:100A9000B2F1E04324BFB3F5001CDCF1FE5C0DD9DC
:100AA00001F0004C4FEAC0024CEA5070B2F1004F26
:100AB00040EB830008BF20F00100704711F0804F29
:100AC00021D113F13872BCBF01F00040704741F4EE
:100AD00080114FEA5252C2F11802C2F1200C10FAF2
:100AE0000CF320FA02F018BF40F001004FEAC123D6
:100AF0004FEAD32303FA0CFC40EA0C0023FA02F37A
:100B00004FEA4303CCE77FEA625307D150EA01334F
:100B10001EBF4FF0FE4040F44000704701F000401F
:100B200040F0FE4040F40000704700BF80F00040FD
:100B300002E000BF81F0004142001FBF5FEA4103B5
:100B400092EA030F7FEA226C7FEA236C6AD04FEAB5
:100B50001262D2EB1363C1BFD218414048404140FA
:100B6000B8BF5B42192B88BF704710F0004F40F4AC
:100B7000000020F07F4018BF404211F0004F41F4C8
:100B8000000121F07F4118BF494292EA030F3FD094
:100B9000A2F1010241FA03FC10EB0C00C3F12003A7
:100BA00001FA03F100F0004302D5494260EB400036
:100BB000B0F5000F13D3B0F1807F06D340084FEAA1
:100BC000310102F10102FE2A51D2B1F1004F40EB96
:100BD000C25008BF20F0010040EA030070474900FE
:100BE00040EB0000013A28BFB0F5000FEDD2B0FA9B
:100BF00080FCACF1080CB2EB0C0200FA0CF0AABFBE
:100C000000EBC25052421843BCBFD040184370475B
:100C100092F0000F81F4000106BF80F40000013261
:100C2000013BB5E74FEA41037FEA226C18BF7FEA38
:100C3000236C21D092EA030F04D092F0000F08BF7A
:100C40000846704790EA010F1CBF0020704712F061
:100C50007F4F04D1400028BF40F00040704712F1A0
:100C600000723CBF00F50000704700F0004343F005
:100C7000FE4040F4000070477FEA226216BF08463B
:100C80007FEA23630146420206BF5FEA412390EAFE
:100C9000010F40F4800070474FF0000304E000BFF4
:100CA00010F0004348BF40425FEA000C08BF7047A5
:100CB00043F0964301464FF000001CE050EA010269
:100CC00008BF70474FF000030AE000BF50EA01027E
:100CD00008BF704711F0004302D5404261EB41016B
:100CE0005FEA010C02BF84460146002043F0B64390
:100CF00008BFA3F18053A3F50003BCFA8CF2083AB5
:100D0000A3EBC25310DB01FA02FC634400FA02FCBD
:100D1000C2F12002BCF1004F20FA02F243EB0200C4
:100D200008BF20F00100704702F1200201FA02FC26
:100D3000C2F1200250EA4C0021FA02F243EB020019
:100D400008BF20EADC70704780B500AF02F01CFBE2
:100D500000F04AF800F062FA00F03AFA00F0EAF91E
:100D600000F09AF900F09CF800F0F6F8164804F04C
:100D700083F9164804F080F901224FF40051144819
:100D800003F04CFC01224FF48041114803F046FC73
:100D900001224FF400410E4803F040FC03220D49AC
:100DA0000D4802F04FFC02F09DF80C4B00221A6037
:100DB0000B4B1B68184600F02DFB0A4B1B681846AE
:100DC00001F0C0FDF4E700BFA0020020580200209F
:100DD00000100140640300209C010020500300200B
:100DE0005C0300205803002080B594B000AF07F1E9
:100DF000280328220021184605F045FB07F11403BB
:100E000000221A605A609A60DA601A613B1D002263
:100E10001A605A609A60DA600123BB624FF4803333
:100E2000FB6200233B630123BB6302237B644FF41B
:100E30008033BB644FF4E013FB6407F128031846CA
:100E400003F036FC0346002B01D002F0B9F80F2363
:100E50007B610223BB610023FB614FF480633B6233
:100E600000237B6207F114030221184603F0A2FE5F
:100E70000346002B01D002F0A3F802237B604FF45D
:100E80000043FB603B1D184603F0F0FF0346002BB8
:100E900001D002F095F800BF5037BD4680BD00007C
:100EA00080B584B000AF3B1D00221A605A609A6082
:100EB000274B284A1A60264B4FF480729A60244BC5
:100EC00001221A73224B00221A75214B4FF4602223
:100ED000DA611F4B00225A601D4B03221A611C4825
:100EE00002F0D8FA0346002B01D002F069F8002383
:100EF0007B600123BB600023FB603B1D1946144847
:100F000002F09AFC0346002B01D002F059F80123AD
:100F10007B600223BB603B1D19460D4802F08CFC30
:100F20000346002B01D002F04BF809237B6003231A
:100F3000BB603B1D1946064802F07EFC0346002BB1
:100F400001D002F03DF800BF1037BD4680BD00BFA4
:100F50009C0100200024014080B596B000AF07F14D
:100F6000480300221A605A609A60DA6007F1400371
:100F700000221A605A6007F1240300221A605A60A6
:100F80009A60DA601A615A619A613B1D2022002141
:100F9000184605F078FA3E4B3E4A1A603C4B002258
:100FA0005A603B4B00229A60394B5922DA60384B29
:100FB00000221A61364B00225A61354B00229A6199
:100FC000334804F009F80346002B01D001F0F8FF84
:100FD0004FF48053BB6407F1480319462C4804F0D2
:100FE00027FD0346002B01D001F0EAFF284804F05A
:100FF00095F80346002B01D001F0E2FF00233B648B
:1010000000237B6407F140031946214805F07AF973
:101010000346002B01D001F0D3FF60237B62002345
:10102000BB620023FB6200233B6300237B6300233E
:10103000BB630023FB6307F1240300221946144815
:1010400004F034FC0346002B01D001F0B9FF00236B
:101050007B600023BB600023FB6000233B61002317
:101060007B614FF40053BB6100233B623B1D19467B
:10107000074805F0A5F90346002B01D001F0A0FFB9
:10108000034802F0C7F800BF5837BD4680BD00BF17
:1010900010020020002C014080B586B000AF07F19F
:1010A000080300221A605A609A60DA603B46002208
:1010B0001A605A601D4B1E4A1A601C4B40F2CF2228
:1010C0005A601A4B00229A60184B0122DA60174BC3
:1010D00000221A61154B00229A61144803F07CFF2C
:1010E0000346002B01D001F06BFF4FF48053BB602F
:1010F00007F1080319460D4804F09AFC0346002B3B
:1011000001D001F05DFF00233B6000237B603B4684
:101110001946064805F0F6F80346002B01D001F009
:101120004FFF00BF1837BD4680BD00BF58020020EA
:101130000004004080B586B000AF07F1080300222C
:101140001A605A609A60DA603B4600221A605A6060
:101150001D4B1E4A1A601C4B41F61F425A601A4B27
:1011600000229A60184B0122DA60174B00221A61A4
:10117000154B00229A61144803F02EFF0346002B02
:1011800001D001F01DFF4FF48053BB6007F108034D
:1011900019460D4804F04CFC0346002B01D001F029
:1011A0000FFF00233B6000237B603B461946064847
:1011B00005F0A8F80346002B01D001F001FF00BFA5
:1011C0001837BD4680BD00BFA002002000080040C7
:1011D00080B582B000AF104B5B690F4A43F001034A
:1011E00053610D4B5B6903F001037B607B68002258
:1011F00000210B2002F0F1FD0B2002F00AFE00227C
:1012000000210C2002F0E9FD0C2002F002FE00BFDC
:101210000837BD4680BD00BF0010024080B588B0D1
:1012200000AF07F1100300221A605A609A60DA607A
:10123000384B9B69374A43F010039361354B9B69E8
:1012400003F01003FB60FB68324B9B69314A43F0AB
:10125000200393612F4B9B6903F02003BB60BB68A5
:101260002C4B9B692B4A43F004039361294B9B69E8
:1012700003F004037B607B68264B9B69254A43F09F
:1012800008039361234B9B6903F008033B603B68B1
:1012900000224FF46041204803F0C0F900224FF4CF
:1012A00098611E4803F0BAF94FF460433B61012393
:1012B0007B610023BB610223FB6107F11003194628
:1012C000154803F027F801233B61154B7B61002390
:1012D000BB6107F110031946104803F01BF84FF4E7
:1012E00098633B6101237B610023BB610223FB61A7
:1012F00007F110031946094803F00CF800220021F9
:10130000062002F06AFD062002F083FD00BF2037B0
:10131000BD4680BD0010024000100140000C01409D
:101320000000111080B582B000AF0346FB8002F0D0
:1013300083F80346314A1360304B1A68304B1B6800
:10134000D31AC82B56D92F4B1B68042B4DD801A29A
:1013500052F823F069130008831300089D13000856
:10136000B7130008D1130008274BFF221A60274B40
:10137000FF221A60264BFF221A60224B01221A60BC
:1013800034E0214B00221A60204BFF221A60204BD0
:1013900000221A601B4B02221A6027E01A4BFF2220
:1013A0001A601A4BFF221A60194B00221A60154B63
:1013B00003221A601AE0144BFF221A60134B00221A
:1013C0001A60134B00221A600E4B04221A600DE0C3
:1013D0000D4B00221A600D4B00221A600C4BFF22AD
:1013E0001A60084B00221A6000E000BF034B1B6824
:1013F000034A136000BF0837BD4680BD300300209C
:101400002C03002054030020080000200C000020C2
:101410001000002080B582B000AF78607B68002BA0
:101420006BD1002300220021002001F05FFA00238D
:1014300000220021012001F059FA0023002200219E
:10144000022001F053FA002300220021032001F0C2
:101450004DFA002300220021042001F047FA002366
:1014600000220021052001F041FA00230022002182
:10147000062001F03BFA002300220021072001F0A2
:1014800035FA002300220021082001F02FFA002362
:1014900000220021092001F029FA00230022002166
:1014A0000A2001F023FA0023002200210B2001F082
:1014B0001DFA0023002200210C2001F017FA00235E
:1014C000002200210D2001F011FA0023002200214A
:1014D0000E2001F00BFA0023002200210F2001F062
:1014E00005FA002300220021102001F0FFF900235B
:1014F00000220021112001F0F9F97B68002B73DD37
:101500007B68052B70DCB84B1968B84B1A68B84B70
:101510001B68002001F0EAF90023002200210120CD
:1015200001F0E4F9002300220021022001F0DEF99D
:10153000002300220021032001F0D8F9002300221B
:101540000021042001F0D2F900230022002105200F
:1015500001F0CCF9002300220021062001F0C6F999
:10156000002300220021072001F0C0F900230022FF
:101570000021082001F0BAF90023002200210920EF
:1015800001F0B4F90023002200210A2001F0AEF995
:101590000023002200210B2001F0A8F900230022E3
:1015A00000210C2001F0A2F90023002200210D20CF
:1015B00001F09CF90023002200210E2001F096F991
:1015C0000023002200210F2001F090F900230022C7
:1015D0000021102001F08AF90023002200211120AF
:1015E00001F084F901F057B97B68052B76DD7B6843
:1015F0000B2B73DC7C4B19687C4B1A687C4B1B688B
:10160000002001F073F9784B1968784B1A68784B11
:101610001B68012001F06AF900230022002102204A
:1016200001F064F9002300220021032001F05EF99B
:10163000002300220021042001F058F90023002299
:101640000021052001F052F900230022002106208C
:1016500001F04CF9002300220021072001F046F997
:10166000002300220021082001F040F9002300227D
:101670000021092001F03AF90023002200210A206C
:1016800001F034F90023002200210B2001F02EF993
:101690000023002200210C2001F028F90023002261
:1016A00000210D2001F022F90023002200210E204C
:1016B00001F01CF90023002200210F2001F016F98F
:1016C000002300220021102001F010F90023002245
:1016D0000021112001F00AF901F0DDB87B680B2B25
:1016E00040F388807B68112B00F384803E4B19689F
:1016F0003E4B1A683E4B1B68002001F0F7F83A4B4E
:1017000019683A4B1A683A4B1B68012001F0EEF851
:10171000354B1968354B1A68354B1B68022001F0B0
:10172000E5F8002300220021032001F0DFF8002368
:1017300000220021032001F0D9F80023002200211B
:10174000042001F0D3F8002300220021052001F03D
:10175000CDF8002300220021062001F0C7F8002365
:1017600000220021072001F0C1F8002300220021FF
:10177000082001F0BBF8002300220021092001F01D
:10178000B5F80023002200210A2001F0AFF8002361
:10179000002200210B2001F0A9F8002300220021E3
:1017A0000C2001F0A3F80023002200210D2001F0FD
:1017B0009DF80023002200210E2001F097F800235D
:1017C000002200210F2001F091F8002300220021C7
:1017D000102001F08BF8002300220021112001F0DD
:1017E00085F801F058B800BF080000200C00002068
:1017F000100000207B68112B7CDD7B68172B79DCC7
:10180000C24B1968C24B1A68C24B1B68002001F01A
:101810006DF8BE4B1968BE4B1A68BE4B1B680120A1
:1018200001F064F8B94B1968B94B1A68B94B1B68D9
:10183000022001F05BF8B54B1968B54B1A68B54B3F
:101840001B68032001F052F800230022002104202D
:1018500001F04CF8002300220021052001F046F899
:10186000002300220021062001F040F8002300227E
:101870000021072001F03AF800230022002108206F
:1018800001F034F8002300220021092001F02EF895
:101890000023002200210A2001F028F80023002262
:1018A00000210B2001F022F80023002200210C204F
:1018B00001F01CF80023002200210D2001F016F891
:1018C0000023002200210E2001F010F80023002246
:1018D00000210F2001F00AF800230022002110202F
:1018E00001F004F8002300220021112000F0FEFF87
:1018F00000F0D1BF7B68172B7FDD7B681D2B7CDC64
:10190000824B1968824B1A68824B1B68002000F0DA
:10191000EDFF7E4B19687E4B1A687E4B1B680120D9
:1019200000F0E4FF794B1968794B1A68794B1B6812
:10193000022000F0DBFF754B1968754B1A68754B78
:101940001B68032000F0D2FF704B1968704B1A68B7
:10195000704B1B68042000F0C9FF00230022002107
:10196000052000F0C3FF002300220021062000F024
:10197000BDFF002300220021072000F0B7FF002355
:1019800000220021082000F0B1FF002300220021E6
:10199000092000F0ABFF0023002200210A2000F004
:1019A000A5FF0023002200210B2000F09FFF002351
:1019B000002200210C2000F099FF002300220021CA
:1019C0000D2000F093FF0023002200210E2000F0E4
:1019D0008DFF0023002200210F2000F087FF00234D
:1019E00000220021102000F081FF002300220021AE
:1019F000112000F07BFF00F04EBF7B681D2B40F3F1
:101A00008B807B68232B00F38780404B1968404B09
:101A10001A68404B1B68002000F068FF3B4B1968B8
:101A20003B4B1A683B4B1B68012000F05FFF374BB4
:101A30001968374B1A68374B1B68022000F056FFB5
:101A4000324B1968324B1A68324B1B68032000F086
:101A50004DFF2E4B19682E4B1A682E4B1B68042025
:101A600000F044FF294B1968294B1A68294B1B6861
:101A7000052000F03BFF002300220021062000F09B
:101A800035FF002300220021072000F02FFF002354
:101A900000220021082000F029FF0023002200215D
:101AA000092000F023FF0023002200210A2000F07B
:101AB0001DFF0023002200210B2000F017FF002350
:101AC000002200210C2000F011FF00230022002141
:101AD0000D2000F00BFF0023002200210E2000F05B
:101AE00005FF0023002200210F2000F0FFFE00234D
:101AF00000220021102000F0F9FE00230022002126
:101B0000112000F0F3FE00F0C6BE00BF0800002068
:101B10000C000020100000207B68232B40F38780FE
:101B20007B68292B00F38380884B1968884B1A68DF
:101B3000884B1B68002000F0D9FE844B1968844B49
:101B40001A68844B1B68012000F0D0FE7F4B196897
:101B50007F4B1A687F4B1B68022000F0C7FE7B4B4F
:101B600019687B4B1A687B4B1B68032000F0BEFE94
:101B7000764B1968764B1A68764B1B68042000F088
:101B8000B5FE724B1968724B1A68724B1B680520C0
:101B900000F0ACFE6D4B19686D4B1A686D4B1B68FD
:101BA000062000F0A3FE002300220021072000F001
:101BB0009DFE002300220021082000F097FE002354
:101BC00000220021092000F091FE002300220021C4
:101BD0000A2000F08BFE0023002200210B2000F0E1
:101BE00085FE0023002200210C2000F07FFE002350
:101BF000002200210D2000F079FE002300220021A8
:101C00000E2000F073FE0023002200210F2000F0C0
:101C10006DFE002300220021102000F067FE00234B
:101C200000220021112000F061FE00F034BE7B682C
:101C3000292B40F391807B682F2B00F38D80434B41
:101C40001968434B1A68434B1B68002000F04EFE96
:101C50003E4B19683E4B1A683E4B1B68012000F052
:101C600045FE3A4B19683A4B1A683A4B1B680220FA
:101C700000F03CFE354B1968354B1A68354B1B6834
:101C8000032000F033FE314B1968314B1A68314B99
:101C90001B68042000F02AFE2C4B19682C4B1A6894
:101CA0002C4B1B68052000F021FE284B1968284B9F
:101CB0001A68284B1B68062000F018FE234B196891
:101CC000234B1A68234B1B68072000F00FFE0023EC
:101CD00000220021082000F009FE0023002200213C
:101CE000092000F003FE0023002200210A2000F05A
:101CF000FDFD0023002200210B2000F0F7FD002352
:101D0000002200210C2000F0F1FD00230022002120
:101D10000D2000F0EBFD0023002200210E2000F03A
:101D2000E5FD0023002200210F2000F0DFFD00234D
:101D300000220021102000F0D9FD00230022002104
:101D4000112000F0D3FD00F0A6BD00BF0800002068
:101D50000C000020100000207B682F2B40F38D80AA
:101D60007B68352B00F389808E4B19688E4B1A687F
:101D70008E4B1B68002000F0B9FD8A4B19688A4B16
:101D80001A688A4B1B68012000F0B0FD854B19686A
:101D9000854B1A68854B1B68022000F0A7FD814B1C
:101DA0001968814B1A68814B1B68032000F09EFD67
:101DB0007C4B19687C4B1A687C4B1B68042000F034
:101DC00095FD784B1968784B1A68784B1B6805208D
:101DD00000F08CFD734B1968734B1A68734B1B68CA
:101DE000062000F083FD6F4B19686F4B1A686F4B2C
:101DF0001B68072000F07AFD6A4B19686A4B1A6865
:101E00006A4B1B68082000F071FD002300220021AE
:101E1000092000F06BFD0023002200210A2000F0C1
:101E200065FD0023002200210B2000F05FFD002350
:101E3000002200210C2000F059FD00230022002187
:101E40000D2000F053FD0023002200210E2000F0A1
:101E50004DFD0023002200210F2000F047FD00234C
:101E600000220021102000F041FD0023002200216B
:101E7000112000F03BFD00F00EBD7B68352B40F3D8
:101E800097807B683B2B00F39380464B1968464B49
:101E90001A68464B1B68002000F028FD414B19686A
:101EA000414B1A68414B1B68012000F01FFD3D4B60
:101EB00019683D4B1A683D4B1B68022000F016FD67
:101EC000384B1968384B1A68384B1B68032000F0F0
:101ED0000DFD344B1968344B1A68344B1B680420D1
:101EE00000F004FD2F4B19682F4B1A682F4B1B680D
:101EF000052000F0FBFC2B4B19682B4B1A682B4B71
:101F00001B68062000F0F2FC264B1968264B1A6865
:101F1000264B1B68072000F0E9FC224B1968224B76
:101F20001A68224B1B68082000F0E0FC1D4B196862
:101F30001D4B1A681D4B1B68092000F0D7FC0023BD
:101F4000002200210A2000F0D1FC00230022002101
:101F50000B2000F0CBFC0023002200210C2000F01D
:101F6000C5FC0023002200210D2000F0BFFC00234F
:101F7000002200210E2000F0B9FC002300220021E5
:101F80000F2000F0B3FC002300220021102000F0FD
:101F9000ADFC002300220021112000F0A7FC00F07E
:101FA0007ABC00BF080000200C00002010000020B8
:101FB0007B683B2B40F392807B68412B00F38E8043
:101FC000934B1968934B1A68934B1B68002000F0E1
:101FD0008DFC8F4B19688F4B1A688F4B1B68012043
:101FE00000F084FC8A4B19688A4B1A688A4B1B687C
:101FF000022000F07BFC864B1968864B1A68864BE2
:102000001B68032000F072FC814B1968814B1A6831
:10201000814B1B68042000F069FC7D4B19687D4BE7
:102020001A687D4B1B68052000F060FC784B19682E
:10203000784B1A68784B1B68062000F057FC744BED
:102040001968744B1A68744B1B68072000F04EFC2B
:102050006F4B19686F4B1A686F4B1B68082000F0B4
:1020600045FC6B4B19686B4B1A686B4B1B6809205E
:1020700000F03CFC664B1968664B1A68664B1B689F
:102080000A2000F033FC0023002200210B2000F086
:102090002DFC0023002200210C2000F027FC00234F
:1020A000002200210D2000F021FC0023002200214D
:1020B0000E2000F01BFC0023002200210F2000F066
:1020C00015FC002300220021102000F00FFC00234B
:1020D00000220021112000F009FCDCE37B68412B89
:1020E00040F39C807B68472B00F39880484B19682D
:1020F000484B1A68484B1B68002000F0F7FB444B24
:102100001968444B1A68444B1B68012000F0EEFB31
:102110003F4B19683F4B1A683F4B1B68022000F089
:10212000E5FB3B4B19683B4B1A683B4B1B68032094
:1021300000F0DCFB364B1968364B1A68364B1B68CF
:10214000042000F0D3FB324B1968324B1A68324B33
:102150001B68052000F0CAFB2D4B19682D4B1A682F
:102160002D4B1B68062000F0C1FB294B1968294B39
:102170001A68294B1B68072000F0B8FB244B19682C
:10218000244B1A68244B1B68082000F0AFFB204B3F
:102190001968204B1A68204B1B68092000F0A6FB29
:1021A0001B4B19681B4B1A681B4B1B680A2000F05D
:1021B0009DFB174B1968174B1A68174B1B680B20B0
:1021C00000F094FB0023002200210C2000F08EFB85
:1021D0000023002200210D2000F088FB00230022B4
:1021E00000210E2000F082FB0023002200210F209E
:1021F00000F07CFB002300220021102000F076FB81
:10220000002300220021112000F070FB43E300BFF7
:10221000080000200C000020100000207B68472BE5
:1022200040F398807B684D2B00F39480994B19689C
:10223000994B1A68994B1B68002000F057FB954B8F
:102240001968954B1A68954B1B68012000F04EFBEE
:10225000904B1968904B1A68904B1B68022000F055
:1022600045FB8C4B19688C4B1A688C4B1B68032000
:1022700000F03CFB874B1968874B1A68874B1B683B
:10228000042000F033FB834B1968834B1A68834B9F
:102290001B68052000F02AFB7E4B19687E4B1A68EC
:1022A0007E4B1B68062000F021FB7A4B19687A4BA5
:1022B0001A687A4B1B68072000F018FB754B1968E9
:1022C000754B1A68754B1B68082000F00FFB714BAB
:1022D0001968714B1A68714B1B68092000F006FBE6
:1022E0006C4B19686C4B1A686C4B1B680A2000F029
:1022F000FDFA684B1968684B1A68684B1B680B201D
:1023000000F0F4FA634B1968634B1A68634B1B685F
:102310000C2000F0EBFA0023002200210D2000F039
:10232000E5FA0023002200210E2000F0DFFA00234E
:10233000002200210F2000F0D9FA00230022002102
:10234000102000F0D3FA002300220021112000F019
:10235000CDFAA0E27B684D2B40F3A2807B68532B23
:1023600000F39E804B4B19684B4B1A684B4B1B6814
:10237000002000F0BBFA474B1968474B1A68474BDF
:102380001B68012000F0B2FA424B1968424B1A68F0
:10239000424B1B68022000F0A9FA3E4B19683E4BE5
:1023A0001A683E4B1B68032000F0A0FA394B1968ED
:1023B000394B1A68394B1B68042000F097FA354BEB
:1023C0001968354B1A68354B1B68052000F08EFAEA
:1023D000304B1968304B1A68304B1B68062000F0F0
:1023E00085FA2C4B19682C4B1A682C4B1B6807205C
:1023F00000F07CFA274B1968274B1A68274B1B689B
:10240000082000F073FA234B1968234B1A68234BFA
:102410001B68092000F06AFA1E4B19681E4B1A68E7
:102420001E4B1B680A2000F061FA1A4B19681A4B00
:102430001A681A4B1B680B2000F058FA154B1968E4
:10244000154B1A68154B1B680C2000F04FFA114B06
:102450001968114B1A68114B1B680D2000F046FAE1
:102460000023002200210E2000F040FA0023002269
:1024700000210F2000F03AFA002300220021102052
:1024800000F034FA002300220021112000F02EFA7F
:1024900001E200BF080000200C0000201000002016
:1024A0007B68532B40F3A4807B68592B00F3A080FA
:1024B0004C4B19684C4B1A684C4B1B68002000F0C1
:1024C00015FA484B1968484B1A68484B1B6801209D
:1024D00000F00CFA434B1968434B1A68434B1B68D6
:1024E000022000F003FA3F4B19683F4B1A683F4B3C
:1024F0001B68032000F0FAF93A4B19683A4B1A6846
:102500003A4B1B68042000F0F1F9364B1968364B42
:102510001A68364B1B68052000F0E8F9314B196842
:10252000314B1A68314B1B68062000F0DFF92D4B48
:1025300019682D4B1A682D4B1B68072000F0D6F93F
:10254000284B1968284B1A68284B1B68082000F094
:10255000CDF9244B1968244B1A68244B1B680920B9
:1025600000F0C4F91F4B19681F4B1A681F4B1B68FA
:102570000A2000F0BBF91B4B19681B4B1A681B4B58
:102580001B680B2000F0B2F9164B1968164B1A683D
:10259000164B1B680C2000F0A9F9124B1968124B5E
:1025A0001A68124B1B680D2000F0A0F90D4B19683A
:1025B0000D4B1A680D4B1B680E2000F097F9002395
:1025C000002200210F2000F091F9002300220021B9
:1025D000102000F08BF9002300220021112000F0D0
:1025E00085F958E1080000200C00002010000020B0
:1025F0007B68592B40F3A8807B685F2B00F3A48095
:102600004E4B19684E4B1A684E4B1B68002000F069
:102610006DF94A4B19684A4B1A684A4B1B680120EE
:1026200000F064F9454B1968454B1A68454B1B6827
:10263000022000F05BF9414B1968414B1A68414B8D
:102640001B68032000F052F93C4B19683C4B1A6898
:102650003C4B1B68042000F049F9384B1968384B93
:102660001A68384B1B68052000F040F9334B196895
:10267000334B1A68334B1B68062000F037F92F4B99
:1026800019682F4B1A682F4B1B68072000F02EF992
:102690002A4B19682A4B1A682A4B1B68082000F03D
:1026A00025F9264B1968264B1A68264B1B6809200A
:1026B00000F01CF9214B1968214B1A68214B1B684B
:1026C0000A2000F013F91D4B19681D4B1A681D4BA9
:1026D0001B680B2000F00AF9184B1968184B1A6890
:1026E000184B1B680C2000F001F9144B1968144BAF
:1026F0001A68144B1B680D2000F0F8F80F4B19688E
:102700000F4B1A680F4B1B680E2000F0EFF80B4BB5
:1027100019680B4B1A680B4B1B680F2000F0E6F88A
:10272000002300220021102000F0E0F80023002206
:102730000021112000F0DAF8ADE000BF0800002011
:102740000C000020100000207B685F2B40F3A3806A
:102750007B68642B00F39F80564B1968564B1A68B0
:10276000564B1B68002000F0C1F8524B1968524BC1
:102770001A68524B1B68012000F0B8F84D4B1968DD
:102780004D4B1A684D4B1B68022000F0AFF8494BC7
:102790001968494B1A68494B1B68032000F0A6F8DA
:1027A000444B1968444B1A68444B1B68042000F0E2
:1027B0009DF8404B1968404B1A68404B1B68052038
:1027C00000F094F83B4B19683B4B1A683B4B1B6875
:1027D000062000F08BF8374B1968374B1A68374BD7
:1027E0001B68072000F082F8324B1968324B1A68D8
:1027F000324B1B68082000F079F82E4B19682E4BDD
:102800001A682E4B1B68092000F070F8294B1968D4
:10281000294B1A68294B1B680A2000F067F8254BE2
:102820001968254B1A68254B1B680B2000F05EF8D1
:10283000204B1968204B1A68204B1B680C2000F0B5
:1028400055F81C4B19681C4B1A681C4B1B680D2053
:1028500000F04CF8174B1968174B1A68174B1B6898
:102860000E2000F043F8134B1968134B1A68134BF2
:102870001B680F2000F03AF80E4B19680E4B1A68CF
:102880000E4B1B68102000F031F8002300220021BD
:10289000112000F02BF80A4B1B68184600F0A4FA30
:1028A00000F020FB322000F0D1FD00BF0837BD460C
:1028B00080BD00BF080000200C0000201000002098
:1028C0000400002080B582B000AF78600021054888
:1028D00002F01EFE044B01221A6000BF0837BD46FD
:1028E00080BD00BF100200201004002080B485B01D
:1028F00000AFF860B9607A603B60FB68D9B2104AFB
:10290000FB6802F823107B68D9B20D4AFB689B0074
:1029100013440A465A70BB68D9B2094AFB689B0047
:1029200013440A469A703B68D9B2054AFB689B007B
:1029300013440A46DA7000BF1437BD4680BC7047A6
:102940007003002080B483B000AF78607968184BC2
:1029500083FB01239A10CB17D21A13469B00134412
:102960005B00CA1A134B1A607B68114A82FB031280
:102970009210DB17D31A7B6079680D4B83FB012320
:102980009A10CB17D21A13469B0013445B00CA1A45
:10299000094B1A607B68064A82FB03129210DB1710
:1029A000D31A064A136000BF0C37BD4680BC70477F
:1029B00067666666380300203C0300204003002061
:1029C00080B582B000AF78607B681B68A24A9342F2
:1029D00029D1A24B1B68C72B05DCA04B1B68013318
:1029E0009E4A136011E09E4B1B681A469D4B1A606D
:1029F0009B4B5B681A469C4B1A60994B9B681A4626
:102A00009A4B1A60954B01221A60994B1B68002B58
:102A100004DD974B1B68013B954A1360954B1B687F
:102A20000133944A13607B681B68934A934240F0D9
:102A3000C781924B1B68002B05DD904B1B68013B47
:102A40008E4A1360BCE18E4B1B6840F255229342C4
:102A500000F09B8140F25522934200F3A68140F2A0
:102A60005322934200F08581B3F5157F80F29D815A
:102A7000B3F5DF7F00F39981B3F5D77F11DAB3F5B2
:102A8000BE7F00F02A81B3F5BE7F00F38E81E72B75
:102A900000F38B81D72B2ADA102B6DDC002B4ADA5E
:102AA00083E1A3F5D773012202FA03F34AF6AA22BF
:102AB0001A40002A14BF01220022D2B2002A40F09C
:102AC000398145F255521A40002A14BF01220022D2
:102AD000D2B2002A40F00D8103F48033002B14BFE2
:102AE00001230023DBB2002B40F02F815DE1D73BB7
:102AF000012202FA03F34AF6AA221A40002A14BF5E
:102B000001220022D2B2002A40F0C88045F255527C
:102B10001A40002A14BF01220022D2B2002A7AD120
:102B200003F48033002B14BF01230023DBB2002BFE
:102B300040F0BF8039E11A46012393404AF6AA22A9
:102B40001A40002A14BF01220022D2B2002A37D133
:102B500045F255521A40002A14BF01220022D2B277
:102B6000002A0CD103F48033002B14BF012300236F
:102B7000DBB2002B2FD118E1A52B40D015E10022AC
:102B80004021404801F04AFD4FF480613D4801F08A
:102B90005DFD3D4B1A683D4B1B683D49D200134417
:102BA00051F82330012B05D101228021354801F055
:102BB00035FD00E100228021324801F02FFDFAE0CE
:102BC000324B1B68013B314A13604FF480612D4842
:102BD00001F03CFDEFE04FF480612A4801F036FD42
:102BE00001224021274801F019FD01224FF4005134
:102BF000284801F013FD254B07221A60DBE04FF453
:102C00008061204801F022FD00224FF4005121484C
:102C100001F004FDCFE0002240211A4801F0FEFC43
:102C20004FF48061174801F011FD1B4B1A68174BD8
:102C30001B681749D200134451F82330012B05D1EA
:102C4000012280210F4801F0E9FCB4E0002280213C
:102C50000C4801F0E3FCAEE0000800403403002023
:102C600064030020580300205C0300206003002060
:102C70004C030020500300200004004048030020C3
:102C800044030020000C014040030020000000200D
:102C900014000020001001403C0300204A4B1B6838
:102CA000013B494A13604FF48061484801F0CEFC73
:102CB00081E0454B07221A604FF48061434801F0E0
:102CC000C5FC01224021414801F0A8FC01224FF43B
:102CD00080413F4801F0A2FC6DE04FF480613B4829
:102CE00001F0B4FC00224FF48041394801F096FC19
:102CF00061E000224021354801F090FC4FF48061F2
:102D0000324801F0A3FC334B1A682F4B1B68324941
:102D1000D200134451F82330012B05D10122802128
:102D20002A4801F07BFC46E000228021274801F080
:102D300075FC40E0244B1B68013B234A13604FF4B1
:102D40008061224801F082FC35E04FF480611F4829
:102D500001F07CFC012240211C4801F05FFC0122B3
:102D60004FF400411A4801F059FC174B07221A6032
:102D700021E04FF48061154801F068FC00224FF417
:102D80000041134801F04AFC15E04FF480610F4800
:102D900001F05CFC114B32221A60114B4FF0FF32F4
:102DA0001A60094B07221A6005E04FF4806107485A
:102DB00001F04CFC00BF0A4B1B680133084A13604A
:102DC00000BF0837BD4680BD00000020000C014058
:102DD00000100140380300201400002048030020A8
:102DE0004403002000000000B0B586B000AF78605A
:102DF0007B682D2B01DD2D237B6000237B615FE051
:102E0000354A7B6912F82310344A7B6902F8231093
:102E100001233B614EE07B68C3F15A031846FDF77E
:102E20003FFF0346FB60F868FDF7F6FA28A3D3E9F5
:102E30000023FDF749FB02460B46104619464FF0AA
:102E40000002274BFDF76AFC02460B461046194666
:102E5000FDF71CFE0346FB601F4A7B699B001A447A
:102E60003B6913441B781846FDF7C4FA04460D4627
:102E7000F868FDF7D1FA02460B461046194603F0F2
:102E80002FFB02460B4620462946FDF747FC02462B
:102E90000B4610461946FDF7D9FD0346D9B20F4A35
:102EA0007B699B001A443B6913440A461A703B69CC
:102EB00001333B613B69032BADDD7B6901337B61F2
:102EC0007B69132B9CDD00BF00BF1837BD46B0BD2A
:102ED000F1D4C853FB21094070030020C003002037
:102EE0000080664080B586B000AF00237B61002380
:102EF0003B6136E02E4A3B699B0013445B781A0421
:102F00002B493B699B000B449B781B021A432849C1
:102F10003B699B000B44DB7813437B601723FB600A
:102F200019E00122FB6802FA03F31A467B6813409A
:102F3000002B05D01F4A7B693C2122F8131004E0C6
:102F40001C4A7B691E2122F813107B6901337B61C7
:102F5000FB68013BFB60FB68002BE2DA3B69013355
:102F60003B613B69132BC5DD0023BB600AE0114ABE
:102F70007B69002122F813107B6901337B61BB68F8
:102F80000133BB60BB68312BF1DD7B699BB2094A21
:102F90000021094802F01AF900BF084B1B68002BFA
:102FA000FBD0064B00221A6000BF1837BD4680BD1B
:102FB000C003002014040020100200201004002090
:102FC00080B400AF00BFBD4680BC704780B483B002
:102FD00000AF0E4B9B690D4A43F0010393610B4B0D
:102FE0009B6903F001037B607B68084BDB69074A40
:102FF00043F08053D361054BDB6903F080533B60A2
:103000003B6800BF0C37BD4680BC704700100240D3
:1030100080B58AB000AF786007F1180300221A600B
:103020005A609A60DA607B681B68334A93425FD1CA
:10303000324B9B69314A43F4007393612F4B9B6978
:1030400003F400737B617B692C4B9B692B4A43F033
:1030500004039361294B9B6903F004033B613B69C3
:10306000264B9B69254A43F008039361234B9B69D8
:1030700003F00803FB60FB680323BB610323FB61D0
:1030800007F1180319461E4801F044F90223BB61F9
:103090000323FB6107F1180319461A4801F03AF9B6
:1030A000194B1A4A1A60184B00225A60164B00221C
:1030B0009A60154B8022DA60134B4FF400721A614C
:1030C000114B4FF400625A610F4B20229A610E4B54
:1030D0000022DA610C4800F0B7FE0346002B01D055
:1030E000FFF76EFF7B68084A1A62074A7B685362E3
:1030F00000BF2837BD4680BD0024014000100240BB
:1031000000080140000C0140CC01002008000240F2
:1031100080B586B000AF78607B681B68374A934201
:1031200034D1374B9B69364A43F400639361344B87
:103130009B6903F400637B617B69324B324A1A60FE
:10314000304B10225A602F4B00229A602D4B802268
:10315000DA602C4B4FF480721A612A4B4FF4806274
:103160005A61284B00229A61264B0022DA612548D9
:1031700000F06AFE0346002B01D0FFF721FF7B68B9
:10318000204A5A621F4A7B68536232E07B681B68A0
:103190001E4A934214D11A4BDB69194A43F00203C9
:1031A000D361174BDB6903F002033B613B690022EB
:1031B00000211D2000F011FE1D2000F02AFE18E065
:1031C0007B681B68124A934213D10D4BDB690C4A92
:1031D00043F00403D3610A4BDB6903F00403FB6093
:1031E000FB68002200211E2000F0F7FD1E2000F0E9
:1031F00010FE00BF1837BD4680BD00BF002C014047
:1032000000100240E80200201C00024000040040C0
:103210000008004080B588B000AF786007F1100367
:1032200000221A605A609A60DA607B681B68104A54
:10323000934218D10F4B9B690E4A43F004039361EC
:103240000C4B9B6903F00403FB60FB684FF4807335
:103250003B6102237B610223FB6107F110031946E6
:10326000054801F057F800BF2037BD4680BD00BFBC
:10327000002C0140001002400008014080B400AF63
:1032800000BFBD4680BC704780B400AFFEE780B48D
:1032900000AFFEE780B400AFFEE780B400AFFEE70A
:1032A00080B400AF00BFBD4680BC704780B400AFA3
:1032B00000BFBD4680BC704780B400AF00BFBD46B4
:1032C00080BC704780B500AF00F0A4F800BF80BD9F
:1032D00080B500AF012001F0D3F900BF80BD000030
:1032E00080B500AF024800F0E1FE00BF80BD00BF26
:1032F000CC01002080B500AF024800F0D7FE00BF2F
:1033000080BD00BFE802002080B500AF024802F097
:10331000C5F900BF80BD00BF5802002080B500AFD6
:10332000024802F0BBF900BF80BD00BFA002002030
:1033300080B400AF00BFBD4680BC7047FFF7F8FF08
:103340000B480C490C4A002302E0D458C450043303
:10335000C4188C42F9D3094A094C002301E01360D8
:103360000432A242FBD303F097F8FDF7EDFC70475F
:103370000000002080010020B877000880010020B4
:103380003C080020FEE7000080B500AF084B1B683A
:10339000074A43F010031360032000F013FD0F20D1
:1033A00000F008F8FFF712FE0023184680BD00BFAA
:1033B0000020024080B582B000AF7860124B1A68DE
:1033C000124B1B7819464FF47A73B3FBF1F3B2FB3F
:1033D000F3F3184600F02BFD0346002B01D0012328
:1033E0000EE07B680F2B0AD8002279684FF0FF307F
:1033F00000F0F3FC064A7B681360002300E0012321
:1034000018460837BD4680BD740100207C010020AD
:103410007801002080B400AF054B1B781A46054B9D
:103420001B681344034A136000BFBD4680BC70474D
:103430007C0100203808002080B400AF024B1B68DC
:103440001846BD4680BC70473808002080B584B05F
:1034500000AF7860FFF7F0FFB8607B68FB60FB6847
:10346000B3F1FF3F05D00A4B1B781A46FB681344A3
:10347000FB6000BFFFF7E0FF0246BB68D31AFA68A3
:103480009A42F7D800BF00BF1037BD4680BD00BFCD
:103490007C01002080B586B000AF78600023FB750A
:1034A00000233B610023BB600023FB607B68002B93
:1034B00001D10123BEE07B689B68002B7B689B6A7F
:1034C000002B09D17B680022DA627B68002283F836
:1034D00024207868FFF79CFD786800F0FFFA034627
:1034E000FB757B689B6A03F01003002B40F099800A
:1034F000FB7D002B40F095807B689B6A23F488530A
:1035000023F0020343F002027B689A627B685A68E8
:103510007B68DB691A437B681B7B5B001343BA68DB
:103520001343BB607B689B68B3F5807F03D07B68E7
:103530009B68012B02D14FF4807300E000233A69AD
:1035400013433B617B681B7D012B19D17B681B7B7F
:10355000002B09D17B689B69013B5A033B691343EC
:1035600043F400633B610BE07B689B6A43F02002FD
:103570007B689A627B68DB6A43F001027B68DA62EF
:103580007B681B685B6823F469417B681B683A6948
:103590000A435A607B681B689A68284B13407A6814
:1035A0001268B9680B4393607B689B68B3F5807FB2
:1035B00003D07B689B68012B04D17B681B69013BAE
:1035C0001B05FB607B681B68DB6A23F470017B686A
:1035D0001B68FA680A43DA627B681B689A68184BB2
:1035E0001340BA689A420BD17B680022DA627B688A
:1035F0009B6A23F0030343F001027B689A6218E0A0
:103600007B689B6A23F0120343F010027B689A6286
:103610007B68DB6A43F001027B68DA620123FB7599
:1036200007E07B689B6A43F010027B689A62012383
:10363000FB75FB7D18461837BD4680BDFDF7E1FFE1
:10364000FE0E1FFF80B586B000AFF860B9607A60EB
:103650000023FB75FB681B68644A934204D0FB6837
:103660001B68634A934206D1604B5B6803F4702386
:10367000002B40F0B380FB6893F82430012B01D17C
:103680000223AEE0FB68012283F82420F86800F0F2
:10369000CBF90346FB75FB7D002B40F09A80FB685D
:1036A0009B6A23F4706323F0010343F48072FB6888
:1036B0009A62FB681B684E4A934205D14B4B5B688C
:1036C00003F47023002B15D1FB689B6A23F480124E
:1036D000FB689A62FB681B685B6803F48063002BDD
:1036E00026D0FB689B6A23F4405343F48052FB6866
:1036F0009A621DE0FB689B6A43F48012FB689A6241
:10370000FB681B68394A934204D0FB681B68384A3F
:1037100093420DD1354B5B6803F48063002B07D0D7
:10372000FB689B6A23F4405343F48052FB689A621F
:10373000FB689B6A03F48053002B06D0FB68DB6AAE
:1037400023F00602FB68DA6202E0FB680022DA621C
:10375000FB68002283F82420FB681B6A254A9A62D2
:10376000FB681B6A244ADA62FB681B6A234A1A63F5
:10377000FB681B686FF002021A60FB681B689A689E
:10378000FB681B6842F480729A60FB68186AFB68E9
:103790001B684C331946BA687B6800F0AFFBFB68C6
:1037A0001B689B6803F46023B3F5602F08D1FB68A6
:1037B0001B689A68FB681B6842F4A0029A600FE0DD
:1037C000FB681B689A68FB681B6842F480129A6069
:1037D00006E0FB68002283F8242001E00123FB754A
:1037E000FB7D18461837BD4680BD00BF0024014050
:1037F000002801405F3B0008DB3B0008F73B000866
:1038000080B483B000AF786000BF0C37BD4680BC89
:10381000704780B483B000AF786000BF0C37BD46FE
:1038200080BC704780B483B000AF786000BF0C37B5
:10383000BD4680BC7047000080B485B000AF7860A2
:1038400039600023FB730023BB607B6893F824304E
:10385000012B01D10223DCE07B68012283F82420C4
:103860003B685B68062B1CD87B681B68596B3B6800
:103870005A6813469B001344053B1F2202FA03F3C8
:10388000DB4319403B6818683B685A6813469B0045
:103890001344053B00FA03F27B681B680A435A6332
:1038A0003CE03B685B680C2B1CD87B681B68196B81
:1038B0003B685A6813469B001344233B1F2202FABD
:1038C00003F3DB4319403B6818683B685A681346AA
:1038D0009B001344233B00FA03F27B681B680A43F6
:1038E0001A631BE07B681B68D96A3B685A681346F9
:1038F0009B001344413B1F2202FA03F3DB431940B0
:103900003B6818683B685A6813469B001344413B68
:1039100000FA03F27B681B680A43DA623B681B68A3
:10392000092B1CD97B681B68D9683B681A68134649
:103930005B0013441E3B072202FA03F3DB431940EA
:103940003B6898683B681A6813465B0013441E3B4B
:1039500000FA03F27B681B680A43DA6019E07B68AF
:103960001B6819693B681A6813465B0013440722F9
:1039700002FA03F3DB4319403B6898683B681A6816
:1039800013465B00134400FA03F27B681B680A438A
:103990001A613B681B68102B03D03B681B68112B16
:1039A00032D17B681B681D4A934225D17B681B6816
:1039B0009B6803F40003002B26D17B681B689A6880
:1039C0007B681B6842F400029A603B681B68102BFE
:1039D0001AD1134B1B68134AA2FB03239A0C1346FC
:1039E0009B0013445B00BB6002E0BB68013BBB6013
:1039F000BB68002BF9D107E07B689B6A43F020028B
:103A00007B689A620123FB737B68002283F8242081
:103A1000FB7B18461437BD4680BC7047002401402C
:103A20007401002083DE1B4380B584B000AF786052
:103A30000023FB600023BB607B681B689B6803F06E
:103A40000103012B40D07B681B689A687B681B6868
:103A500042F001029A601F4B1B681F4AA2FB03231E
:103A60009B0CBB6002E0BB68013BBB60BB68002BEA
:103A7000F9D1FFF7E1FCF8601FE0FFF7DDFC02463B
:103A8000FB68D31A022B18D97B681B689B6803F06C
:103A90000103012B11D07B689B6A43F010027B6805
:103AA0009A627B68DB6A43F001027B68DA627B68BA
:103AB000002283F82420012307E07B681B689B68B1
:103AC00003F00103012BD8D1002318461037BD465F
:103AD00080BD00BF7401002083DE1B4380B584B02D
:103AE00000AF78600023FB607B681B689B6803F075
:103AF0000103012B2ED17B681B689A687B681B68C9
:103B000022F001029A60FFF797FCF8601BE0FFF7D4
:103B100093FC0246FB68D31A022B14D97B681B68FE
:103B20009B6803F00103012B0DD17B689B6A43F076
:103B300010027B689A627B68DB6A43F001027B6853
:103B4000DA62012307E07B681B689B6803F00103CE
:103B5000012BDCD0002318461037BD4680BD80B550
:103B600084B000AF78607B685B6AFB60FB689B6A2F
:103B700003F05003002B27D1FB689B6A43F40072CB
:103B8000FB689A62FB681B689B6803F46023B3F5CB
:103B9000602F15D1FB681B7B002B11D1FB689B6A42
:103BA00023F48072FB689A62FB689B6A03F480537B
:103BB000002B05D1FB689B6A43F00102FB689A6207
:103BC000F868FFF71DFE04E0FB681B6A1B6B786852
:103BD000984700BF1037BD4680BD80B584B000AFA8
:103BE00078607B685B6AFB60F868FFF712FE00BFD5
:103BF0001037BD4680BD80B584B000AF78607B686B
:103C00005B6AFB60FB689B6A43F04002FB689A6258
:103C1000FB68DB6A43F00402FB68DA62F868FFF7CE
:103C200001FE00BF1037BD4680BD000080B485B0E6
:103C300000AF78607B6803F00703FB600C4BDB6828
:103C4000BB60BA684FF6FF031340BB60FB681A0203
:103C5000BB68134343F0BF6343F40033BB60044AC3
:103C6000BB68D36000BF1437BD4680BC704700BF3F
:103C700000ED00E080B400AF044BDB681B0A03F0EA
:103C800007031846BD4680BC704700BF00ED00E04A
:103C900080B483B000AF0346FB7197F90730002B67
:103CA0000BDBFB7903F01F02064997F907305B092C
:103CB000012000FA02F241F8232000BF0C37BD4674
:103CC00080BC704700E100E080B483B000AF0346E1
:103CD0003960FB7197F90730002B0ADB3B68DAB2D9
:103CE0000C4997F907301201D2B20B4483F8002334
:103CF0000AE03B68DAB20849FB7903F00F03043BA2
:103D00001201D2B20B441A7600BF0C37BD4680BCFC
:103D1000704700BF00E100E000ED00E080B489B032
:103D200000AFF860B9607A60FB6803F00703FB61DD
:103D3000FB69C3F10703042B28BF0423BB61FB69A4
:103D40000433062B02D9FB69033B00E000237B61AF
:103D50004FF0FF32BB6902FA03F3DA43BB681A4043
:103D60007B699A404FF0FF317B6901FA03F3D94335
:103D70007B680B40134318462437BD4680BC704710
:103D800080B582B000AF78607B68013BB3F1807F83
:103D900001D301230FE00A4A7B68013B53600F21E6
:103DA0004FF0FF30FFF790FF054B00229A60044B65
:103DB00007221A60002318460837BD4680BD00BFA1
:103DC00010E000E080B582B000AF78607868FFF75F
:103DD0002DFF00BF0837BD4680BD80B586B000AF5F
:103DE0000346B9607A60FB7300237B61FFF742FFF3
:103DF00078617A68B9687869FFF790FF024697F9A9
:103E00000F3011461846FFF75FFF00BF1837BD4659
:103E100080BD80B582B000AF0346FB7197F90730D3
:103E20001846FFF735FF00BF0837BD4680BD80B597
:103E300082B000AF78607868FFF7A2FF03461846AB
:103E40000837BD4680BD000080B485B000AF786003
:103E50000023FB607B68002B01D1012343E07B68DA
:103E60001B681A46224B1344224AA2FB03231B0958
:103E70009A007B681A647B681F4ADA637B680222B7
:103E800083F821207B681B681B68FB60FB6823F4B8
:103E90007F5323F03003FB607B685A687B689B6824
:103EA0001A437B68DB681A437B681B691A437B688B
:103EB0005B691A437B689B691A437B68DB69134320
:103EC000FA681343FB607B681B68FA681A607B68BA
:103ED00000229A637B68012283F821207B680022FC
:103EE00083F82020002318461437BD4680BC704755
:103EF000F8FFFDBFCDCCCCCC0000024080B586B031
:103F000000AFF860B9607A603B600023FB75FB6826
:103F100093F82030012B01D102234BE0FB680122F2
:103F200083F82020FB6893F82130DBB2012B3AD1D3
:103F3000FB68022283F82120FB6800229A63FB6859
:103F40001B681A68FB681B6822F001021A603B6854
:103F50007A68B968F86800F0AFF9FB68DB6A002B93
:103F600008D0FB681B681A68FB681B6842F00E02E9
:103F70001A600FE0FB681B681A68FB681B6822F078
:103F800004021A60FB681B681A68FB681B6842F031
:103F90000A021A60FB681B681A68FB681B6842F01B
:103FA00001021A6005E0FB68002283F8202002234A
:103FB000FB75FB7D18461837BD4680BD80B584B0C3
:103FC00000AF78600023FB737B6893F82130DBB28D
:103FD000022B05D07B6804229A630123FB7351E016
:103FE0007B681B681A687B681B6822F00E021A60E7
:103FF0007B681B681A687B681B6822F001021A60E4
:104000007B681B68224A934229D07B681B68214A3F
:10401000934222D07B681B681F4A93421AD07B6868
:104020001B681E4A934212D07B681B681C4A93424D
:104030000AD07B681B681B4A934202D14FF480135D
:104040000EE04FF080730BE04FF4803308E04FF444
:10405000805305E04FF4807302E0102300E0012359
:10406000114A53607B68012283F821207B6800227B
:1040700083F820207B685B6B002B03D07B685B6B35
:1040800078689847FB7B18461037BD4680BD00BF57
:10409000080002401C000240300002404400024080
:1040A000580002406C0002400000024080B584B01D
:1040B00000AF78607B68DB6B1B68FB607B681B680C
:1040C0001B68BB607B681B6C04229A40FB68134032
:1040D000002B4FD0BB6803F00403002B4AD07B6851
:1040E0001B681B6803F02003002B07D17B681B684B
:1040F0001A687B681B6822F004021A607B681B68E0
:10410000664A934229D07B681B68654A934222D055
:104110007B681B68634A93421AD07B681B68624ABB
:10412000934212D07B681B68604A93420AD07B6836
:104130001B685F4A934202D14FF480030EE04FF0B8
:1041400080630BE04FF4802308E04FF4804305E0E8
:104150004FF4806302E0402300E00423554A53609B
:104160007B68DB6A002B00F094807B68DB6A7868F0
:1041700098478EE07B681B6C02229A40FB681340D4
:10418000002B56D0BB6803F00203002B51D07B6894
:104190001B681B6803F02003002B0BD17B681B6896
:1041A0001A687B681B6822F00A021A607B68012289
:1041B00083F821207B681B68384A934229D07B68AA
:1041C0001B68374A934222D07B681B68354A93426A
:1041D0001AD07B681B68344A934212D07B681B68F4
:1041E000324A93420AD07B681B68314A934202D11B
:1041F0004FF400130EE04FF000730BE04FF4003368
:1042000008E04FF4005305E04FF4007302E0202370
:1042100000E00223274A53607B68002283F82020B5
:104220007B689B6A002B34D07B689B6A78689847D0
:104230002FE07B681B6C08229A40FB681340002B20
:1042400028D0BB6803F00803002B23D07B681B68D1
:104250001A687B681B6822F00E021A607B681A6C71
:104260007B68DB6B012101FA02F25A607B68012254
:104270009A637B68012283F821207B68002283F8FF
:1042800020207B681B6B002B04D07B681B6B78683D
:10429000984700BF00BF1037BD4680BD08000240F0
:1042A0001C0002403000024044000240580002401E
:1042B0006C0002400000024080B485B000AFF8609E
:1042C000B9607A603B60FB681A6CFB68DB6B0121AC
:1042D00001FA02F25A60FB681B683A685A60FB6890
:1042E0005B68102B08D1FB681B687A689A60FB68D2
:1042F0001B68BA68DA6007E0FB681B68BA689A60F6
:10430000FB681B687A68DA6000BF1437BD4680BC62
:104310007047000080B48BB000AF78603960002334
:104320007B6200233B6269E101227B6A02FA03F3AC
:10433000FB613B681B68FA691340BB61BA69FB69A2
:104340009A4240F058813B685B689A4A93425ED03B
:10435000984A934275D8984A934258D0964A9342C5
:104360006FD8964A934252D0944A934269D8944A5D
:1043700093424CD0924A934263D8924A934246D099
:10438000904A93425DD8122B2AD8122B59D801A2F9
:1043900052F823F00F440008E9430008FB430008EB
:1043A0003D440008434400084344000843440008D7
:1043B00043440008434400084344000843440008C1
:1043C00043440008434400084344000843440008B1
:1043D0004344000843440008F14300080544000832
:1043E000794A934213D02CE03B68DB683B6229E0BA
:1043F0003B68DB6804333B6224E03B68DB680833DE
:104400003B621FE03B68DB680C333B621AE03B68B1
:104410009B68002B02D104233B6213E03B689B683E
:10442000012B05D108233B627B68FA691A6109E018
:1044300008233B627B68FA695A6103E000233B6210
:1044400000E000BFBB69FF2B01D87B6801E07B68FF
:1044500004337B61BB69FF2B02D87B6A9B0002E0BF
:104460007B6A083B9B003B617B691A680F213B69B3
:1044700001FA03F3DB431A40396A3B6901FA03F39B
:104480001A437B691A603B685B6803F08053002B1A
:1044900000F0B1804D4B9B694C4A43F0010393619E
:1044A0004A4B9B6903F00103BB60BB68484A7B6AC7
:1044B0009B08023352F82330FB607B6A03F003034E
:1044C0009B000F2202FA03F3DB43FA681340FB6000
:1044D0007B68404A934213D07B683F4A93420DD099
:1044E0007B683E4A934207D07B683D4A934201D1A4
:1044F000032306E0042304E0022302E0012300E09A
:1045000000237A6A02F0030292009340FA68134390
:10451000FB602F497B6A9B080233FA6841F823202D
:104520003B685B6803F48013002B06D02D4B9A6820
:104530002C49BB6913438B6006E02A4B9A68BB6920
:10454000DB43284913408B603B685B6803F400132E
:10455000002B06D0234BDA682249BB691343CB609A
:1045600006E0204BDA68BB69DB431E491340CB6091
:104570003B685B6803F40033002B06D0194B5A6884
:104580001849BB6913434B6006E0164B5A68BB6978
:10459000DB43144913404B603B685B6803F4803392
:1045A000002B21D00F4B1A680E49BB6913430B60D7
:1045B00021E000BF00003210000031100000221086
:1045C0000000211000001210000011100010024025
:1045D0000000014000080140000C014000100140B3
:1045E00000140140000401400B4B1A68BB69DB4317
:1045F000094913400B607B6A01337B623B681A6890
:104600007B6A22FA03F3002B7FF48EAE00BF00BF5B
:104610002C37BD4680BC70470004014080B483B095
:1046200000AF78600B467B8013467B707B78002B55
:1046300003D07A887B681A6103E07B881A047B6860
:104640001A6100BF0C37BD4680BC704780B485B08E
:1046500000AF78600B467B807B68DB68FB607A8804
:10466000FB6813401A04FB68D9437B880B401A434C
:104670007B681A6100BF1437BD4680BC70470000DC
:1046800080B582B000AF0346FB80084B5A69FB88B7
:104690001340002B06D0054AFB885361FB8818465F
:1046A000FCF740FE00BF0837BD4680BD0004014056
:1046B00080B586B000AF78607B68002B01D1012304
:1046C00072E27B681B6803F00103002B00F0878017
:1046D000924B5B6803F00C03042B0CD08F4B5B6890
:1046E00003F00C03082B12D18C4B5B6803F480336E
:1046F000B3F5803F0BD1894B1B6803F40033002BCB
:104700006CD07B685B68002B68D101234CE27B682E
:104710005B68B3F5803F06D1804B1B687F4A43F44A
:10472000803313602EE07B685B68002B0CD17B4BE1
:104730001B687A4A23F480331360784B1B68774AEE
:1047400023F4802313601DE07B685B68B3F5A02F22
:104750000CD1724B1B68714A43F4802313606F4B7A
:104760001B686E4A43F4803313600BE06B4B1B688D
:104770006A4A23F480331360684B1B68674A23F44A
:10478000802313607B685B68002B13D0FEF754FE18
:10479000386108E0FEF750FE02463B69D31A642BED
:1047A00001D9032300E25D4B1B6803F40033002BA7
:1047B000F0D014E0FEF740FE386108E0FEF73CFE62
:1047C00002463B69D31A642B01D90323ECE1534B16
:1047D0001B6803F40033002BF0D100E000BF7B68BE
:1047E0001B6803F00203002B63D04C4B5B6803F0A3
:1047F0000C03002B0BD0494B5B6803F00C03082B18
:104800001CD1464B5B6803F48033002B16D1434B1D
:104810001B6803F00203002B05D07B681B69012B8A
:1048200001D00123C0E13D4B1B6823F0F8027B68F7
:104830005B69DB00394913430B603AE07B681B6915
:10484000002B20D0364B01221A60FEF7F5FD3861AF
:1048500008E0FEF7F1FD02463B69D31A022B01D9AD
:104860000323A1E12D4B1B6803F00203002BF0D0C2
:104870002A4B1B6823F0F8027B685B69DB00274941
:1048800013430B6015E0264B00221A60FEF7D4FD9F
:10489000386108E0FEF7D0FD02463B69D31A022BCF
:1048A00001D9032380E11D4B1B6803F00203002B99
:1048B000F0D17B681B6803F00803002B3AD07B68BB
:1048C0009B69002B19D0174B01221A60FEF7B4FD2B
:1048D000386108E0FEF7B0FD02463B69D31A022BAF
:1048E00001D9032360E10D4B5B6A03F00203002B47
:1048F000F0D0012000F09CFA1CE00A4B00221A6064
:10490000FEF79AFD38610FE0FEF796FD02463B691F
:10491000D31A022B08D9032346E100BF001002403E
:104920000000424280044242924B5B6A03F0020361
:10493000002BE9D17B681B6803F00403002B00F017
:10494000A6800023FB758B4BDB6903F08053002BA3
:104950000DD1884BDB69874A43F08053D361854B87
:10496000DB6903F08053BB60BB680123FB75824B9E
:104970001B6803F48073002B18D17F4B1B687E4AA1
:1049800043F480731360FEF757FD386108E0FEF7CB
:1049900053FD02463B69D31A642B01D9032303E17B
:1049A000754B1B6803F48073002BF0D07B68DB68C9
:1049B000012B06D16F4B1B6A6E4A43F00103136251
:1049C0002DE07B68DB68002B0CD16A4B1B6A694ABF
:1049D00023F001031362674B1B6A664A23F004034A
:1049E00013621CE07B68DB68052B0CD1614B1B6AF2
:1049F000604A43F0040313625E4B1B6A5D4A43F056
:104A0000010313620BE05B4B1B6A5A4A23F001035C
:104A10001362584B1B6A574A23F0040313627B68E6
:104A2000DB68002B15D0FEF707FD38610AE0FEF7C2
:104A300003FD02463B69D31A41F28832934201D901
:104A40000323B1E04B4B1B6A03F00203002BEED0B3
:104A500014E0FEF7F1FC38610AE0FEF7EDFC0246D7
:104A60003B69D31A41F28832934201D903239BE078
:104A7000404B1B6A03F00203002BEED1FB7D012BA0
:104A800005D13C4BDB693B4A23F08053D3617B6803
:104A9000DB69002B00F08780364B5B6803F00C036A
:104AA000082B61D07B68DB69022B46D1334B002297
:104AB0001A60FEF7C1FC386108E0FEF7BDFC024653
:104AC0003B69D31A022B01D903236DE0294B1B68E4
:104AD00003F00073002BF0D17B681B6AB3F5803FB5
:104AE00008D1244B5B6823F400327B689B68214922
:104AF00013434B601F4B5B6823F474127B68196A85
:104B00007B685B6A0B431B4913434B601B4B0122C1
:104B10001A60FEF791FC386108E0FEF78DFC024652
:104B20003B69D31A022B01D903233DE0114B1B68CB
:104B300003F00073002BF0D035E0104B00221A6018
:104B4000FEF77AFC386108E0FEF776FC02463B6926
:104B5000D31A022B01D9032326E0064B1B6803F06E
:104B60000073002BF0D11EE07B68DB69012B07D1BD
:104B7000012319E000100240007000406000424232
:104B80000B4B5B68FB60FB6803F480327B681B6A3D
:104B90009A4206D1FB6803F470127B685B6A9A4202
:104BA00001D0012300E0002318461837BD4680BD20
:104BB0000010024080B584B000AF786039607B6837
:104BC000002B01D10123D0E06A4B1B6803F00703DF
:104BD0003A689A4210D9674B1B6823F0070265496F
:104BE0003B6813430B60634B1B6803F007033A6891
:104BF0009A4201D00123B8E07B681B6803F00203EE
:104C0000002B20D07B681B6803F00403002B05D029
:104C1000594B5B68584A43F4E06353607B681B68F8
:104C200003F00803002B05D0534B5B68524A43F452
:104C300060535360504B5B6823F0F0027B689B68C5
:104C40004D4913434B607B681B6803F00103002B45
:104C500040D07B685B68012B07D1474B1B6803F48E
:104C60000033002B15D101237FE07B685B68022BAA
:104C700007D1414B1B6803F00073002B09D10123BE
:104C800073E03D4B1B6803F00203002B01D10123AD
:104C90006BE0394B5B6823F003027B685B68364945
:104CA00013434B60FEF7C8FBF8600AE0FEF7C4FB55
:104CB0000246FB68D31A41F28832934201D903239A
:104CC00053E02D4B5B6803F00C027B685B689B0034
:104CD0009A42EBD1274B1B6803F007033A689A42CC
:104CE00010D2244B1B6823F0070222493B68134370
:104CF0000B60204B1B6803F007033A689A4201D00F
:104D0000012332E07B681B6803F00403002B08D00A
:104D1000194B5B6823F4E0627B68DB681649134338
:104D20004B607B681B6803F00803002B09D0124B13
:104D30005B6823F460527B681B69DB000E491343F8
:104D40004B6000F021F802460B4B5B681B0903F037
:104D50000F030A49CB5C22FA03F3094A1360094B9B
:104D60001B681846FEF726FB002318461037BD4681
:104D700080BD00BF0020024000100240B075000856
:104D8000740100207801002080B487B000AF0023B8
:104D9000FB600023BB6000237B6100237B6000235A
:104DA0003B611E4B5B68FB60FB6803F00C03042B4C
:104DB00002D0082B03D027E0194B3B6127E0FB68AA
:104DC0009B0C03F00F03174AD35C7B60FB6803F472
:104DD0008033002B10D0114B5B685B0C03F0010398
:104DE000114AD35CBB607B680D4A03FB02F2BB68CF
:104DF000B2FBF3F37B6104E07B680C4A02FB03F334
:104E00007B617B693B6102E0054B3B6100BF3B6915
:104E100018461C37BD4680BC704700BF00100240DA
:104E200000127A00C0750008D075000800093D0026
:104E300080B485B000AF78600A4B1B680A4AA2FBB9
:104E400003235B0A7A6802FB03F3FB6000BFFB6885
:104E50005A1EFA60002BF9D100BF00BF1437BD46BF
:104E600080BC704774010020D34D621080B586B0BD
:104E700000AF786000233B610023FB607B681B6808
:104E800003F00103002B7DD00023FB754F4BDB6942
:104E900003F08053002B0DD14C4BDB694B4A43F0A0
:104EA0008053D361494BDB6903F08053BB60BB681F
:104EB0000123FB75464B1B6803F48073002B18D14C
:104EC000434B1B68424A43F480731360FEF7B4FA05
:104ED000386108E0FEF7B0FA02463B69D31A642B4A
:104EE00001D903236DE03A4B1B6803F48073002B58
:104EF000F0D0364B1B6A03F44073FB60FB68002B59
:104F00002ED07B685B6803F44073FA689A4227D01E
:104F10002E4B1B6A23F44073FB602E4B01221A6058
:104F20002C4B00221A60294AFB681362FB6803F0CD
:104F30000103002B14D0FEF77FFA38610AE0FEF778
:104F40007BFA02463B69D31A41F28832934201D977
:104F5000032336E01D4B1B6A03F00203002BEED047
:104F60001A4B1B6A23F440727B685B681749134332
:104F70000B62FB7D012B05D1144BDB69134A23F037
:104F80008053D3617B681B6803F00203002B08D0B9
:104F90000E4B5B6823F440427B689B680B491343CC
:104FA0004B607B681B6803F01003002B08D0074B95
:104FB0005B6823F480027B68DB68044913434B6021
:104FC000002318461837BD4680BD00BF00100240C0
:104FD000007000404004424280B582B000AF78606B
:104FE0007B68002B01D1012341E07B6893F83D30C1
:104FF000DBB2002B06D17B68002283F83C20786866
:10500000FEF786F87B68022283F83D207B681A68E9
:105010007B6804331946104600F0D0FE7B680122FD
:1050200083F846207B68012283F83E207B680122BA
:1050300083F83F207B68012283F840207B680122AF
:1050400083F841207B68012283F842207B6801229B
:1050500083F843207B68012283F844207B68012287
:1050600083F845207B68012283F83D200023184601
:105070000837BD4680BD000080B485B000AF7860C1
:105080007B6893F83D30DBB2012B01D001233AE07D
:105090007B68022283F83D207B681B68DA687B68A6
:1050A0001B6842F00102DA607B681B68184A934271
:1050B0000ED07B681B68B3F1804F09D07B681B68FA
:1050C000144A934204D07B681B68134A934211D15F
:1050D0007B681B689B6803F00703FB60FB68062B7B
:1050E00010D07B681B681A687B681B6842F001025D
:1050F0001A6007E07B681B681A687B681B6842F0CF
:1051000001021A60002318461437BD4680BC704760
:10511000002C0140000400400008004080B582B02F
:1051200000AF78607B68002B01D1012341E07B68F0
:1051300093F83D30DBB2002B06D17B68002283F868
:105140003C20786800F039F87B68022283F83D2023
:105150007B681A687B6804331946104600F02EFEFF
:105160007B68012283F846207B68012283F83E2079
:105170007B68012283F83F207B68012283F840206E
:105180007B68012283F841207B68012283F842205A
:105190007B68012283F843207B68012283F8442046
:1051A0007B68012283F845207B68012283F83D203B
:1051B000002318460837BD4680BD80B483B000AFD9
:1051C000786000BF0C37BD4680BC704780B586B0A4
:1051D00000AFF860B9607A607B800023FB75BB6824
:1051E000002B09D1FB6893F83E30DBB2022B0CBFD9
:1051F00001230023DBB222E0BB68042B09D1FB684A
:1052000093F83F30DBB2022B0CBF01230023DBB24B
:1052100015E0BB68082B09D1FB6893F84030DBB27E
:10522000022B0CBF01230023DBB208E0FB6893F8DC
:105230004130DBB2022B0CBF01230023DBB2002B79
:1052400001D0022353E1BB68002B09D1FB6893F81E
:105250003E30DBB2012B0CBF01230023DBB222E086
:10526000BB68042B09D1FB6893F83F30DBB2012BFC
:105270000CBF01230023DBB215E0BB68082B09D16A
:10528000FB6893F84030DBB2012B0CBF01230023F5
:10529000DBB208E0FB6893F84130DBB2012B0CBFB6
:1052A00001230023DBB2002B24D07B68002B02D02B
:1052B0007B88002B01D1012319E1BB68002B04D1AD
:1052C000FB68022283F83E2016E0BB68042B04D161
:1052D000FB68022283F83F200EE0BB68082B04D154
:1052E000FB68022283F8402006E0FB68022283F874
:1052F000412001E00123FAE0BB680C2B00F2AE80F4
:1053000001A252F823F000BF3D5300085D5400088D
:105310005D5400085D540008855300085D54000882
:105320005D5400085D540008CD5300085D5400082A
:105330005D5400085D54000815540008FB685B6A62
:105340006D4A9A62FB685B6A6C4ADA62FB685B6A68
:105350006B4A1A63FB68586A7968FB681B683433C8
:105360001A467B88FEF7CAFD0346002B01D00123B5
:10537000BDE0FB681B68DA68FB681B6842F40072DA
:10538000DA606EE0FB689B6A5B4A9A62FB689B6A24
:105390005A4ADA62FB689B6A594A1A63FB68986A40
:1053A0007968FB681B6838331A467B88FEF7A6FDD0
:1053B0000346002B01D0012399E0FB681B68DA68E3
:1053C000FB681B6842F48062DA604AE0FB68DB6AD3
:1053D000494A9A62FB68DB6A484ADA62FB68DB6A20
:1053E000474A1A63FB68D86A7968FB681B683C33D4
:1053F0001A467B88FEF782FD0346002B01D001236D
:1054000075E0FB681B68DA68FB681B6842F40062A1
:10541000DA6026E0FB681B6B374A9A62FB681B6BFD
:10542000364ADA62FB681B6B354A1A63FB68186BF5
:105430007968FB681B6840331A467B88FEF75EFD7F
:105440000346002B01D0012351E0FB681B68DA689A
:10545000FB681B6842F48052DA6002E00123FB75AE
:1054600000BFFB7D002B41D1FB681B680122B9689E
:10547000184600F023FFFB681B68224A934207D1BD
:10548000FB681B685A6CFB681B6842F400425A6454
:10549000FB681B681B4A93420ED0FB681B68B3F184
:1054A000804F09D0FB681B68174A934204D0FB6801
:1054B0001B68164A934211D1FB681B689B6803F076
:1054C00007033B613B69062B10D0FB681B681A6819
:1054D000FB681B6842F001021A6007E0FB681B686A
:1054E0001A68FB681B6842F001021A60FB7D1846CF
:1054F0001837BD4680BD00BFAB5C0008535D000897
:10550000195C0008002C0140000400400008004025
:1055100080B584B000AF786039600023FB733B68CE
:105520000C2B55D801A252F823F000BF615500089A
:10553000D1550008D1550008D15500087D55000807
:10554000D1550008D1550008D155000899550008DB
:10555000D1550008D1550008D1550008B5550008AF
:105560007B681B68DA687B681B6822F40072DA606B
:105570007B685B6A1846FEF721FD2CE07B681B68A0
:10558000DA687B681B6822F48062DA607B689B6A59
:105590001846FEF713FD1EE07B681B68DA687B681F
:1055A0001B6822F40062DA607B68DB6A1846FEF74B
:1055B00005FD10E07B681B68DA687B681B6822F4D5
:1055C0008052DA607B681B6B1846FEF7F7FC02E03E
:1055D0000123FB7300BFFB7B002B57D17B681B684B
:1055E00000223968184600F069FE7B681B682A4A69
:1055F000934217D17B681B681A6A41F2111313405A
:10560000002B0FD17B681B681A6A40F24443134099
:10561000002B07D17B681B685A6C7B681B6822F4DF
:1056200000425A647B681B681A6A41F211131340E6
:10563000002B0FD17B681B681A6A40F24443134069
:10564000002B07D17B681B681A687B681B6822F0F7
:1056500001021A603B68002B04D17B68012283F8A9
:105660003E2013E03B68042B04D17B68012283F8C1
:105670003F200BE03B68082B04D17B68012283F8B4
:10568000402003E07B68012283F84120FB7B184621
:105690001037BD4680BD00BF002C014080B582B0F0
:1056A00000AF78607B681B681B6903F00203022B64
:1056B00022D17B681B68DB6803F00203022B1BD13D
:1056C0007B681B686FF002021A617B6801221A77FF
:1056D0007B681B689B6903F00303002B03D0786889
:1056E00000F076FA05E0786800F069FA7868FDF76E
:1056F000E9F87B6800221A777B681B681B6903F056
:105700000403042B22D17B681B68DB6803F00403CD
:10571000042B1BD17B681B686FF004021A617B6845
:1057200002221A777B681B689B6903F44073002B85
:1057300003D0786800F04CFA05E0786800F03FFA92
:105740007868FDF7BFF87B6800221A777B681B68D2
:105750001B6903F00803082B22D17B681B68DB68F8
:1057600003F00803082B1BD17B681B686FF008024D
:105770001A617B6804221A777B681B68DB6903F077
:105780000303002B03D0786800F022FA05E0786864
:1057900000F015FA7868FDF795F87B6800221A7713
:1057A0007B681B681B6903F01003102B22D17B68F8
:1057B0001B68DB6803F01003102B1BD17B681B6890
:1057C0006FF010021A617B6808221A777B681B68E9
:1057D000DB6903F44073002B03D0786800F0F8F91C
:1057E00005E0786800F0EBF97868FDF76BF87B6806
:1057F00000221A777B681B681B6903F00103012BE9
:105800000ED17B681B68DB6803F00103012B07D115
:105810007B681B686FF001021A617868FDF7D0F8A9
:105820007B681B681B6903F08003802B0ED17B68AB
:105830001B68DB6803F08003802B07D17B681B6843
:105840006FF080021A61786800F014FE7B681B68B4
:105850001B6903F04003402B0ED17B681B68DB689B
:1058600003F04003402B07D17B681B686FF04002B8
:105870001A61786800F0BEF97B681B681B6903F049
:105880002003202B0ED17B681B68DB6803F020030C
:10589000202B07D17B681B686FF020021A617868A3
:1058A00000F0DFFD00BF0837BD4680BD80B586B083
:1058B00000AFF860B9607A600023FB75FB6893F86D
:1058C0003C30012B01D10223AEE0FB68012283F8BA
:1058D0003C207B680C2B00F29F8001A252F823F041
:1058E00015590008195A0008195A0008195A0008D1
:1058F00055590008195A0008195A0008195A000881
:1059000097590008195A0008195A0008195A00082E
:10591000D7590008FB681B68B968184600F0B0FA50
:10592000FB681B689A69FB681B6842F008029A6171
:10593000FB681B689A69FB681B6822F004029A6185
:10594000FB681B689969BB681A69FB681B680A4396
:105950009A6164E0FB681B68B968184600F0F6FAC3
:10596000FB681B689A69FB681B6842F400629A61D5
:10597000FB681B689A69FB681B6822F480629A6165
:10598000FB681B689969BB681B691A02FB681B6886
:105990000A439A6143E0FB681B68B968184600F047
:1059A0003FFBFB681B68DA69FB681B6842F0080272
:1059B000DA61FB681B68DA69FB681B6822F0040285
:1059C000DA61FB681B68D969BB681A69FB681B68E8
:1059D0000A43DA6123E0FB681B68B968184600F0E7
:1059E00089FBFB681B68DA69FB681B6842F400628C
:1059F000DA61FB681B68DA69FB681B6822F4806265
:105A0000DA61FB681B68D969BB681B691A02FB680D
:105A10001B680A43DA6102E00123FB7500BFFB68E3
:105A2000002283F83C20FB7D18461837BD4680BD18
:105A300080B584B000AF786039600023FB737B6869
:105A400093F83C30012B01D10223B4E07B680122A2
:105A500083F83C207B68022283F83D207B681B682A
:105A60009B68BB60BB6823F07703BB60BB6823F413
:105A70007F43BB607B681B68BA689A603B681B68A1
:105A8000B3F5005F3ED0B3F5005F00F28780B3F559
:105A9000805F00F08680B3F5805F7FD8702B1AD0CE
:105AA000702B7BD8602B50D0602B77D8502B3CD0FC
:105AB000502B73D8402B58D0402B6FD8302B64D04C
:105AC000302B6BD8202B60D0202B67D8002B5CD0DC
:105AD000102B5AD062E07B6818683B6899683B6875
