:020000040800F2
:100000000050002059A90008ADA80008B9A80008B0
:10001000BFA80008C5A80008CBA800080000000081
:10002000000000000000000000000000D1A800084F
:10003000DDA8000800000000E9A80008F5A80008F5
:10004000A1A90008A1A90008A1A90008A1A9000868
:10005000A1A90008A1A9000801A90008A1A90008F8
:10006000A1A90008A1A90008A1A90008A1A9000848
:1000700011A90008A1A90008A1A90008A1A90008C8
:10008000A1A90008A1A90008A1A90008A1A9000828
:10009000A1A90008A1A90008A1A90008A1A9000818
:1000A000A1A90008A1A90008A1A90008A1A9000808
:1000B000A1A9000825A9000839A90008A1A90008DC
:1000C000A1A90008A1A90008A1A90008A1A90008E8
:1000D000A1A90008A1A90008A1A90008A1A90008D8
:1000E000A1A90008A1A90008A1A90008000000001A
:1000F0000000000000000000000000000000000000
:0C01000000000000000000005FF808F1A3
:1001100010B5054C237833B9044B13B10448AFF341
:1001200000800123237010BD80010020000000002A
:1001300028EE000808B5034B1BB103490348AFF391
:10014000008008BD000000008401002028EE0008A7
:1001500081F0004102E000BF83F0004330B54FEA78
:1001600041044FEA430594EA050F08BF90EA020FE5
:100170001FBF54EA000C55EA020C7FEA645C7FEA78
:10018000655C00F0E2804FEA5454D4EB5555B8BF9B
:100190006D420CDD2C4480EA020281EA030382EA0C
:1001A000000083EA010180EA020281EA0303362D9E
:1001B00088BF30BD11F0004F4FEA01314FF4801C71
:1001C0004CEA113102D0404261EB410113F0004F83
:1001D0004FEA03334CEA133302D0524263EB43033A
:1001E00094EA050F00F0A780A4F10104D5F1200ED8
:1001F0000DDB02FA0EFC22FA05F2801841F1000133
:1002000003FA0EF2801843FA05F359410EE0A5F106
:1002100020050EF1200E012A03FA0EFC28BF4CF037
:10022000020C43FA05F3C01851EBE37101F00045ED
:1002300007D54FF0000EDCF1000C7EEB00006EEBFA
:100240000101B1F5801F1BD3B1F5001F0CD3490884
:100250005FEA30004FEA3C0C04F101044FEA4452DB
:1002600012F5800F80F09A80BCF1004F08BF5FEA62
:10027000500C50F1000041EB045141EA050130BD42
:100280005FEA4C0C404141EB0101013C28BFB1F554
:10029000801FE9D291F0000F04BF01460020B1FA9F
:1002A00081F308BF2033A3F10B03B3F120020CDA72
:1002B0000C3208DD02F1140CC2F10C0201FA0CF050
:1002C00021FA02F10CE002F11402D8BFC2F1200CB5
:1002D00001FA02F120FA0CFCDCBF41EA0C0190406B
:1002E000E41AA2BF01EB0451294330BD6FEA0404B4
:1002F0001F3C1CDA0C340EDC04F11404C4F120029F
:1003000020FA04F001FA02F340EA030021FA04F3B0
:1003100045EA030130BDC4F10C04C4F1200220FA07
:1003200002F001FA04F340EA0300294630BD21FA45
:1003300004F0294630BD94F0000F83F4801306BF0B
:1003400081F480110134013D4EE77FEA645C18BFFF
:100350007FEA655C29D094EA050F08BF90EA020F96
:1003600005D054EA000C04BF1946104630BD91EA8E
:10037000030F1EBF0021002030BD5FEA545C05D191
:100380004000494128BF41F0004130BD14F58004D0
:100390003CBF01F5801130BD01F0004545F0FE4144
:1003A00041F470014FF0000030BD7FEA645C1ABF79
:1003B000194610467FEA655C1CBF0B46024650EAB0
:1003C000013406BF52EA033591EA030F41F40021DC
:1003D00030BD00BF90F0000F04BF0021704730B562
:1003E0004FF4806404F132044FF000054FF0000137
:1003F00050E700BF90F0000F04BF0021704730B5F8
:100400004FF4806404F1320410F0004548BF4042CC
:100410004FF000013EE700BF42004FEAE2014FEA21
:1004200031014FEA02701FBF12F07F4393F07F4FFC
:1004300081F06051704732F07F4208BF704793F0FF
:100440007F4F04BF41F40021704730B54FF4607412
:1004500001F0004521F000411CE700BF50EA010215
:1004600008BF704730B54FF000050AE050EA0102BE
:1004700008BF704730B511F0004502D5404261EB2E
:1004800041014FF4806404F132045FEA915C3FF46F
:10049000D8AE4FF003025FEADC0C18BF03325FEA0C
:1004A000DC0C18BF033202EBDC02C2F1200300FABD
:1004B00003FC20FA02F001FA03FE40EA0E0021FAE2
:1004C00002F11444BDE600BF70B54FF0FF0C4CF4D0
:1004D000E06C1CEA11541DBF1CEA135594EA0C0F82
:1004E00095EA0C0F00F0DEF82C4481EA030621EABD
:1004F0004C5123EA4C5350EA013518BF52EA0335F8
:1005000041F4801143F4801338D0A0FB02CE4FF0A9
:100510000005E1FB02E506F00042E0FB03E54FF0D9
:100520000006E1FB03569CF0000F18BF4EF0010ED1
:10053000A4F1FF04B6F5007F64F5407404D25FEACD
:100540004E0E6D4146EB060642EAC62141EA555180
:100550004FEAC52040EA5E504FEACE2EB4F1FD0CC2
:1005600088BFBCF5E06F1ED8BEF1004F08BF5FEA40
:10057000500E50F1000041EB045170BD06F00046F2
:1005800046EA010140EA020081EA0301B4EB5C049F
:10059000C2BFD4EB0C0541EA045170BD41F4801197
:1005A0004FF0000E013C00F3AB8014F1360FDEBFBC
:1005B000002001F0004170BDC4F10004203C35DA98
:1005C0000C341BDC04F11404C4F1200500FA05F31B
:1005D00020FA04F001FA05F240EA020001F00042BC
:1005E00021F0004110EBD37021FA04F642EB060132
:1005F0005EEA430E08BF20EAD37070BDC4F10C045C
:10060000C4F1200500FA04F320FA05F001FA04F21F
:1006100040EA020001F0004110EBD37041F100010B
:100620005EEA430E08BF20EAD37070BDC4F1200516
:1006300000FA05F24EEA020E20FA04F301FA05F27E
:1006400043EA020321FA04F001F0004121FA04F226
:1006500020EA020000EBD3705EEA430E08BF20EAF6
:10066000D37070BD94F0000F0FD101F00046400030
:1006700041EB010111F4801F08BF013CF7D041EAB2
:10068000060195F0000F18BF704703F000465200B6
:1006900043EB030313F4801F08BF013DF7D043EA87
:1006A0000603704794EA0C0F0CEA135518BF95EA3D
:1006B0000C0F0CD050EA410618BF52EA4306D1D1C4
:1006C00081EA030101F000414FF0000070BD50EAE3
:1006D000410606BF1046194652EA430619D094EA6D
:1006E0000C0F02D150EA013613D195EA0C0F05D157
:1006F00052EA03361CBF104619460AD181EA0301AB
:1007000001F0004141F0FE4141F470014FF0000062
:1007100070BD41F0FE4141F4780170BD70B54FF0FD
:10072000FF0C4CF4E06C1CEA11541DBF1CEA13557D
:1007300094EA0C0F95EA0C0F00F0A7F8A4EB05045F
:1007400081EA030E52EA03354FEA013100F0888056
:100750004FEA03334FF0805545EA131343EA12631F
:100760004FEA022245EA111545EA10654FEA0026D4
:100770000EF000419D4208BF964244F1FD0404F58D
:10078000407402D25B084FEA3202B61A65EB0305E9
:100790005B084FEA32024FF480104FF4002CB6EBA6
:1007A000020E75EB030E22BFB61A754640EA0C0026
:1007B0005B084FEA3202B6EB020E75EB030E22BF66
:1007C000B61A754640EA5C005B084FEA3202B6EBA7
:1007D000020E75EB030E22BFB61A754640EA9C0066
:1007E0005B084FEA3202B6EB020E75EB030E22BF36
:1007F000B61A754640EADC0055EA060E18D04FEAF4
:10080000051545EA16754FEA06164FEAC30343EA93
:1008100052734FEAC2025FEA1C1CC0D111F4801F60
:100820000BD141EA00014FF000004FF0004CB6E759
:1008300011F4801F04BF01430020B4F1FD0C88BFF8
:10084000BCF5E06F3FF6AFAEB5EB030C04BFB6EB03
:10085000020C5FEA500C50F1000041EB045170BDF6
:100860000EF0004E4EEA113114EB5C04C2BFD4EB23
:100870000C0541EA045170BD41F480114FF0000EA7
:10088000013C90E645EA060E8DE60CEA135594EA23
:100890000C0F08BF95EA0C0F3FF43BAF94EA0C0F26
:1008A0000AD150EA01347FF434AF95EA0C0F7FF49B
:1008B00025AF104619462CE795EA0C0F06D152EAEF
:1008C00003353FF4FDAE1046194622E750EA4106D3
:1008D00018BF52EA43067FF4C5AE50EA41047FF4E4
:1008E0000DAF52EA43057FF4EBAE12E74FF0FF3C49
:1008F00006E000BF4FF0010C02E000BF4FF0010C1A
:100900004DF804CD4FEA410C7FEA6C5C4FEA430C92
:1009100018BF7FEA6C5C1BD001B050EA410C0CBFE1
:1009200052EA430C91EA030F02BF90EA020F002043
:10093000704710F1000F91EA030F58BF994208BFAA
:1009400090422CBFD8176FEAE37040F00100704767
:100950004FEA410C7FEA6C5C02D150EA013C07D1BE
:100960004FEA430C7FEA6C5CD6D152EA033CD3D009
:100970005DF8040B704700BF8446104662468C4603
:100980001946634600E000BF01B5FFF7B7FF002836
:1009900048BF10F1000F01BD4DF808EDFFF7F4FF5F
:1009A0000CBF012000205DF808FB00BF4DF808EDEA
:1009B000FFF7EAFF34BF012000205DF808FB00BF0D
:1009C0004DF808EDFFF7E0FF94BF012000205DF82F
:1009D00008FB00BF4DF808EDFFF7CEFF94BF0120E4
:1009E00000205DF808FB00BF4DF808EDFFF7C4FFDD
:1009F00034BF012000205DF808FB00BF4FEA410230
:100A000012F5001215D211D56FF47873B3EB625260
:100A100012D94FEAC12343F0004343EA505311F087
:100A2000004F23FA02F018BF404270474FF0000019
:100A3000704750EA013005D111F0004008BF6FF057
:100A4000004070474FF00000704700BF4A0011D2CD
:100A500012F5001211D20DD56FF47873B3EB625218
:100A60000ED44FEAC12343F0004343EA505323FA24
:100A700002F070474FF00000704750EA013002D199
:100A80004FF0FF3070474FF0000070474FEA4102CF
:100A9000B2F1E04324BFB3F5001CDCF1FE5C0DD9DC
:100AA00001F0004C4FEAC0024CEA5070B2F1004F26
:100AB00040EB830008BF20F00100704711F0804F29
:100AC00021D113F13872BCBF01F00040704741F4EE
:100AD00080114FEA5252C2F11802C2F1200C10FAF2
:100AE0000CF320FA02F018BF40F001004FEAC123D6
:100AF0004FEAD32303FA0CFC40EA0C0023FA02F37A
:100B00004FEA4303CCE77FEA625307D150EA01334F
:100B10001EBF4FF0FE4040F44000704701F000401F
:100B200040F0FE4040F40000704700BF80F00040FD
:100B300002E000BF81F0004142001FBF5FEA4103B5
:100B400092EA030F7FEA226C7FEA236C6AD04FEAB5
:100B50001262D2EB1363C1BFD218414048404140FA
:100B6000B8BF5B42192B88BF704710F0004F40F4AC
:100B7000000020F07F4018BF404211F0004F41F4C8
:100B8000000121F07F4118BF494292EA030F3FD094
:100B9000A2F1010241FA03FC10EB0C00C3F12003A7
:100BA00001FA03F100F0004302D5494260EB400036
:100BB000B0F5000F13D3B0F1807F06D340084FEAA1
:100BC000310102F10102FE2A51D2B1F1004F40EB96
:100BD000C25008BF20F0010040EA030070474900FE
:100BE00040EB0000013A28BFB0F5000FEDD2B0FA9B
:100BF00080FCACF1080CB2EB0C0200FA0CF0AABFBE
:100C000000EBC25052421843BCBFD040184370475B
:100C100092F0000F81F4000106BF80F40000013261
:100C2000013BB5E74FEA41037FEA226C18BF7FEA38
:100C3000236C21D092EA030F04D092F0000F08BF7A
:100C40000846704790EA010F1CBF0020704712F061
:100C50007F4F04D1400028BF40F00040704712F1A0
:100C600000723CBF00F50000704700F0004343F005
:100C7000FE4040F4000070477FEA226216BF08463B
:100C80007FEA23630146420206BF5FEA412390EAFE
:100C9000010F40F4800070474FF0000304E000BFF4
:100CA00010F0004348BF40425FEA000C08BF7047A5
:100CB00043F0964301464FF000001CE050EA010269
:100CC00008BF70474FF000030AE000BF50EA01027E
:100CD00008BF704711F0004302D5404261EB41016B
:100CE0005FEA010C02BF84460146002043F0B64390
:100CF00008BFA3F18053A3F50003BCFA8CF2083AB5
:100D0000A3EBC25310DB01FA02FC634400FA02FCBD
:100D1000C2F12002BCF1004F20FA02F243EB0200C4
:100D200008BF20F00100704702F1200201FA02FC26
:100D3000C2F1200250EA4C0021FA02F243EB020019
:100D400008BF20EADC70704780B500AF094B002275
:100D50001A60084B01225A60064B07229A60054927
:100D600005480AF045F90346002B01D009F06CFC58
:100D700000BF80BD9C010020A801002080B500AF0D
:100D8000094B01221A60084B01225A60064B0422CB
:100D90009A60054905480AF02BF90346002B01D05B
:100DA00009F052FC00BF80BD9C010020A80100207A
:100DB00080B500AF094B09221A60084B01225A6026
:100DC000064B05229A60054905480AF011F90346C9
:100DD000002B01D009F038FC00BF80BD9C01002031
:100DE000A801002080B500AF09F0DCFD00F054F848
:100DF00000F030FA00F010FA00F0C0F900F070F9DD
:100E000000F0A6F800F0CCF81D480BF07FFD1D485F
:100E10000BF07CFD01224FF400511B480AF074FFD7
:100E200002224FF4804118480AF06EFF03224FF46B
:100E3000004115480AF068FF144809F0EDFE09F07A
:100E400095FB00F0A3FA09F017F800F0E1FA104B57
:100E5000B3F904200F4B1A800E4BB3F9003018463B
:100E600009F0DCF800F038FB094BB3F90220094B1C
:100E70001A80084BB3F90030184600F039FCE0E75F
:100E8000680200202002002000100140A80100207C
:100E9000200300201803002080B594B000AF07F1B4
:100EA00028032822002118460CF037FF07F114030D
:100EB00000221A605A609A60DA601A613B1D0022B3
:100EC0001A605A609A60DA600123BB624FF4803383
:100ED000FB6200233B630123BB6302237B644FF46B
:100EE0008033BB644FF4E013FB6407F1280318461A
:100EF0000AF054FF0346002B01D009F0A5FB0F2395
:100F00007B610223BB610023FB614FF480633B6282
:100F100000237B6207F11403022118460BF0C0F98D
:100F20000346002B01D009F08FFB02237B604FF4B6
:100F30000043FB603B1D18460BF02CFB0346002BC7
:100F400001D009F081FB00BF5037BD4680BD0000D5
:100F500080B500AF104B114A1A600F4B4FF48072EE
:100F60009A600D4B01221A730B4B00221A750A4B23
:100F70004FF46022DA61084B00225A60064B0122CE
:100F80001A61054809F070FD0346002B01D009F0F5
:100F90005BFB00BF80BD00BFA80100200024014012
:100FA00080B596B000AF07F1480300221A605A607E
:100FB0009A60DA6007F1400300221A605A6007F174
:100FC000240300221A605A609A60DA601A615A613A
:100FD0009A613B1D2022002118460CF09EFE3E4BDC
:100FE0003E4A1A603C4B00225A603B4B00229A60FA
:100FF000394B5922DA60384B00221A61364B0022F5
:101000005A61354B00229A6133480BF02FFC03469E
:10101000002B01D009F018FB4FF48053BB6407F19B
:10102000480319462C480CF04DF90346002B01D01B
:1010300009F00AFB28480BF0BBFC0346002B01D04B
:1010400009F002FB00233B6400237B6407F14003AB
:10105000194621480CF0A0FD0346002B01D009F0F1
:10106000F3FA60237B620023BB620023FB62002350
:101070003B6300237B630023BB630023FB6307F117
:1010800024030022194614480CF05AF80346002B9A
:1010900001D009F0D9FA00237B600023BB60002354
:1010A000FB6000233B6100237B614FF40053BB6175
:1010B00000233B623B1D194607480CF0CBFD03465D
:1010C000002B01D009F0C0FA034809F0BBFB00BFB8
:1010D0005837BD4680BD00BFD8010020002C01401C
:1010E00080B586B000AF07F1080300221A605A608D
:1010F0009A60DA603B4600221A605A601D4B1E4A15
:101100001A601C4B40F2CF225A601A4B00229A60A0
:10111000184B0122DA60174B00221A61154B00228E
:101120009A6114480BF0A2FB0346002B01D009F092
:101130008BFA4FF48053BB6007F1080319460D4842
:101140000CF0C0F80346002B01D009F07DFA002313
:101150003B6000237B603B46194606480CF01CFDB3
:101160000346002B01D009F06FFA00BF1837BD46C7
:1011700080BD00BF200200200004004080B586B082
:1011800000AF07F1080300221A605A609A60DA6023
:101190003B4600221A605A601D4B1E4A1A601C4BC7
:1011A00041F61F425A601A4B00229A60184B0122E6
:1011B000DA60174B00221A61154B00229A6114481D
:1011C0000BF054FB0346002B01D009F03DFA4FF41D
:1011D0008053BB6007F1080319460D480CF072F804
:1011E0000346002B01D009F02FFA00233B600023B7
:1011F0007B603B46194606480CF0CEFC0346002BAC
:1012000001D009F021FA00BF1837BD4680BD00BFEC
:10121000680200200008004080B582B000AF0C4B8F
:101220005B690B4A43F001035361094B5B6903F0AF
:1012300001037B607B68002200210C200AF043F947
:101240000C200AF05CF900BF0837BD4680BD00BF26
:101250000010024080B588B000AF07F110030022F3
:101260001A605A609A60DA60434B9B69424A43F0C5
:1012700010039361404B9B6903F01003FB60FB6814
:101280003D4B9B693C4A43F0200393613A4B9B6979
:1012900003F02003BB60BB68374B9B69364A43F0C1
:1012A00004039361344B9B6903F004037B607B6808
:1012B000314B9B69304A43F0080393612E4B9B6985
:1012C00003F008033B603B6800224FF460412B4869
:1012D0000AF01AFD00224FF49C6129480AF014FD1F
:1012E00000224FF4F05127480AF00EFD4FF46043FE
:1012F0003B6101237B610023BB610223FB6107F19A
:10130000100319461D480AF07BFB01233B611E4B6D
:101310007B610023BB6107F11003194618480AF0EE
:101320006FFB4FF49C633B6101237B610023BB6136
:101330000223FB6107F11003194611480AF060FB14
:101340004FF4F0533B6101237B610023BB61022317
:10135000FB6107F1100319460A480AF051FB00220D
:10136000002106200AF0AFF806200AF0C8F800BFF6
:101370002037BD4680BD00BF001002400010014074
:10138000000C0140000801400000111080B500AFC2
:10139000FFF7DAFC1C4809F03FFC01211A4809F06C
:1013A00015FD194809F018FE03469AB2174B1A802A
:1013B000154809F0DFFCFFF7E1FC134809F02CFCAD
:1013C0000121114809F002FD0F4809F005FE03460E
:1013D0009AB20E4B5A800C4809F0CCFCFFF7E8FC9F
:1013E000094809F019FC0121074809F0EFFC0648FB
:1013F00009F0F2FD03469AB2044B9A80024809F0C4
:10140000B9FC00BF80BD00BFA8010020B0060020CD
:1014100080B485B000AF40F61653FB6040F2532312
:10142000BB6040F616537B6040F253233B60224B77
:101430001A68BB68D31A642203FB02F2F968BB681E
:10144000CB1A92FBF3F31AB21C4B5A801B4BB3F925
:101450000230642B03DD194B64225A8007E0174BDE
:10146000B3F90230002B02DA144B00225A80144BDD
:101470001A683B68D31A642203FB02F279683B685E
:10148000CB1A92FBF3F31AB20C4B9A800B4BB3F9C5
:101490000430642B03DD094B64229A8007E0074B7C
:1014A000B3F90430002B02DA044B00229A8000BF0B
:1014B0001437BD4680BC7047BC06002020030020C6
:1014C000C006002080B483B000AF0346FB8000BF9D
:1014D0000C37BD4680BC704780B500AF7D4B1B68A4
:1014E000B3F5167F03DA7C4B00221A802DE0794B8E
:1014F0001B68B3F5966F03DA774B01221A8024E05C
:10150000744B1B68B3F5E16F03DA734B02221A8048
:101510001BE0704B1B6840F6C312934203DC6E4B1A
:1015200003221A8011E06B4B1B6840F6B7329342DE
:1015300003DC694B04221A8007E0664B1B68B3F595
:101540007A6F02DA644B05221A80634BB3F90030DC
:10155000052B00F2AB8001A252F823F075150008AC
:10156000AB150008E1150008171600084D16000815
:1015700077160008594BFF221A60594BFF221A6058
:10158000584BFF221A6000224FF4E05156480AF0EF
:10159000BBFB00224FF4007153480AF0B5FB002258
:1015A000202152480AF0B0FB92E04C4B00221A6016
:1015B0004B4BB4221A604B4BFF221A6001224FF4AE
:1015C000806149480AF0A0FB00224FF4D051464800
:1015D0000AF09AFB0022202144480AF095FB77E0AC
:1015E0003E4B00221A603E4BFF221A603D4B002208
:1015F0001A6000224FF400613B480AF085FB00228C
:101600004FF4B05138480AF07FFB002220213748C0
:101610000AF07AFB5CE0314BFF221A60304BFF226C
:101620001A60304B00221A6001224FF480512E487C
:101630000AF06AFB00224FF460612B480AF064FB59
:101640000022202129480AF05FFB41E0234BFF22C2
:101650001A60234B00221A60224B00221A600122DA
:10166000202122480AF050FB00224FF4F0511E487E
:101670000AF04AFB2CE0194B00221A60184B00229A
:101680001A60184BFF221A6000224FF4E0511648EE
:101690000AF03AFB0022202114480AF035FB002210
:1016A0004FF4007110480AF02FFB11E001224FF4B3
:1016B00000710D480AF028FB00224FF4E0510A485F
:1016C0000AF022FB0022202108480AF01DFB00BF7F
:1016D00000BF80BDB80600202003002008000020C5
:1016E0000C0000201000002000080140000C014008
:1016F00080B584B000AF78600023FB600023002237
:101700000021F86808F05EFCFB680133FB600023F1
:1017100000220021F86808F055FCFB680133FB60EB
:10172000002300220021F86808F04CFCFB6801331C
:10173000FB60002300220021F86808F043FCFB68EE
:101740000133FB60002300220021F86808F03AFC16
:10175000FB680133FB60002300220021F86808F0D9
:1017600031FCFB680133FB60002300220021F86894
:1017700008F028FCFB680133FB60002300220021F5
:10178000F86808F01FFCFB680133FB6000230022AF
:101790000021F86808F016FCFB680133FB600023A9
:1017A00000220021F86808F00DFCFB680133FB60A3
:1017B000002300220021F86808F004FCFB680133D4
:1017C000FB60002300220021F86808F0FBFBFB68A7
:1017D0000133FB60002300220021F86808F0F2FBCF
:1017E000FB680133FB60002300220021F86808F049
:1017F000E9FBFB680133FB60002300220021F8684D
:1018000008F0E0FBFB680133FB60002300220021AD
:10181000F86808F0D7FBFB680133FB600023002267
:101820000021F86808F0CEFBFB680133FB60002361
:1018300000220021F86808F0C5FBFB680133FB605B
:10184000002300220021F86808F0BCFBFB6801338C
:10185000FB60002300220021F86808F0B3FBFB685E
:101860000133FB60002300220021F86808F0AAFB86
:10187000FB680133FB60002300220021F86808F0B8
:10188000A1FBFB680133FB60002300220021F86804
:1018900008F098FBFB680133FB6000230022002165
:1018A000F86808F08FFBFB680133FB60002300221F
:1018B0000021F86808F086FBFB680133FB60002319
:1018C00000220021F86808F07DFBFB680133FB6013
:1018D000002300220021F86808F074FBFB68013344
:1018E000FB60002300220021F86808F06BFBFB6816
:1018F0000133FB60002300220021F86808F062FB3E
:10190000FB680133FB60002300220021F86808F027
:1019100059FBFB680133FB60002300220021F868BB
:1019200008F050FBFB680133FB600023002200211C
:10193000F86808F047FBFB680133FB6000230022D6
:101940000021F86808F03EFBFB680133FB600023D0
:1019500000220021F86808F035FBFB680133FB60CA
:10196000002300220021F86808F02CFBFB680133FB
:10197000FB60002300220021F86808F023FBFB68CD
:101980000133FB60002300220021F86808F01AFBF5
:10199000FB680133FB60002300220021F86808F097
:1019A00011FBFB680133FB60002300220021F86873
:1019B00008F008FBFB680133FB60002300220021D4
:1019C000F86808F0FFFAFB680133FB60002300228F
:1019D0000021F86808F0F6FAFB680133FB60002389
:1019E00000220021F86808F0EDFAFB680133FB6083
:1019F000002300220021F86808F0E4FAFB680133B4
:101A0000FB60002300220021F86808F0DBFAFB6885
:101A10000133FB60002300220021F86808F0D2FAAD
:101A2000FB680133FB60002300220021F86808F006
:101A3000C9FAFB680133FB60002300220021F8682B
:101A400008F0C0FAFB680133FB600023002200218C
:101A5000F86808F0B7FAFB680133FB600023002246
:101A60000021F86808F0AEFAFB680133FB60002340
:101A700000220021F86808F0A5FAFB680133FB603A
:101A8000002300220021F86808F09CFAFB6801336B
:101A9000FB60002300220021F86808F093FAFB683D
:101AA0000133FB60002300220021F86808F08AFA65
:101AB000FB680133FB60002300220021F86808F076
:101AC00081FAFB680133FB60002300220021F868E3
:101AD00008F078FAFB680133FB6000230022002144
:101AE000F86808F06FFAFB680133FB6000230022FE
:101AF0000021F86808F066FAFB680133FB600023F8
:101B000000220021F86808F05DFAFB680133FB60F1
:101B1000002300220021F86808F054FAFB68013322
:101B2000FB60002300220021F86808F04BFAFB68F4
:101B30000133FB60002300220021F86808F042FA1C
:101B4000FB680133FB60002300220021F86808F0E5
:101B500039FAFB680133FB60002300220021F8689A
:101B600008F030FAFB680133FB60002300220021FB
:101B7000F86808F027FAFB680133FB6000230022B5
:101B80000021F86808F01EFAFB680133FB600023AF
:101B900000220021F86808F015FAFB680133FB60A9
:101BA000002300220021F86808F00CFAFB680133DA
:101BB000FB60002300220021F86808F003FAFB68AC
:101BC0000133FB60002300220021F86808F0FAF9D5
:101BD000FB680133FB60002300220021F86808F055
:101BE000F1F9FB680133FB60002300220021F86853
:101BF00008F0E8F9FB680133FB60002300220021B4
:101C0000F86808F0DFF9FB680133FB60002300226D
:101C10000021F86808F0D6F9FB680133FB60002367
:101C200000220021F86808F0CDF9FB680133FB6061
:101C3000002300220021F86808F0C4F9FB68013392
:101C4000FB60002300220021F86808F0BBF9FB6864
:101C50000133FB60002300220021F86808F0B2F98C
:101C6000FB680133FB60002300220021F86808F0C4
:101C7000A9F9FB680133FB60002300220021F8680A
:101C800008F0A0F9FB680133FB600023002200216B
:101C9000F86808F097F9FB680133FB600023002225
:101CA0000021F86808F08EF9FB680133FB6000231F
:101CB00000220021F86808F085F9FB680133FB6019
:101CC000002300220021F86808F07CF9FB6801334A
:101CD000FB60002300220021F86808F073F9FB681C
:101CE0000133FB60002300220021F86808F06AF944
:101CF000FB680133FB60002300220021F86808F034
:101D000061F9FB680133FB60002300220021F868C1
:101D100008F058F9FB680133FB6000230022002122
:101D2000F86808F04FF9FB680133FB6000230022DC
:101D30000021F86808F046F9FB680133FB600023D6
:101D400000220021F86808F03DF9FB680133FB60D0
:101D5000002300220021F86808F034F9FB68013301
:101D6000FB60002300220021F86808F02BF9FB68D3
:101D70000133FB60002300220021F86808F022F9FB
:101D8000FB680133FB60002300220021F86808F0A3
:101D900019F9FB680133FB60002300220021F86879
:101DA00008F010F9FB680133FB60002300220021DA
:101DB000F86808F007F9FB680133FB600023002294
:101DC0000021F86808F0FEF8FB680133FB6000238F
:101DD00000220021F86808F0F5F8FB680133FB6089
:101DE000002300220021F86808F0ECF8FB680133BA
:101DF000FB60002300220021F86808F0E3F8FB688C
:101E00000133FB60002300220021F86808F0DAF8B3
:101E1000FB680133FB60002300220021F86808F012
:101E2000D1F8FB680133FB60002300220021F86831
:101E300008F0C8F8FB680133FB6000230022002192
:101E4000F86808F0BFF8FB680133FB60002300224C
:101E50000021F86808F0B6F8FB680133FB60B74B67
:101E6000B3F90420B64B1A80B44BB3F900309BB2DF
:101E70001A46520013441A46D200D31A9BB21AB221
:101E8000B04B1A80AD4BB3F90030002B04F028851D
:101E9000AA4BB3F90030052B04F022857B68002B98
:101EA00040F08681A74BB3F900301846002300228A
:101EB000002108F087F8A34BB3F900309BB201333F
:101EC0009BB21AB29F4B1A809E4BB3F90030184652
:101ED00000230022002108F075F89A4BB3F9003076
:101EE0009BB201339BB21AB2964B1A80954BB3F951
:101EF0000030184600230022002108F063F8914BBF
:101F0000B3F900309BB201339BB21AB28D4B1A80E9
:101F10008C4BB3F90030184600230022002108F052
:101F200051F8884BB3F900309BB201339BB21AB21F
:101F3000844B1A80834BB3F90030184600230022EB
:101F4000002108F03FF87F4BB3F900309BB201331A
:101F50009BB21AB27B4B1A807A4BB3F90030184609
:101F600000230022002108F02DF8764BB3F9003051
:101F70009BB201339BB21AB2724B1A80714BB3F908
:101F80000030184600230022002108F01BF86D4B9A
:101F9000B3F900309BB201339BB21AB2694B1A807D
:101FA000684BB3F90030184600230022002108F0E6
:101FB00009F8644BB3F900309BB201339BB21AB2FB
:101FC000604B1A805F4BB3F90030184600230022A3
:101FD000002107F0F7FF5B4BB3F900309BB20133F0
:101FE0009BB21AB2574B1A80564BB3F900301846C1
:101FF00000230022002107F0E5FF524BB3F9003027
:102000009BB201339BB21AB24E4B1A804D4BB3F9BF
:102010000030184600230022002107F0D3FF494B6F
:10202000B3F900309BB201339BB21AB2454B1A8010
:10203000444BB3F90030184600230022002107F07A
:10204000C1FF404BB3F900309BB201339BB21AB2CF
:102050003C4B1A803B4BB3F900301846002300225A
:10206000002107F0AFFF374BB3F900309BB20133CB
:102070009BB21AB2334B1A80324BB3F90030184678
:1020800000230022002107F09DFF2E4BB3F9003002
:102090009BB201339BB21AB22A4B1A80294BB3F977
:1020A0000030184600230022002107F08BFF254B4B
:1020B000B3F900309BB201339BB21AB2214B1A80A4
:1020C000204BB3F90030184600230022002107F00E
:1020D00079FF1C4BB3F900309BB201339BB21AB2AB
:1020E000184B1A80174BB3F9003018460023002212
:1020F000002107F067FF134BB3F900309BB20133A7
:102100009BB21AB20F4B1A800E4BB3F9003018462F
:1021100000230022002107F055FF0A4BB3F90030DD
:102120009BB201339BB21AB2064B1A80054BB3F92E
:102130000030184600230022002105E02003002083
:102140001A0300201C03002007F03CFF174BB3F9D3
:1021500000309BB201339BB21AB2144B1A80134B5E
:10216000B3F90030184600230022002107F02AFFAF
:102170000E4BB3F900309BB201339BB21AB20B4B3A
:102180001A800A4BB3F900301846002300220021C0
:1021900007F018FF054BB3F900309BB201339BB237
:1021A0001AB2024B1A8004F09BBB00BF1C03002034
:1021B0007B68002B40F38E817B68052B00F38A81BE
:1021C000B44BB3F900301846B34B1968B34B1A68D7
:1021D000B34B1B6807F0F6FEAE4BB3F900309BB271
:1021E00001339BB21AB2AB4B1A80AA4BB3F9003041
:1021F000184600230022002107F0E4FEA54BB3F9A6
:1022000000309BB201339BB21AB2A24B1A80A14B91
:10221000B3F90030184600230022002107F0D2FE57
:102220009C4BB3F900309BB201339BB21AB2994B6D
:102230001A80984BB3F90030184600230022002181
:1022400007F0C0FE934BB3F900309BB201339BB251
:102250001AB2904B1A808F4BB3F900301846002306
:102260000022002107F0AEFE8A4BB3F900309BB28A
:1022700001339BB21AB2874B1A80864BB3F90030F8
:10228000184600230022002107F09CFE814BB3F981
:1022900000309BB201339BB21AB27E4B1A807D4B49
:1022A000B3F90030184600230022002107F08AFE0F
:1022B000784BB3F900309BB201339BB21AB2754B25
:1022C0001A80744BB3F90030184600230022002115
:1022D00007F078FE6F4BB3F900309BB201339BB22D
:1022E0001AB26C4B1A806B4BB3F9003018460023BE
:1022F0000022002107F066FE664BB3F900309BB266
:1023000001339BB21AB2634B1A80624BB3F90030AF
:10231000184600230022002107F054FE5D4BB3F95C
:1023200000309BB201339BB21AB25A4B1A80594B00
:10233000B3F90030184600230022002107F042FEC6
:10234000544BB3F900309BB201339BB21AB2514BDC
:102350001A80504BB3F900301846002300220021A8
:1023600007F030FE4B4BB3F900309BB201339BB208
:102370001AB2484B1A80474BB3F900301846002375
:102380000022002107F01EFE424BB3F900309BB241
:1023900001339BB21AB23F4B1A803E4BB3F9003067
:1023A000184600230022002107F00CFE394BB3F938
:1023B00000309BB201339BB21AB2364B1A80354BB8
:1023C000B3F90030184600230022002107F0FAFD7F
:1023D000304BB3F900309BB201339BB21AB22D4B94
:1023E0001A802C4BB3F9003018460023002200213C
:1023F00007F0E8FD274BB3F900309BB201339BB2E5
:102400001AB2244B1A80234BB3F90030184600232C
:102410000022002107F0D6FD1E4BB3F900309BB21D
:1024200001339BB21AB21B4B1A801A4BB3F900301E
:10243000184600230022002107F0C4FD154BB3F914
:1024400000309BB201339BB21AB2124B1A80114B6F
:10245000B3F90030184600230022002107F0B2FD36
:102460000C4BB3F900309BB201339BB21AB2094B4B
:102470001A80084BB3F900301846002300220021CF
:1024800007F0A0FD034BB3F900309BB201339BB2C0
:102490001AB207E01C030020080000200C000020F6
:1024A000100000200A4B1A80094BB3F9003018467F
:1024B00000230022002107F085FD054BB3F9003011
:1024C0009BB201339BB21AB2014B1A8004F008BAD6
:1024D0001C0300207B68052B40F392817B680A2B4C
:1024E00000F38E81B44BB3F900301846B34B196832
:1024F000B34B1A68B34B1B6807F064FDAE4BB3F9DE
:1025000000309BB201339BB21AB2AB4B1A80AA4B7C
:10251000B3F900301846A94B1968A94B1A68A94BA2
:102520001B6807F04FFDA44BB3F900309BB2013399
:102530009BB21AB2A04B1A809F4BB3F900301846D9
:1025400000230022002107F03DFD9B4BB3F9003032
:102550009BB201339BB21AB2974B1A80964BB3F9D8
:102560000030184600230022002107F02BFD924B7B
:10257000B3F900309BB201339BB21AB28E4B1A8072
:102580008D4BB3F90030184600230022002107F0DC
:1025900019FD894BB3F900309BB201339BB21AB2DB
:1025A000854B1A80844BB3F9003018460023002273
:1025B000002107F007FD804BB3F900309BB20133D7
:1025C0009BB21AB27C4B1A807B4BB3F90030184691
:1025D00000230022002107F0F5FC774BB3F900300F
:1025E0009BB201339BB21AB2734B1A80724BB3F990
:1025F0000030184600230022002107F0E3FC6E4B58
:10260000B3F900309BB201339BB21AB26A4B1A8005
:10261000694BB3F90030184600230022002107F06F
:10262000D1FC654BB3F900309BB201339BB21AB2B7
:10263000614B1A80604BB3F900301846002300222A
:10264000002107F0BFFC5C4BB3F900309BB20133B3
:102650009BB21AB2584B1A80574BB3F90030184648
:1026600000230022002107F0ADFC534BB3F90030EA
:102670009BB201339BB21AB24F4B1A804E4BB3F947
:102680000030184600230022002107F09BFC4A4B33
:10269000B3F900309BB201339BB21AB2464B1A8099
:1026A000454BB3F90030184600230022002107F003
:1026B00089FC414BB3F900309BB201339BB21AB293
:1026C0003D4B1A803C4BB3F90030184600230022E2
:1026D000002107F077FC384BB3F900309BB201338F
:1026E0009BB21AB2344B1A80334BB3F90030184600
:1026F00000230022002107F065FC2F4BB3F90030C6
:102700009BB201339BB21AB22B4B1A802A4BB3F9FE
:102710000030184600230022002107F053FC264B0E
:10272000B3F900309BB201339BB21AB2224B1A802C
:10273000214BB3F90030184600230022002107F096
:1027400041FC1D4BB3F900309BB201339BB21AB26E
:10275000194B1A80184BB3F9003018460023002299
:10276000002107F02FFC144BB3F900309BB201336A
:102770009BB21AB2104B1A800F4BB3F900301846B7
:1027800000230022002107F01DFC0B4BB3F90030A1
:102790009BB201339BB21AB2074B1A80064BB3F9B6
:1027A0000030184600230022002107F00BFC024BEA
:1027B000B3F9003008E000BF1C030020080000202F
:1027C0000C000020100000209BB201339BB21AB213
:1027D0000A4B1A80094BB3F9003018460023002237
:1027E000002107F0EFFB054BB3F900309BB201333A
:1027F0009BB21AB2014B1A8004F072B81C0300207D
:102800007B680A2B40F396817B680F2B00F3928143
:10281000B24BB3F900301846B14B1968B14B1A6886
:10282000B14B1B6807F0CEFBAC4BB3F900309BB249
:1028300001339BB21AB2A94B1A80A84BB3F90030EE
:102840001846A74B1968A74B1A68A74B1B6807F0D7
:10285000B9FBA24BB3F900309BB201339BB21AB261
:102860009E4B1A809D4BB3F9003018469C4B19685B
:102870009C4B1A689C4B1B6807F0A4FB974BB3F961
:1028800000309BB201339BB21AB2944B1A80934B27
:10289000B3F90030184600230022002107F092FB14
:1028A0008E4BB3F900309BB201339BB21AB28B4B03
:1028B0001A808A4BB3F90030184600230022002109
:1028C00007F080FB854BB3F900309BB201339BB21C
:1028D0001AB2824B1A80814BB3F90030184600239C
:1028E0000022002107F06EFB7C4BB3F900309BB255
:1028F00001339BB21AB2794B1A80784BB3F900308E
:10290000184600230022002107F05CFB734BB3F94B
:1029100000309BB201339BB21AB2704B1A806F4BDE
:10292000B3F90030184600230022002107F04AFBCB
:102930006A4BB3F900309BB201339BB21AB2674BBA
:102940001A80664BB3F9003018460023002200219C
:1029500007F038FB614BB3F900309BB201339BB2F7
:102960001AB25E4B1A805D4BB3F900301846002353
:102970000022002107F026FB584BB3F900309BB230
:1029800001339BB21AB2554B1A80544BB3F9003045
:10299000184600230022002107F014FB4F4BB3F927
:1029A00000309BB201339BB21AB24C4B1A804B4B96
:1029B000B3F90030184600230022002107F002FB83
:1029C000464BB3F900309BB201339BB21AB2434B72
:1029D0001A80424BB3F90030184600230022002130
:1029E00007F0F0FA3D4BB3F900309BB201339BB2D4
:1029F0001AB23A4B1A80394BB3F90030184600230B
:102A00000022002107F0DEFA344BB3F900309BB20C
:102A100001339BB21AB2314B1A80304BB3F90030FC
:102A2000184600230022002107F0CCFA2B4BB3F903
:102A300000309BB201339BB21AB2284B1A80274B4D
:102A4000B3F90030184600230022002107F0BAFA3B
:102A5000224BB3F900309BB201339BB21AB21F4B29
:102A60001A801E4BB3F900301846002300220021C3
:102A700007F0A8FA194BB3F900309BB201339BB2AF
:102A80001AB2164B1A80154BB3F9003018460023C2
:102A90000022002107F096FA104BB3F900309BB2E8
:102AA00001339BB21AB20D4B1A800C4BB3F90030B4
:102AB000184600230022002107F084FA074BB3F9DF
:102AC00000309BB201339BB21AB2044B1A80034B05
:102AD000B3F900301846002308E000BF1C030020B3
:102AE000080000200C00002010000020002200211F
:102AF00007F068FA0E4BB3F900309BB201339BB27A
:102B00001AB20B4B1A800A4BB3F900301846002357
:102B10000022002107F056FA054BB3F900309BB2B2
:102B200001339BB21AB2024B1A8003F0D9BE00BF28
:102B30001C0300207B680F2B40F398817B68142BCB
:102B400000F39481B04BB3F900301846AF4B1968CD
:102B5000AF4B1A68AF4B1B6807F034FAAA4BB3F9B6
:102B600000309BB201339BB21AB2A74B1A80A64B1E
:102B7000B3F900301846A54B1968A54B1A68A54B48
:102B80001B6807F01FFAA04BB3F900309BB201336A
:102B90009BB21AB29C4B1A809B4BB3F9003018467B
:102BA0009A4B19689A4B1A689A4B1B6807F00AFAF5
:102BB000954BB3F900309BB201339BB21AB2924BE2
:102BC0001A80914BB3F900301846904B1968904B1E
:102BD0001A68904B1B6807F0F5F98B4BB3F900307E
:102BE0009BB201339BB21AB2874B1A80864BB3F962
:102BF0000030184600230022002107F0E3F9824B41
:102C0000B3F900309BB201339BB21AB27E4B1A80EB
:102C10007D4BB3F90030184600230022002107F055
:102C2000D1F9794BB3F900309BB201339BB21AB2A0
:102C3000754B1A80744BB3F90030184600230022FC
:102C4000002107F0BFF9704BB3F900309BB201339C
:102C50009BB21AB26C4B1A806B4BB3F9003018461A
:102C600000230022002107F0ADF9674BB3F90030D3
:102C70009BB201339BB21AB2634B1A80624BB3F919
:102C80000030184600230022002107F09BF95E4B1C
:102C9000B3F900309BB201339BB21AB25A4B1A807F
:102CA000594BB3F90030184600230022002107F0E9
:102CB00089F9554BB3F900309BB201339BB21AB27C
:102CC000514B1A80504BB3F90030184600230022B4
:102CD000002107F077F94C4BB3F900309BB2013378
:102CE0009BB21AB2484B1A80474BB3F900301846D2
:102CF00000230022002107F065F9434BB3F90030AF
:102D00009BB201339BB21AB23F4B1A803E4BB3F9D0
:102D10000030184600230022002107F053F93A4BF7
:102D2000B3F900309BB201339BB21AB2364B1A8012
:102D3000354BB3F90030184600230022002107F07C
:102D400041F9314BB3F900309BB201339BB21AB257
:102D50002D4B1A802C4BB3F900301846002300226B
:102D6000002107F02FF9284BB3F900309BB2013353
:102D70009BB21AB2244B1A80234BB3F90030184689
:102D800000230022002107F01DF91F4BB3F900308A
:102D90009BB201339BB21AB21B4B1A801A4BB3F988
:102DA0000030184600230022002107F00BF9164BD3
:102DB000B3F900309BB201339BB21AB2124B1A80A6
:102DC000114BB3F90030184600230022002107F010
:102DD000F9F80D4BB3F900309BB201339BB21AB234
:102DE000094B1A80084BB3F9003018460023002223
:102DF000002107F0E7F8044BB3F900309BB2013330
:102E00009BB21AB208E000BF1C030020080000209B
:102E10000C00002010000020134B1A80124BB3F955
:102E20000030184600230022002107F0CBF80E4B9B
:102E3000B3F900309BB201339BB21AB20A4B1A802D
:102E4000094BB3F90030184600230022002107F097
:102E5000B9F8054BB3F900309BB201339BB21AB2FB
:102E6000014B1A8003F03CBD1C0300207B68142B2F
:102E700040F39C817B68192B00F39881AE4BB3F92A
:102E800000301846AD4B1968AD4B1A68AD4B1B6846
:102E900007F098F8A84BB3F900309BB201339BB20E
:102EA0001AB2A54B1A80A44BB3F900301846A34BB5
:102EB0001968A34B1A68A34B1B6807F083F89E4B55
:102EC000B3F900309BB201339BB21AB29A4B1A800D
:102ED000994BB3F900301846984B1968984B1A680B
:102EE000984B1B6807F06EF8934BB3F900309BB218
:102EF00001339BB21AB2904B1A808F4BB3F900305A
:102F000018468E4B19688E4B1A688E4B1B6807F05B
:102F100059F8894BB3F900309BB201339BB21AB216
:102F2000854B1A80844BB3F900301846834B1968DF
:102F3000834B1A68834B1B6807F044F87E4BB3F948
:102F400000309BB201339BB21AB27B4B1A807A4B92
:102F5000B3F90030184600230022002107F032F8B0
:102F6000754BB3F900309BB201339BB21AB2724B6E
:102F70001A80714BB3F9003018460023002200215B
:102F800007F020F86C4BB3F900309BB201339BB2D1
:102F90001AB2694B1A80684BB3F900301846002307
:102FA0000022002107F00EF8634BB3F900309BB20A
:102FB00001339BB21AB2604B1A805F4BB3F90030F9
:102FC000184600230022002106F0FCFF5A4BB3F9FB
:102FD00000309BB201339BB21AB2574B1A80564B4A
:102FE000B3F90030184600230022002106F0EAFF62
:102FF000514BB3F900309BB201339BB21AB24E4B26
:103000001A804D4BB3F900301846002300220021EE
:1030100006F0D8FF484BB3F900309BB201339BB2A6
:103020001AB2454B1A80444BB3F9003018460023BE
:103030000022002106F0C6FF3F4BB3F900309BB2DF
:1030400001339BB21AB23C4B1A803B4BB3F90030B0
:10305000184600230022002106F0B4FF364BB3F9D6
:1030600000309BB201339BB21AB2334B1A80324B01
:10307000B3F90030184600230022002106F0A2FF19
:103080002D4BB3F900309BB201339BB21AB22A4BDD
:103090001A80294BB3F90030184600230022002182
:1030A00006F090FF244BB3F900309BB201339BB282
:1030B0001AB2214B1A80204BB3F900301846002376
:1030C0000022002106F07EFF1B4BB3F900309BB2BB
:1030D00001339BB21AB2184B1A80174BB3F9003068
:1030E000184600230022002106F06CFF124BB3F9B2
:1030F00000309BB201339BB21AB20F4B1A800E4BB9
:10310000B3F90030184600230022002106F05AFFD0
:10311000094BB3F900309BB201339BB21AB2064B94
:103120001A80054BB3F90030184600230022002115
:1031300006F048FF08E000BF1C0300200800002044
:103140000C00002010000020174BB3F900309BB298
:1031500001339BB21AB2144B1A80134BB3F90030EF
:10316000184600230022002106F02CFF0E4BB3F975
:1031700000309BB201339BB21AB20B4B1A800A4B40
:10318000B3F90030184600230022002106F01AFF90
:10319000054BB3F900309BB201339BB21AB2024B1C
:1031A0001A8003F09DBB00BF1C0300207B68192B15
:1031B00040F39E817B681E2B00F39A81AC4BB3F9E0
:1031C00000301846AB4B1968AB4B1A68AB4B1B6809
:1031D00006F0F8FEA64BB3F900309BB201339BB268
:1031E0001AB2A34B1A80A24BB3F900301846A14B78
:1031F0001968A14B1A68A14B1B6806F0E3FE9C4BB3
:10320000B3F900309BB201339BB21AB2984B1A80CB
:10321000974BB3F900301846964B1968964B1A68CD
:10322000964B1B6806F0CEFE914BB3F900309BB273
:1032300001339BB21AB28E4B1A808D4BB3F900301A
:1032400018468C4B19688C4B1A688C4B1B6806F01F
:10325000B9FE874BB3F900309BB201339BB21AB26F
:10326000834B1A80824BB3F900301846814B1968A2
:10327000814B1A68814B1B6806F0A4FE7C4BB3F9A6
:1032800000309BB201339BB21AB2794B1A80784B53
:10329000B3F900301846774B1968774B1A68774BAB
:1032A0001B6806F08FFE724BB3F900309BB20133FE
:1032B0009BB21AB26E4B1A806D4BB3F900301846B0
:1032C00000230022002106F07DFE694BB3F9003097
:1032D0009BB201339BB21AB2654B1A80644BB3F9AF
:1032E0000030184600230022002106F06BFE604BE0
:1032F000B3F900309BB201339BB21AB25C4B1A8017
:103300005B4BB3F90030184600230022002106F081
:1033100059FE574BB3F900309BB201339BB21AB23E
:10332000534B1A80524BB3F9003018460023002249
:10333000002106F047FE4E4BB3F900309BB201333B
:103340009BB21AB24A4B1A80494BB3F90030184667
:1033500000230022002106F035FE454BB3F9003072
:103360009BB201339BB21AB2414B1A80404BB3F966
:103370000030184600230022002106F023FE3C4BBB
:10338000B3F900309BB201339BB21AB2384B1A80AA
:10339000374BB3F90030184600230022002106F015
:1033A00011FE334BB3F900309BB201339BB21AB21A
:1033B0002F4B1A802E4BB3F9003018460023002201
:1033C000002106F0FFFD2A4BB3F900309BB2013318
:1033D0009BB21AB2264B1A80254BB3F9003018461F
:1033E00000230022002106F0EDFD214BB3F900304F
:1033F0009BB201339BB21AB21D4B1A801C4BB3F91E
:103400000030184600230022002106F0DBFD184B97
:10341000B3F900309BB201339BB21AB2144B1A803D
:10342000134BB3F90030184600230022002106F0A8
:10343000C9FD0F4BB3F900309BB201339BB21AB2F6
:103440000B4B1A800A4BB3F90030184600230022B8
:10345000002106F0B7FD064BB3F900309BB20133F3
:103460009BB21AB2024B1A80014BB3F9003007E04D
:103470001C030020080000200C0000201000002089
:10348000184600230022002106F09CFD174BB3F9DB
:1034900000309BB201339BB21AB2144B1A80134B0B
:1034A000B3F90030184600230022002106F08AFDFF
:1034B0000E4BB3F900309BB201339BB21AB20B4BE7
:1034C0001A800A4BB3F9003018460023002200216D
:1034D00006F078FD054BB3F900309BB201339BB287
:1034E0001AB2024B1A8003F0FBB900BF1C03002084
:1034F0007B681E2B40F3A2817B68232B00F39E8107
:10350000AB4BB3F900301846AA4B1968AA4B1A689E
:10351000AA4B1B6806F056FDA54BB3F900309BB2D1
:1035200001339BB21AB2A24B1A80A14BB3F90030FF
:103530001846A04B1968A04B1A68A04B1B6806F0F0
:1035400041FD9B4BB3F900309BB201339BB21AB2E1
:10355000974B1A80964BB3F900301846954B196873
:10356000954B1A68954B1B6806F02CFD904BB3F9F0
:1035700000309BB201339BB21AB28D4B1A808C4B38
:10358000B3F9003018468B4B19688B4B1A688B4B7C
:103590001B6806F017FD864BB3F900309BB2013370
:1035A0009BB21AB2824B1A80814BB3F90030184695
:1035B000804B1968804B1A68804B1B6806F002FD2F
:1035C0007B4BB3F900309BB201339BB21AB2784BFC
:1035D0001A80774BB3F900301846764B1968764B52
:1035E0001A68764B1B6806F0EDFC714BB3F900309E
:1035F0009BB201339BB21AB26D4B1A806C4BB3F97C
:10360000003018466B4B19686B4B1A686B4B1B6884
:1036100006F0D8FC664BB3F900309BB201339BB285
:103620001AB2634B1A80624BB3F90030184600237C
:103630000022002106F0C6FC5D4BB3F900309BB2BE
:1036400001339BB21AB25A4B1A80594BB3F900306E
:10365000184600230022002106F0B4FC544BB3F9B5
:1036600000309BB201339BB21AB2514B1A80504BBF
:10367000B3F90030184600230022002106F0A2FC16
:103680004B4BB3F900309BB201339BB21AB2484B9B
:103690001A80474BB3F9003018460023002200215E
:1036A00006F090FC424BB3F900309BB201339BB261
:1036B0001AB23F4B1A803E4BB3F900301846002334
:1036C0000022002106F07EFC394BB3F900309BB29A
:1036D00001339BB21AB2364B1A80354BB3F9003026
:1036E000184600230022002106F06CFC304BB3F991
:1036F00000309BB201339BB21AB22D4B1A802C4B77
:10370000B3F90030184600230022002106F05AFCCD
:10371000274BB3F900309BB201339BB21AB2244B52
:103720001A80234BB3F900301846002300220021F1
:1037300006F048FC1E4BB3F900309BB201339BB23C
:103740001AB21B4B1A801A4BB3F9003018460023EB
:103750000022002106F036FC154BB3F900309BB275
:1037600001339BB21AB2124B1A80114BB3F90030DD
:10377000184600230022002106F024FC0C4BB3F96C
:1037800000309BB201339BB21AB2094B1A80084B2E
:10379000B3F90030184600230022002106F012FC85
:1037A000034BB3F900309BB201339BB208E000BF7A
:1037B0001C030020080000200C0000201000002046
:1037C0001AB21D4B1A801C4BB3F900301846002367
:1037D0000022002106F0F6FB174BB3F900309BB234
:1037E00001339BB21AB2144B1A80134BB3F9003059
:1037F000184600230022002106F0E4FB0E4BB3F92B
:1038000000309BB201339BB21AB20B4B1A800A4BA9
:10381000B3F90030184600230022002106F0D2FB45
:10382000054BB3F900309BB201339BB21AB2024B85
:103830001A8003F055B800BF1C0300207B68232BBF
:1038400040F3A4817B68282B00F3A081A94BB3F936
:1038500000301846A84B1968A84B1A68A84B1B687B
:1038600006F0B0FBA34BB3F900309BB201339BB21F
:103870001AB2A04B1A809F4BB3F9003018469E4BEA
:1038800019689E4B1A689E4B1B6806F09BFB994B70
:10389000B3F900309BB201339BB21AB2954B1A8038
:1038A000944BB3F900301846934B1968934B1A6840
:1038B000934B1B6806F086FB8E4BB3F900309BB22E
:1038C00001339BB21AB28B4B1A808A4BB3F900308A
:1038D0001846894B1968894B1A68894B1B6806F092
:1038E00071FB844BB3F900309BB201339BB21AB227
:1038F000804B1A807F4BB3F9003018467E4B196815
:103900007E4B1A687E4B1B6806F05CFB794BB3F963
:1039100000309BB201339BB21AB2764B1A80754BC2
:10392000B3F900301846744B1968744B1A68744B1D
:103930001B6806F047FB6F4BB3F900309BB20133B5
:103940009BB21AB26B4B1A806A4BB3F9003018461F
:10395000694B1968694B1A68694B1B6806F032FBA2
:10396000644BB3F900309BB201339BB21AB2614B86
:103970001A80604BB3F9003018465F4B19685F4BF3
:103980001A685F4B1B6806F01DFB5A4BB3F90030F9
:103990009BB201339BB21AB2564B1A80554BB3F906
:1039A0000030184600230022002106F00BFB514B8B
:1039B000B3F900309BB201339BB21AB24D4B1A805F
:1039C0004C4BB3F90030184600230022002106F0CA
:1039D000F9FA484BB3F900309BB201339BB21AB2EB
:1039E000444B1A80434BB3F90030184600230022A1
:1039F000002106F0E7FA3F4BB3F900309BB20133E8
:103A00009BB21AB23B4B1A803A4BB3F900301846BE
:103A100000230022002106F0D5FA364BB3F900301E
:103A20009BB201339BB21AB2324B1A80314BB3F9BD
:103A30000030184600230022002106F0C3FA2D4B67
:103A4000B3F900309BB201339BB21AB2294B1A80F2
:103A5000284BB3F90030184600230022002106F05D
:103A6000B1FA244BB3F900309BB201339BB21AB2C6
:103A7000204B1A801F4BB3F9003018460023002258
:103A8000002106F09FFA1B4BB3F900309BB20133C3
:103A90009BB21AB2174B1A80164BB3F90030184676
:103AA00000230022002106F08DFA124BB3F90030FA
:103AB0009BB201339BB21AB20E4B1A800D4BB3F975
:103AC0000030184600230022002106F07BFA094B43
:103AD000B3F900309BB201339BB21AB2054B1A8086
:103AE000044BB3F90030184600230022002106F0F1
:103AF00069FA07E01C030020080000200C000020E9
:103B000010000020204BB3F900309BB201339BB270
:103B10001AB21D4B1A801C4BB3F900301846002313
:103B20000022002106F04EFA174BB3F900309BB289
:103B300001339BB21AB2144B1A80134BB3F9003005
:103B4000184600230022002106F03CFA0E4BB3F980
:103B500000309BB201339BB21AB20B4B1A800A4B56
:103B6000B3F90030184600230022002106F02AFA9B
:103B7000054BB3F900309BB201339BB21AB2024B32
:103B80001A8002F0ADBE00BF1C0300207B68282B0A
:103B900040F3A6817B682D2B00F3A281A64BB3F9DD
:103BA00000301846A54B1968A54B1A68A54B1B6831
:103BB00006F008FAA04BB3F900309BB201339BB278
:103BC0001AB29D4B1A809C4BB3F9003018469B4BA0
:103BD00019689B4B1A689B4B1B6806F0F3F9964BD0
:103BE000B3F900309BB201339BB21AB2924B1A80E8
:103BF000914BB3F900301846904B1968904B1A68F6
:103C0000904B1B6806F0DEF98B4BB3F900309BB28A
:103C100001339BB21AB2884B1A80874BB3F900303C
:103C20001846864B1968864B1A68864B1B6806F047
:103C3000C9F9814BB3F900309BB201339BB21AB280
:103C40007D4B1A807C4BB3F9003018467B4B1968CA
:103C50007B4B1A687B4B1B6806F0B4F9764BB3F9C3
:103C600000309BB201339BB21AB2734B1A80724B75
:103C7000B3F900301846714B1968714B1A68714BD3
:103C80001B6806F09FF96C4BB3F900309BB201330F
:103C90009BB21AB2684B1A80674BB3F900301846D2
:103CA000664B1968664B1A68664B1B6806F08AF902
:103CB000614BB3F900309BB201339BB21AB25E4B39
:103CC0001A805D4BB3F9003018465C4B19685C4BA9
:103CD0001A685C4B1B6806F075F9574BB3F9003056
:103CE0009BB201339BB21AB2534B1A80524BB3F9B9
:103CF00000301846514B1968514B1A68514B1B68DC
:103D000006F060F94C4BB3F900309BB201339BB223
:103D10001AB2494B1A80484BB3F9003018460023B9
:103D20000022002106F04EF9434BB3F900309BB25C
:103D300001339BB21AB2404B1A803F4BB3F90030AB
:103D4000184600230022002106F03CF93A4BB3F953
:103D500000309BB201339BB21AB2374B1A80364BFC
:103D6000B3F90030184600230022002106F02AF99A
:103D7000314BB3F900309BB201339BB21AB22E4BD8
:103D80001A802D4BB3F90030184600230022002181
:103D900006F018F9284BB3F900309BB201339BB2FF
:103DA0001AB2254B1A80244BB3F900301846002371
:103DB0000022002106F006F91F4BB3F900309BB238
:103DC00001339BB21AB21C4B1A801B4BB3F9003063
:103DD000184600230022002106F0F4F8164BB3F930
:103DE00000309BB201339BB21AB2134B1A80124BB4
:103DF000B3F90030184600230022002106F0E2F853
:103E00000D4BB3F900309BB201339BB21AB20A4B8F
:103E10001A80094BB3F90030184600230022002114
:103E200006F0D0F8044BB3F900309BB201339BB2DB
:103E30001AB2014B1A8007E01C0300200800002082
:103E40000C00002010000020244BB3F9003018466D
:103E500000230022002106F0B5F8204BB3F9003012
:103E60009BB201339BB21AB21C4B1A801B4BB3F9A5
:103E70000030184600230022002106F0A3F8174B5B
:103E8000B3F900309BB201339BB21AB2134B1A80C4
:103E9000124BB3F90030184600230022002106F02F
:103EA00091F80E4BB3F900309BB201339BB21AB2BA
:103EB0000A4B1A80094BB3F9003018460023002240
:103EC000002106F07FF8054BB3F900309BB20133B7
:103ED0009BB21AB2014B1A8002F002BD1C030020F3
:103EE0007B682D2B40F3AA817B68322B00F3A681DF
:103EF000A64BB3F900301846A54B1968A54B1A68B4
:103F0000A54B1B6806F05EF8A04BB3F900309BB2DE
:103F100001339BB21AB29D4B1A809C4BB3F900300F
:103F200018469B4B19689B4B1A689B4B1B6806F005
:103F300049F8964BB3F900309BB201339BB21AB2E9
:103F4000924B1A80914BB3F900301846904B196888
:103F5000904B1A68904B1B6806F034F88B4BB3F902
:103F600000309BB201339BB21AB2884B1A80874B48
:103F7000B3F900301846864B1968864B1A68864B91
:103F80001B6806F01FF8814BB3F900309BB2013378
:103F90009BB21AB27D4B1A807C4BB3F900301846A5
:103FA0007B4B19687B4B1A687B4B1B6806F00AF841
:103FB000764BB3F900309BB201339BB21AB2734B0C
:103FC0001A80724BB3F900301846714B1968714B67
:103FD0001A68714B1B6805F0F5FF6C4BB3F90030A4
:103FE0009BB201339BB21AB2684B1A80674BB3F98C
:103FF00000301846664B1968664B1A68664B1B689A
:1040000005F0E0FF614BB3F900309BB201339BB286
:104010001AB25E4B1A805D4BB3F9003018465C4B08
:1040200019685C4B1A685C4B1B6805F0CBFF574B5B
:10403000B3F900309BB201339BB21AB2534B1A80D2
:10404000524BB3F900301846514B1968514B1A685E
:10405000514B1B6805F0B6FF4C4BB3F900309BB2D7
:1040600001339BB21AB2494B1A80484BB3F9003066
:104070001846474B1968474B1A68474B1B6805F0B1
:10408000A1FF424BB3F900309BB201339BB21AB28D
:104090003E4B1A803D4BB3F90030184600230022F6
:1040A000002105F08FFF394BB3F900309BB201338B
:1040B0009BB21AB2354B1A80344BB3F90030184614
:1040C00000230022002105F07DFF304BB3F90030C2
:1040D0009BB201339BB21AB22C4B1A802B4BB3F913
:1040E0000030184600230022002105F06BFF274B0B
:1040F000B3F900309BB201339BB21AB2234B1A8042
:10410000224BB3F90030184600230022002105F0AD
:1041100059FF1E4BB3F900309BB201339BB21AB268
:104120001A4B1A80194BB3F90030184600230022AD
:10413000002105F047FF154BB3F900309BB2013366
:104140009BB21AB2114B1A80104BB3F900301846CB
:1041500000230022002105F035FF0C4BB3F900309D
:104160009BB201339BB21AB2084B1A80074BB3F9CA
:104170000030184600230022002105F023FF034BE6
:10418000B3F900309BB2013308E000BF1C030020EC
:10419000080000200C000020100000209BB21AB282
:1041A000254B1A80244BB3F9003018460023002217
:1041B000002105F007FF204BB3F900309BB201331B
:1041C0009BB21AB21C4B1A801B4BB3F90030184635
:1041D00000230022002105F0F5FE174BB3F9003053
:1041E0009BB201339BB21AB2134B1A80124BB3F934
:1041F0000030184600230022002105F0E3FE0E4B9C
:10420000B3F900309BB201339BB21AB20A4B1A8049
:10421000094BB3F90030184600230022002105F0B5
:10422000D1FE054BB3F900309BB201339BB21AB2F9
:10423000014B1A8002F054BB1C0300207B68322B18
:1042400040F3AE817B68372B00F3AA81A44BB3F90E
:1042500000301846A34B1968A34B1A68A34B1B6880
:1042600005F0B0FE9E4BB3F900309BB201339BB218
:104270001AB29B4B1A809A4BB3F900301846994BEF
:104280001968994B1A68994B1B6805F09BFE944B73
:10429000B3F900309BB201339BB21AB2904B1A8033
:1042A0008F4BB3F9003018468E4B19688E4B1A6845
:1042B0008E4B1B6805F086FE894BB3F900309BB22C
:1042C00001339BB21AB2864B1A80854BB3F900308A
:1042D0001846844B1968844B1A68844B1B6805F098
:1042E00071FE7F4BB3F900309BB201339BB21AB21F
:1042F0007B4B1A807A4BB3F900301846794B19681A
:10430000794B1A68794B1B6805F05CFE744BB3F966
:1043100000309BB201339BB21AB2714B1A80704BC2
:10432000B3F9003018466F4B19686F4B1A686F4B22
:104330001B6805F047FE6A4BB3F900309BB20133AE
:104340009BB21AB2664B1A80654BB3F9003018461F
:10435000644B1968644B1A68644B1B6805F032FEA5
:104360005F4BB3F900309BB201339BB21AB25C4B86
:104370001A805B4BB3F9003018465A4B19685A4BF8
:104380001A685A4B1B6805F01DFE554BB3F90030F7
:104390009BB201339BB21AB2514B1A80504BB3F906
:1043A000003018464F4B19684F4B1A684F4B1B682B
:1043B00005F008FE4A4BB3F900309BB201339BB2C3
:1043C0001AB2474B1A80464BB3F900301846454B9A
:1043D0001968454B1A68454B1B6805F0F3FD404BC7
:1043E000B3F900309BB201339BB21AB23C4B1A8036
:1043F0003B4BB3F9003018463A4B19683A4B1A68F0
:104400003A4B1B6805F0DEFD354BB3F900309BB22B
:1044100001339BB21AB2324B1A80314BB3F90030E0
:10442000184600230022002105F0CCFD2C4BB3F9E7
:1044300000309BB201339BB21AB2294B1A80284B31
:10444000B3F90030184600230022002105F0BAFD20
:10445000234BB3F900309BB201339BB21AB2204B0D
:104460001A801F4BB3F900301846002300220021A8
:1044700005F0A8FD1A4BB3F900309BB201339BB293
:104480001AB2174B1A80164BB3F9003018460023A6
:104490000022002105F096FD114BB3F900309BB2CC
:1044A00001339BB21AB20E4B1A800D4BB3F9003098
:1044B000184600230022002105F084FD084BB3F9C3
:1044C00000309BB201339BB21AB2054B1A80044BE9
:1044D000B3F90030184600230022002108E000BF95
:1044E0001C030020080000200C0000201000002009
:1044F00005F068FD294BB3F900309BB201339BB244
:104500001AB2264B1A80254BB3F900301846002307
:104510000022002105F056FD204BB3F900309BB27C
:1045200001339BB21AB21D4B1A801C4BB3F90030F9
:10453000184600230022002105F044FD174BB3F973
:1045400000309BB201339BB21AB2144B1A80134B4A
:10455000B3F90030184600230022002105F032FD97
:104560000E4BB3F900309BB201339BB21AB20B4B26
:104570001A800A4BB3F900301846002300220021AC
:1045800005F020FD054BB3F900309BB201339BB21F
:104590001AB2024B1A8002F0A3B900BF1C0300201C
:1045A0007B68372B40F3B0817B683C2B00F3AC81F8
:1045B000A24BB3F900301846A14B1968A14B1A68F9
:1045C000A14B1B6805F0FEFC9C4BB3F900309BB27D
:1045D00001339BB21AB2994B1A80984BB3F9003051
:1045E0001846974B1968974B1A68974B1B6805F04C
:1045F000E9FC924BB3F900309BB201339BB21AB283
:104600008E4B1A808D4BB3F9003018468C4B1968CD
:104610008C4B1A688C4B1B6805F0D4FC874BB3F9A4
:1046200000309BB201339BB21AB2844B1A80834B89
:10463000B3F900301846824B1968824B1A68824BD6
:104640001B6805F0BFFC7D4BB3F900309BB2013312
:104650009BB21AB2794B1A80784BB3F900301846E6
:10466000774B1968774B1A68774B1B6805F0AAFCE3
:10467000724BB3F900309BB201339BB21AB26F4B4D
:104680001A806E4BB3F9003018466D4B19686D4BAC
:104690001A686D4B1B6805F095FC684BB3F9003048
:1046A0009BB201339BB21AB2644B1A80634BB3F9CD
:1046B00000301846624B1968624B1A68624B1B68DF
:1046C00005F080FC5D4BB3F900309BB201339BB227
:1046D0001AB25A4B1A80594BB3F900301846584B4E
:1046E0001968584B1A68584B1B6805F06BFC534B04
:1046F000B3F900309BB201339BB21AB24F4B1A8010
:104700004E4BB3F9003018464D4B19684D4B1A68A3
:104710004D4B1B6805F056FC484BB3F900309BB27B
:1047200001339BB21AB2454B1A80444BB3F90030A7
:104730001846434B1968434B1A68434B1B6805F0F6
:1047400041FC3E4BB3F900309BB201339BB21AB22D
:104750003A4B1A80394BB3F900301846384B196878
:10476000384B1A68384B1B6805F02CFC334BB3F9F7
:1047700000309BB201339BB21AB2304B1A802F4BE0
:10478000B3F9003018462E4B19682E4B1A682E4B81
:104790001B6805F017FC294BB3F900309BB20133BD
:1047A0009BB21AB2254B1A80244BB3F9003018463D
:1047B00000230022002105F005FC204BB3F9003056
:1047C0009BB201339BB21AB21C4B1A801B4BB3F93C
:1047D0000030184600230022002105F0F3FB174BA0
:1047E000B3F900309BB201339BB21AB2134B1A805B
:1047F000124BB3F90030184600230022002105F0C7
:10480000E1FB0E4BB3F900309BB201339BB21AB2FD
:104810000A4B1A80094BB3F90030184600230022D6
:10482000002105F0CFFB054BB3F900309BB20133FB
:104830009BB21AB2014B1A8008E000BF1C03002093
:10484000080000200C000020100000202D4BB3F9C0
:104850000030184600230022002105F0B3FB294B4D
:10486000B3F900309BB201339BB21AB2254B1A80C8
:10487000244BB3F90030184600230022002105F034
:10488000A1FB204BB3F900309BB201339BB21AB2AB
:104890001C4B1A801B4BB3F9003018460023002232
:1048A000002105F08FFB174BB3F900309BB20133A9
:1048B0009BB21AB2134B1A80124BB3F90030184650
:1048C00000230022002105F07DFB0E4BB3F90030E0
:1048D0009BB201339BB21AB20A4B1A80094BB3F94F
:1048E0000030184600230022002105F06BFB054B29
:1048F000B3F900309BB201339BB21AB2014B1A805C
:1049000001F0EEBF1C0300207B683C2B40F3B48118
:104910007B68412B00F3B081A14BB3F900301846FE
:10492000A04B1968A04B1A68A04B1B6805F04AFB06
:104930009B4BB3F900309BB201339BB21AB2984B38
:104940001A80974BB3F900301846964B1968964B6E
:104950001A68964B1B6805F035FB914BB3F9003094
:104960009BB201339BB21AB28D4B1A808C4BB3F9B8
:10497000003018468B4B19688B4B1A688B4B1B68A1
:1049800005F020FB864BB3F900309BB201339BB29C
:104990001AB2834B1A80824BB3F900301846814B10
:1049A0001968814B1A68814B1B6805F00BFB7C4B27
:1049B000B3F900309BB201339BB21AB2784B1A8024
:1049C000774BB3F900301846764B1968764B1A6866
:1049D000764B1B6805F0F6FA714BB3F900309BB2C9
:1049E00001339BB21AB26E4B1A806D4BB3F9003093
:1049F00018466C4B19686C4B1A686C4B1B6805F0B9
:104A0000E1FA674BB3F900309BB201339BB21AB2A3
:104A1000634B1A80624BB3F900301846614B19683A
:104A2000614B1A68614B1B6805F0CCFA5C4BB3F91B
:104A300000309BB201339BB21AB2594B1A80584BCB
:104A4000B3F900301846574B1968574B1A68574B43
:104A50001B6805F0B7FA524BB3F900309BB2013333
:104A60009BB21AB24E4B1A804D4BB3F90030184628
:104A70004C4B19684C4B1A684C4B1B6805F0A2FA5A
:104A8000474BB3F900309BB201339BB21AB2444B8F
:104A90001A80434BB3F900301846424B1968424B19
:104AA0001A68424B1B6805F08DFA3D4BB3F9003094
:104AB0009BB201339BB21AB2394B1A80384BB3F90F
:104AC00000301846374B1968374B1A68374B1B684C
:104AD00005F078FA324BB3F900309BB201339BB248
:104AE0001AB22F4B1A802E4BB3F9003018462D4BBB
:104AF00019682D4B1A682D4B1B6805F063FA284B7B
:104B0000B3F900309BB201339BB21AB2244B1A8026
:104B1000234BB3F900301846224B1968224B1A6810
:104B2000224B1B6805F04EFA1D4BB3F900309BB2C7
:104B300001339BB21AB21A4B1A80194BB3F90030E9
:104B4000184600230022002105F03CFA144BB3F96B
:104B500000309BB201339BB21AB2114B1A80104B3A
:104B6000B3F90030184600230022002105F02AFA8C
:104B70000B4BB3F900309BB201339BB21AB2084B16
:104B80001A80074BB3F90030184600230022002199
:104B900005F018FA024BB3F900309BB208E000BFF1
:104BA0001C030020080000200C0000201000002042
:104BB00001339BB21AB22F4B1A802E4BB3F900303F
:104BC000184600230022002105F0FCF9294BB3F917
:104BD00000309BB201339BB21AB2264B1A80254B90
:104BE000B3F90030184600230022002105F0EAF94D
:104BF000204BB3F900309BB201339BB21AB21D4B6C
:104C00001A801C4BB3F90030184600230022002103
:104C100005F0D8F9174BB3F900309BB201339BB2C2
:104C20001AB2144B1A80134BB3F900301846002304
:104C30000022002105F0C6F90E4BB3F900309BB2FB
:104C400001339BB21AB20B4B1A800A4BB3F90030F6
:104C5000184600230022002105F0B4F9054BB3F9F2
:104C600000309BB201339BB21AB2024B1A8001F0A2
:104C700037BE00BF1C0300207B68412B40F3B68188
:104C80007B68462B00F3B2819F4BB3F90030184686
:104C90009E4B19689E4B1A689E4B1B6805F092F953
:104CA000994BB3F900309BB201339BB21AB2964BC9
:104CB0001A80954BB3F900301846944B1968944B01
:104CC0001A68944B1B6805F07DF98F4BB3F90030DF
:104CD0009BB201339BB21AB28B4B1A808A4BB3F949
:104CE00000301846894B1968894B1A68894B1B6834
:104CF00005F068F9844BB3F900309BB201339BB2E5
:104D00001AB2814B1A80804BB3F9003018467F4BA2
:104D100019687F4B1A687F4B1B6805F053F97A4B73
:104D2000B3F900309BB201339BB21AB2764B1A80B2
:104D3000754BB3F900301846744B1968744B1A68F8
:104D4000744B1B6805F03EF96F4BB3F900309BB212
:104D500001339BB21AB26C4B1A806B4BB3F9003023
:104D600018466A4B19686A4B1A686A4B1B6805F04B
:104D700029F9654BB3F900309BB201339BB21AB2EB
:104D8000614B1A80604BB3F9003018465F4B1968CD
:104D90005F4B1A685F4B1B6805F014F95A4BB3F967
:104DA00000309BB201339BB21AB2574B1A80564B5C
:104DB000B3F900301846554B1968554B1A68554BD6
:104DC0001B6805F0FFF8504BB3F900309BB201337C
:104DD0009BB21AB24C4B1A804B4BB3F900301846B9
:104DE0004A4B19684A4B1A684A4B1B6805F0EAF8A7
:104DF000454BB3F900309BB201339BB21AB2424B20
:104E00001A80414BB3F900301846404B1968404BAB
:104E10001A68404B1B6805F0D5F83B4BB3F90030DE
:104E20009BB201339BB21AB2374B1A80364BB3F99F
:104E300000301846354B1968354B1A68354B1B68DE
:104E400005F0C0F8304BB3F900309BB201339BB290
:104E50001AB22D4B1A802C4BB3F9003018462B4B4D
:104E600019682B4B1A682B4B1B6805F0ABF8264BC7
:104E7000B3F900309BB201339BB21AB2224B1A80B5
:104E8000214BB3F900301846204B1968204B1A68A3
:104E9000204B1B6805F096F81B4BB3F900309BB212
:104EA00001339BB21AB2184B1A80174BB3F900307A
:104EB0001846164B1968164B1A68164B1B6805F0F6
:104EC00081F8114BB3F900309BB201339BB21AB297
:104ED0000D4B1A800C4BB3F900301846002300220A
:104EE000002105F06FF8084BB3F900309BB2013395
:104EF0009BB21AB2044B1A80034BB3F90030184628
:104F00000023002208E000BF1C030020080000204E
:104F10000C00002010000020002105F053F8324B57
:104F2000B3F900309BB201339BB21AB22E4B1A80F8
:104F30002D4BB3F90030184600230022002105F064
:104F400041F8294BB3F900309BB201339BB21AB23E
:104F5000254B1A80244BB3F9003018460023002259
:104F6000002105F02FF8204BB3F900309BB201333C
:104F70009BB21AB21C4B1A801B4BB3F90030184677
:104F800000230022002105F01DF8174BB3F9003073
:104F90009BB201339BB21AB2134B1A80124BB3F976
:104FA0000030184600230022002105F00BF80E4BBC
:104FB000B3F900309BB201339BB21AB20A4B1A808C
:104FC000094BB3F90030184600230022002104F0F9
:104FD000F9FF054BB3F900309BB201339BB21AB213
:104FE000014B1A8001F07CBC1C0300207B68462B1F
:104FF00040F3B8817B684B2B00F3B4819C4BB3F931
:10500000003018469B4B19689B4B1A689B4B1B68DA
:1050100004F0D8FF964BB3F900309BB201339BB23A
:105020001AB2934B1A80924BB3F900301846914B49
:105030001968914B1A68914B1B6804F0C3FF8C4BA5
:10504000B3F900309BB201339BB21AB2884B1A807D
:10505000874BB3F900301846864B1968864B1A689F
:10506000864B1B6804F0AEFF814BB3F900309BB256
:1050700001339BB21AB27E4B1A807D4BB3F90030DC
:1050800018467C4B19687C4B1A687C4B1B6804F0F3
:1050900099FF774BB3F900309BB201339BB21AB240
:1050A000734B1A80724BB3F900301846714B196874
:1050B000714B1A68714B1B6804F084FF6C4BB3F999
:1050C00000309BB201339BB21AB2694B1A80684B15
:1050D000B3F900301846674B1968674B1A68674B7D
:1050E0001B6804F06FFF624BB3F900309BB20133D1
:1050F0009BB21AB25E4B1A805D4BB3F90030184672
:105100005C4B19685C4B1A685C4B1B6804F05AFFD7
:10511000574BB3F900309BB201339BB21AB2544BD8
:105120001A80534BB3F900301846524B1968524B52
:105130001A68524B1B6804F045FF4D4BB3F9003021
:105140009BB201339BB21AB2494B1A80484BB3F958
:1051500000301846474B1968474B1A68474B1B6885
:1051600004F030FF424BB3F900309BB201339BB2E5
:105170001AB23F4B1A803E4BB3F9003018463D4BF4
:1051800019683D4B1A683D4B1B6804F01BFF384BF8
:10519000B3F900309BB201339BB21AB2344B1A8080
:1051A000334BB3F900301846324B1968324B1A684A
:1051B000324B1B6804F006FF2D4BB3F900309BB255
:1051C00001339BB21AB22A4B1A80294BB3F9003033
:1051D0001846284B1968284B1A68284B1B6804F09E
:1051E000F1FE234BB3F900309BB201339BB21AB2EC
:1051F0001F4B1A801E4BB3F9003018461D4B19681F
:105200001D4B1A681D4B1B6804F0DCFE184BB3F9EC
:1052100000309BB201339BB21AB2154B1A80144B6B
:10522000B3F900301846134B1968134B1A68134B27
:105230001B6804F0C7FE0E4BB3F900309BB201337C
:105240009BB21AB20A4B1A80094BB3F900301846C8
:10525000084B1968084B1A68084B1B6804F0B2FE2B
:10526000034BB3F900309BB201339BB21AB207E093
:105270001C030020080000200C000020100000206B
:10528000374B1A80364BB3F9003018460023002202
:10529000002104F097FE324BB3F900309BB201338A
:1052A0009BB21AB22E4B1A802D4BB3F90030184620
:1052B00000230022002104F085FE294BB3F90030C1
:1052C0009BB201339BB21AB2254B1A80244BB3F91F
:1052D0000030184600230022002104F073FE204B0A
:1052E000B3F900309BB201339BB21AB21C4B1A8047
:1052F0001B4BB3F90030184600230022002104F0B4
:1053000061FE174BB3F900309BB201339BB21AB266
:10531000134B1A80124BB3F90030184600230022B9
:10532000002104F04FFE0E4BB3F900309BB2013365
:105330009BB21AB20A4B1A80094BB3F900301846D7
:1053400000230022002104F03DFE054BB3F900309C
:105350009BB201339BB21AB2014B1A8001F0C0BA62
:105360001C0300207B684B2B40F3C2817B68502BD1
:1053700000F3BE819C4BB3F9003018469B4B196873
:105380009B4B1A689B4B1B6804F01CFE964BB3F9B1
:1053900000309BB201339BB21AB2934B1A80924BEE
:1053A000B3F900301846914B1968914B1A68914B2C
:1053B0001B6804F007FE8C4BB3F900309BB201333D
:1053C0009BB21AB2884B1A80874BB3F9003018464B
:1053D000864B1968864B1A68864B1B6804F0F2FDF1
:1053E000814BB3F900309BB201339BB21AB27E4BB2
:1053F0001A807D4BB3F9003018467C4B19687C4B02
:105400001A687C4B1B6804F0DDFD774BB3F9003064
:105410009BB201339BB21AB2734B1A80724BB3F931
:1054200000301846714B1968714B1A68714B1B6834
:1054300004F0C8FD6C4BB3F900309BB201339BB252
:105440001AB2694B1A80684BB3F900301846674BA3
:105450001968674B1A68674B1B6804F0B3FD624B11
:10546000B3F900309BB201339BB21AB25E4B1A8083
:105470005D4BB3F9003018465C4B19685C4B1A68F9
:105480005C4B1B6804F09EFD574BB3F900309BB298
:1054900001339BB21AB2544B1A80534BB3F900300C
:1054A0001846524B1968524B1A68524B1B6804F04D
:1054B00089FD4D4BB3F900309BB201339BB21AB258
:1054C000494B1A80484BB3F900301846474B1968CE
:1054D000474B1A68474B1B6804F074FD424BB3F905
:1054E00000309BB201339BB21AB23F4B1A803E4B45
:1054F000B3F9003018463D4B19683D4B1A683D4BD7
:105500001B6804F05FFD384BB3F900309BB20133E8
:105510009BB21AB2344B1A80334BB3F900301846A1
:10552000324B1968324B1A68324B1B6804F04AFD43
:105530002D4BB3F900309BB201339BB21AB22A4B08
:105540001A80294BB3F900301846284B1968284BAC
:105550001A68284B1B6804F035FD234BB3F9003063
:105560009BB201339BB21AB21F4B1A801E4BB3F988
:10557000003018461D4B19681D4B1A681D4B1B68DF
:1055800004F020FD184BB3F900309BB201339BB2FD
:105590001AB2154B1A80144BB3F900301846134B4E
:1055A0001968134B1A68134B1B6804F00BFD0E4B64
:1055B000B3F900309BB201339BB21AB20A4B1A8086
:1055C000094BB3F900301846084B1968084B1A68A4
:1055D000084B1B6804F0F6FC034BB3F900309BB298
:1055E00001339BB21AB207E01C0300200800002020
:1055F0000C00002010000020394B1A80384BB3F902
:1056000000301846374B1968374B1A68374B1B6800
:1056100004F0D8FC324BB3F900309BB201339BB29B
:105620001AB22F4B1A802E4BB3F9003018460023C4
:105630000022002104F0C6FC294BB3F900309BB2D4
:1056400001339BB21AB2264B1A80254BB3F90030B6
:10565000184600230022002104F0B4FC204BB3F9CB
:1056600000309BB201339BB21AB21D4B1A801C4B07
:10567000B3F90030184600230022002104F0A2FCF8
:10568000174BB3F900309BB201339BB21AB2144BE3
:105690001A80134BB3F90030184600230022002172
:1056A00004F090FC0E4BB3F900309BB201339BB277
:1056B0001AB20B4B1A800A4BB3F90030184600237C
:1056C0000022002104F07EFC054BB3F900309BB2B0
:1056D00001339BB21AB2024B1A8001F001B900BF2C
:1056E0001C030020080000200C00002010000020F7
:1056F0007B68502B40F3C4817B68552B00F3C0813D
:105700009C4BB3F9003018469B4B19689B4B1A68A9
:105710009B4B1B6804F056FC964BB3F900309BB2D0
:1057200001339BB21AB2934B1A80924BB3F90030FB
:105730001846914B1968914B1A68914B1B6804F0FD
:1057400041FC8C4BB3F900309BB201339BB21AB2CF
:10575000884B1A80874BB3F900301846864B19687E
:10576000864B1A68864B1B6804F02CFC814BB3F9FE
:1057700000309BB201339BB21AB27E4B1A807D4B34
:10578000B3F9003018467C4B19687C4B1A687C4B87
:105790001B6804F017FC774BB3F900309BB2013360
:1057A0009BB21AB2734B1A80724BB3F90030184691
:1057B000714B1968714B1A68714B1B6804F002FC3D
:1057C0006C4BB3F900309BB201339BB21AB2694BF8
:1057D0001A80684BB3F900301846674B1968674B5D
:1057E0001A68674B1B6804F0EDFB624BB3F900309D
:1057F0009BB201339BB21AB25E4B1A805D4BB3F978
:10580000003018465C4B19685C4B1A685C4B1B688F
:1058100004F0D8FB574BB3F900309BB201339BB275
:105820001AB2544B1A80534BB3F900301846524BFE
:105830001968524B1A68524B1B6804F0C3FB4D4B5E
:10584000B3F900309BB201339BB21AB2494B1A80B4
:10585000484BB3F900301846474B1968474B1A6854
:10586000474B1B6804F0AEFB424BB3F900309BB2D0
:1058700001339BB21AB23F4B1A803E4BB3F9003052
:1058800018463D4B19683D4B1A683D4B1B6804F0A8
:1058900099FB384BB3F900309BB201339BB21AB27B
:1058A000344B1A80334BB3F900301846324B196829
:1058B000324B1A68324B1B6804F084FB2D4BB3F952
:1058C00000309BB201339BB21AB22A4B1A80294B8B
:1058D000B3F900301846284B1968284B1A68284B32
:1058E0001B6804F06FFB234BB3F900309BB201330C
:1058F0009BB21AB21F4B1A801E4BB3F900301846E8
:105900001D4B19681D4B1A681D4B1B6804F05AFB90
:10591000184BB3F900309BB201339BB21AB2154B4E
:105920001A80144BB3F900301846134B1968134B07
:105930001A68134B1B6804F045FB0E4BB3F900309B
:105940009BB201339BB21AB20A4B1A80094BB3F9CE
:1059500000301846084B1968084B1A68084B1B683A
:1059600004F030FB034BB3F900309BB201339BB220
:105970001AB207E01C030020080000200C000020E1
:10598000100000203A4B1A80394BB3F9003018460A
:10599000384B1968384B1A68384B1B6804F012FBF7
:1059A000334BB3F900309BB201339BB21AB2304B88
:1059B0001A802F4BB3F9003018462E4B19682E4B26
:1059C0001A682E4B1B6804F0FDFA294BB3F900301E
:1059D0009BB201339BB21AB2254B1A80244BB3F908
:1059E0000030184600230022002104F0EBFA204B7F
:1059F000B3F900309BB201339BB21AB21C4B1A8030
:105A00001B4BB3F90030184600230022002104F09C
:105A1000D9FA174BB3F900309BB201339BB21AB2DB
:105A2000134B1A80124BB3F90030184600230022A2
:105A3000002104F0C7FA0E4BB3F900309BB20133DA
:105A40009BB21AB20A4B1A80094BB3F900301846C0
:105A500000230022002104F0B5FA054BB3F9003011
:105A60009BB201339BB21AB2014B1A8000F038BFCF
:105A70001C030020080000200C0000201000002063
:105A80007B68552B40F3C8817B685A2B00F3C48197
:105A90009C4BB3F9003018469B4B19689B4B1A6816
:105AA0009B4B1B6804F08EFA964BB3F900309BB207
:105AB00001339BB21AB2934B1A80924BB3F9003068
:105AC0001846914B1968914B1A68914B1B6804F06A
:105AD00079FA8C4BB3F900309BB201339BB21AB206
